{
  "_format": "hh-sol-artifact-1",
  "contractName": "SpacePiratesTokens",
  "sourceName": "contracts/SpacePiratesTokens.sol",
  "abi": [
    {
      "inputs": [
        {
          "internalType": "string",
          "name": "uri",
          "type": "string"
        }
      ],
      "stateMutability": "nonpayable",
      "type": "constructor"
    },
    {
      "anonymous": false,
      "inputs": [
        {
          "indexed": true,
          "internalType": "address",
          "name": "account",
          "type": "address"
        },
        {
          "indexed": true,
          "internalType": "address",
          "name": "operator",
          "type": "address"
        },
        {
          "indexed": false,
          "internalType": "bool",
          "name": "approved",
          "type": "bool"
        }
      ],
      "name": "ApprovalForAll",
      "type": "event"
    },
    {
      "anonymous": false,
      "inputs": [
        {
          "indexed": true,
          "internalType": "address",
          "name": "sender",
          "type": "address"
        },
        {
          "indexed": false,
          "internalType": "uint256",
          "name": "id",
          "type": "uint256"
        },
        {
          "indexed": false,
          "internalType": "uint256",
          "name": "amount",
          "type": "uint256"
        }
      ],
      "name": "Burn",
      "type": "event"
    },
    {
      "anonymous": false,
      "inputs": [
        {
          "indexed": true,
          "internalType": "address",
          "name": "sender",
          "type": "address"
        },
        {
          "indexed": false,
          "internalType": "uint256[]",
          "name": "ids",
          "type": "uint256[]"
        },
        {
          "indexed": false,
          "internalType": "uint256[]",
          "name": "amounts",
          "type": "uint256[]"
        }
      ],
      "name": "BurnBatch",
      "type": "event"
    },
    {
      "anonymous": false,
      "inputs": [
        {
          "indexed": true,
          "internalType": "bytes32[]",
          "name": "roles",
          "type": "bytes32[]"
        },
        {
          "indexed": false,
          "internalType": "address[]",
          "name": "accounts",
          "type": "address[]"
        }
      ],
      "name": "GrantMultiRole",
      "type": "event"
    },
    {
      "anonymous": false,
      "inputs": [
        {
          "indexed": true,
          "internalType": "bytes32",
          "name": "role",
          "type": "bytes32"
        },
        {
          "indexed": false,
          "internalType": "address",
          "name": "account",
          "type": "address"
        }
      ],
      "name": "GrantRole",
      "type": "event"
    },
    {
      "anonymous": false,
      "inputs": [],
      "name": "LockTokenTransfer",
      "type": "event"
    },
    {
      "anonymous": false,
      "inputs": [
        {
          "indexed": true,
          "internalType": "address",
          "name": "sender",
          "type": "address"
        },
        {
          "indexed": false,
          "internalType": "uint256",
          "name": "id",
          "type": "uint256"
        },
        {
          "indexed": false,
          "internalType": "uint256",
          "name": "amount",
          "type": "uint256"
        },
        {
          "indexed": true,
          "internalType": "address",
          "name": "to",
          "type": "address"
        }
      ],
      "name": "Mint",
      "type": "event"
    },
    {
      "anonymous": false,
      "inputs": [
        {
          "indexed": true,
          "internalType": "address",
          "name": "sender",
          "type": "address"
        },
        {
          "indexed": false,
          "internalType": "uint256[]",
          "name": "ids",
          "type": "uint256[]"
        },
        {
          "indexed": false,
          "internalType": "uint256[]",
          "name": "amounts",
          "type": "uint256[]"
        },
        {
          "indexed": true,
          "internalType": "address",
          "name": "to",
          "type": "address"
        }
      ],
      "name": "MintBatch",
      "type": "event"
    },
    {
      "anonymous": false,
      "inputs": [],
      "name": "Pause",
      "type": "event"
    },
    {
      "anonymous": false,
      "inputs": [
        {
          "indexed": false,
          "internalType": "address",
          "name": "account",
          "type": "address"
        }
      ],
      "name": "Paused",
      "type": "event"
    },
    {
      "anonymous": false,
      "inputs": [
        {
          "indexed": true,
          "internalType": "bytes32",
          "name": "role",
          "type": "bytes32"
        },
        {
          "indexed": false,
          "internalType": "address",
          "name": "account",
          "type": "address"
        }
      ],
      "name": "RenounceRole",
      "type": "event"
    },
    {
      "anonymous": false,
      "inputs": [
        {
          "indexed": true,
          "internalType": "bytes32[]",
          "name": "roles",
          "type": "bytes32[]"
        },
        {
          "indexed": false,
          "internalType": "address[]",
          "name": "accounts",
          "type": "address[]"
        }
      ],
      "name": "RevokeMultiRole",
      "type": "event"
    },
    {
      "anonymous": false,
      "inputs": [
        {
          "indexed": true,
          "internalType": "bytes32",
          "name": "role",
          "type": "bytes32"
        },
        {
          "indexed": false,
          "internalType": "address",
          "name": "account",
          "type": "address"
        }
      ],
      "name": "RevokeRole",
      "type": "event"
    },
    {
      "anonymous": false,
      "inputs": [
        {
          "indexed": true,
          "internalType": "bytes32",
          "name": "role",
          "type": "bytes32"
        },
        {
          "indexed": true,
          "internalType": "bytes32",
          "name": "previousAdminRole",
          "type": "bytes32"
        },
        {
          "indexed": true,
          "internalType": "bytes32",
          "name": "newAdminRole",
          "type": "bytes32"
        }
      ],
      "name": "RoleAdminChanged",
      "type": "event"
    },
    {
      "anonymous": false,
      "inputs": [
        {
          "indexed": true,
          "internalType": "bytes32",
          "name": "role",
          "type": "bytes32"
        },
        {
          "indexed": true,
          "internalType": "address",
          "name": "account",
          "type": "address"
        },
        {
          "indexed": true,
          "internalType": "address",
          "name": "sender",
          "type": "address"
        }
      ],
      "name": "RoleGranted",
      "type": "event"
    },
    {
      "anonymous": false,
      "inputs": [
        {
          "indexed": true,
          "internalType": "bytes32",
          "name": "role",
          "type": "bytes32"
        },
        {
          "indexed": true,
          "internalType": "address",
          "name": "account",
          "type": "address"
        },
        {
          "indexed": true,
          "internalType": "address",
          "name": "sender",
          "type": "address"
        }
      ],
      "name": "RoleRevoked",
      "type": "event"
    },
    {
      "anonymous": false,
      "inputs": [
        {
          "indexed": true,
          "internalType": "address",
          "name": "operator",
          "type": "address"
        },
        {
          "indexed": true,
          "internalType": "address",
          "name": "from",
          "type": "address"
        },
        {
          "indexed": true,
          "internalType": "address",
          "name": "to",
          "type": "address"
        },
        {
          "indexed": false,
          "internalType": "uint256[]",
          "name": "ids",
          "type": "uint256[]"
        },
        {
          "indexed": false,
          "internalType": "uint256[]",
          "name": "values",
          "type": "uint256[]"
        }
      ],
      "name": "TransferBatch",
      "type": "event"
    },
    {
      "anonymous": false,
      "inputs": [
        {
          "indexed": true,
          "internalType": "address",
          "name": "operator",
          "type": "address"
        },
        {
          "indexed": true,
          "internalType": "address",
          "name": "from",
          "type": "address"
        },
        {
          "indexed": true,
          "internalType": "address",
          "name": "to",
          "type": "address"
        },
        {
          "indexed": false,
          "internalType": "uint256",
          "name": "id",
          "type": "uint256"
        },
        {
          "indexed": false,
          "internalType": "uint256",
          "name": "value",
          "type": "uint256"
        }
      ],
      "name": "TransferSingle",
      "type": "event"
    },
    {
      "anonymous": false,
      "inputs": [
        {
          "indexed": false,
          "internalType": "string",
          "name": "value",
          "type": "string"
        },
        {
          "indexed": true,
          "internalType": "uint256",
          "name": "id",
          "type": "uint256"
        }
      ],
      "name": "URI",
      "type": "event"
    },
    {
      "anonymous": false,
      "inputs": [],
      "name": "UnLockTokenTransfer",
      "type": "event"
    },
    {
      "anonymous": false,
      "inputs": [],
      "name": "Unpause",
      "type": "event"
    },
    {
      "anonymous": false,
      "inputs": [
        {
          "indexed": false,
          "internalType": "address",
          "name": "account",
          "type": "address"
        }
      ],
      "name": "Unpaused",
      "type": "event"
    },
    {
      "anonymous": false,
      "inputs": [
        {
          "indexed": false,
          "internalType": "string",
          "name": "newUri",
          "type": "string"
        }
      ],
      "name": "UriUpdate",
      "type": "event"
    },
    {
      "inputs": [],
      "name": "ASTEROIDS",
      "outputs": [
        {
          "internalType": "uint256",
          "name": "",
          "type": "uint256"
        }
      ],
      "stateMutability": "view",
      "type": "function"
    },
    {
      "inputs": [],
      "name": "CAN_PAUSE_ROLE",
      "outputs": [
        {
          "internalType": "bytes32",
          "name": "",
          "type": "bytes32"
        }
      ],
      "stateMutability": "view",
      "type": "function"
    },
    {
      "inputs": [],
      "name": "CAN_UNPAUSE_ROLE",
      "outputs": [
        {
          "internalType": "bytes32",
          "name": "",
          "type": "bytes32"
        }
      ],
      "stateMutability": "view",
      "type": "function"
    },
    {
      "inputs": [],
      "name": "DECORATIONS_BURN_ROLE",
      "outputs": [
        {
          "internalType": "bytes32",
          "name": "",
          "type": "bytes32"
        }
      ],
      "stateMutability": "view",
      "type": "function"
    },
    {
      "inputs": [],
      "name": "DECORATIONS_MINT_ROLE",
      "outputs": [
        {
          "internalType": "bytes32",
          "name": "",
          "type": "bytes32"
        }
      ],
      "stateMutability": "view",
      "type": "function"
    },
    {
      "inputs": [],
      "name": "DEFAULT_ADMIN_ROLE",
      "outputs": [
        {
          "internalType": "bytes32",
          "name": "",
          "type": "bytes32"
        }
      ],
      "stateMutability": "view",
      "type": "function"
    },
    {
      "inputs": [],
      "name": "DOUBLOONS",
      "outputs": [
        {
          "internalType": "uint256",
          "name": "",
          "type": "uint256"
        }
      ],
      "stateMutability": "view",
      "type": "function"
    },
    {
      "inputs": [],
      "name": "ITEMS_BURN_ROLE",
      "outputs": [
        {
          "internalType": "bytes32",
          "name": "",
          "type": "bytes32"
        }
      ],
      "stateMutability": "view",
      "type": "function"
    },
    {
      "inputs": [],
      "name": "ITEMS_MINT_ROLE",
      "outputs": [
        {
          "internalType": "bytes32",
          "name": "",
          "type": "bytes32"
        }
      ],
      "stateMutability": "view",
      "type": "function"
    },
    {
      "inputs": [],
      "name": "STK_ASTEROIDS",
      "outputs": [
        {
          "internalType": "uint256",
          "name": "",
          "type": "uint256"
        }
      ],
      "stateMutability": "view",
      "type": "function"
    },
    {
      "inputs": [],
      "name": "TITLES_BURN_ROLE",
      "outputs": [
        {
          "internalType": "bytes32",
          "name": "",
          "type": "bytes32"
        }
      ],
      "stateMutability": "view",
      "type": "function"
    },
    {
      "inputs": [],
      "name": "TITLES_MINT_ROLE",
      "outputs": [
        {
          "internalType": "bytes32",
          "name": "",
          "type": "bytes32"
        }
      ],
      "stateMutability": "view",
      "type": "function"
    },
    {
      "inputs": [],
      "name": "TRANSFERABLE_SETTER_ROLE",
      "outputs": [
        {
          "internalType": "bytes32",
          "name": "",
          "type": "bytes32"
        }
      ],
      "stateMutability": "view",
      "type": "function"
    },
    {
      "inputs": [],
      "name": "URI_SETTER_ROLE",
      "outputs": [
        {
          "internalType": "bytes32",
          "name": "",
          "type": "bytes32"
        }
      ],
      "stateMutability": "view",
      "type": "function"
    },
    {
      "inputs": [],
      "name": "VE_ASTEROIDS",
      "outputs": [
        {
          "internalType": "uint256",
          "name": "",
          "type": "uint256"
        }
      ],
      "stateMutability": "view",
      "type": "function"
    },
    {
      "inputs": [],
      "name": "WRAPPED_BURN_ROLE",
      "outputs": [
        {
          "internalType": "bytes32",
          "name": "",
          "type": "bytes32"
        }
      ],
      "stateMutability": "view",
      "type": "function"
    },
    {
      "inputs": [],
      "name": "WRAPPED_MINT_ROLE",
      "outputs": [
        {
          "internalType": "bytes32",
          "name": "",
          "type": "bytes32"
        }
      ],
      "stateMutability": "view",
      "type": "function"
    },
    {
      "inputs": [
        {
          "internalType": "address",
          "name": "account",
          "type": "address"
        },
        {
          "internalType": "uint256",
          "name": "id",
          "type": "uint256"
        }
      ],
      "name": "balanceOf",
      "outputs": [
        {
          "internalType": "uint256",
          "name": "",
          "type": "uint256"
        }
      ],
      "stateMutability": "view",
      "type": "function"
    },
    {
      "inputs": [
        {
          "internalType": "address[]",
          "name": "accounts",
          "type": "address[]"
        },
        {
          "internalType": "uint256[]",
          "name": "ids",
          "type": "uint256[]"
        }
      ],
      "name": "balanceOfBatch",
      "outputs": [
        {
          "internalType": "uint256[]",
          "name": "",
          "type": "uint256[]"
        }
      ],
      "stateMutability": "view",
      "type": "function"
    },
    {
      "inputs": [
        {
          "internalType": "address",
          "name": "from",
          "type": "address"
        },
        {
          "internalType": "uint256",
          "name": "amount",
          "type": "uint256"
        },
        {
          "internalType": "uint256",
          "name": "id",
          "type": "uint256"
        }
      ],
      "name": "burn",
      "outputs": [],
      "stateMutability": "nonpayable",
      "type": "function"
    },
    {
      "inputs": [
        {
          "internalType": "address",
          "name": "from",
          "type": "address"
        },
        {
          "internalType": "uint256[]",
          "name": "ids",
          "type": "uint256[]"
        },
        {
          "internalType": "uint256[]",
          "name": "amounts",
          "type": "uint256[]"
        }
      ],
      "name": "burnBatch",
      "outputs": [],
      "stateMutability": "nonpayable",
      "type": "function"
    },
    {
      "inputs": [
        {
          "internalType": "uint256",
          "name": "id",
          "type": "uint256"
        }
      ],
      "name": "canBeTransferred",
      "outputs": [
        {
          "internalType": "bool",
          "name": "",
          "type": "bool"
        }
      ],
      "stateMutability": "view",
      "type": "function"
    },
    {
      "inputs": [
        {
          "internalType": "uint256",
          "name": "id",
          "type": "uint256"
        }
      ],
      "name": "exists",
      "outputs": [
        {
          "internalType": "bool",
          "name": "",
          "type": "bool"
        }
      ],
      "stateMutability": "view",
      "type": "function"
    },
    {
      "inputs": [
        {
          "internalType": "bytes32",
          "name": "role",
          "type": "bytes32"
        }
      ],
      "name": "getRoleAdmin",
      "outputs": [
        {
          "internalType": "bytes32",
          "name": "",
          "type": "bytes32"
        }
      ],
      "stateMutability": "view",
      "type": "function"
    },
    {
      "inputs": [
        {
          "internalType": "bytes32[]",
          "name": "roles",
          "type": "bytes32[]"
        },
        {
          "internalType": "address[]",
          "name": "accounts",
          "type": "address[]"
        }
      ],
      "name": "grantMultiRole",
      "outputs": [],
      "stateMutability": "nonpayable",
      "type": "function"
    },
    {
      "inputs": [
        {
          "internalType": "bytes32",
          "name": "role",
          "type": "bytes32"
        },
        {
          "internalType": "address",
          "name": "account",
          "type": "address"
        }
      ],
      "name": "grantRole",
      "outputs": [],
      "stateMutability": "nonpayable",
      "type": "function"
    },
    {
      "inputs": [
        {
          "internalType": "bytes32",
          "name": "role",
          "type": "bytes32"
        },
        {
          "internalType": "address",
          "name": "account",
          "type": "address"
        }
      ],
      "name": "hasRole",
      "outputs": [
        {
          "internalType": "bool",
          "name": "",
          "type": "bool"
        }
      ],
      "stateMutability": "view",
      "type": "function"
    },
    {
      "inputs": [
        {
          "internalType": "address",
          "name": "account",
          "type": "address"
        },
        {
          "internalType": "address",
          "name": "operator",
          "type": "address"
        }
      ],
      "name": "isApprovedForAll",
      "outputs": [
        {
          "internalType": "bool",
          "name": "",
          "type": "bool"
        }
      ],
      "stateMutability": "view",
      "type": "function"
    },
    {
      "inputs": [
        {
          "internalType": "uint256",
          "name": "id",
          "type": "uint256"
        }
      ],
      "name": "lockTokenTransfer",
      "outputs": [],
      "stateMutability": "nonpayable",
      "type": "function"
    },
    {
      "inputs": [
        {
          "internalType": "address",
          "name": "to",
          "type": "address"
        },
        {
          "internalType": "uint256",
          "name": "amount",
          "type": "uint256"
        },
        {
          "internalType": "uint256",
          "name": "id",
          "type": "uint256"
        }
      ],
      "name": "mint",
      "outputs": [],
      "stateMutability": "nonpayable",
      "type": "function"
    },
    {
      "inputs": [
        {
          "internalType": "address",
          "name": "to",
          "type": "address"
        },
        {
          "internalType": "uint256[]",
          "name": "ids",
          "type": "uint256[]"
        },
        {
          "internalType": "uint256[]",
          "name": "amounts",
          "type": "uint256[]"
        }
      ],
      "name": "mintBatch",
      "outputs": [],
      "stateMutability": "nonpayable",
      "type": "function"
    },
    {
      "inputs": [],
      "name": "pause",
      "outputs": [],
      "stateMutability": "nonpayable",
      "type": "function"
    },
    {
      "inputs": [],
      "name": "paused",
      "outputs": [
        {
          "internalType": "bool",
          "name": "",
          "type": "bool"
        }
      ],
      "stateMutability": "view",
      "type": "function"
    },
    {
      "inputs": [
        {
          "internalType": "bytes32",
          "name": "role",
          "type": "bytes32"
        },
        {
          "internalType": "address",
          "name": "account",
          "type": "address"
        }
      ],
      "name": "renounceRole",
      "outputs": [],
      "stateMutability": "nonpayable",
      "type": "function"
    },
    {
      "inputs": [
        {
          "internalType": "bytes32[]",
          "name": "roles",
          "type": "bytes32[]"
        },
        {
          "internalType": "address[]",
          "name": "accounts",
          "type": "address[]"
        }
      ],
      "name": "revokeMultiRole",
      "outputs": [],
      "stateMutability": "nonpayable",
      "type": "function"
    },
    {
      "inputs": [
        {
          "internalType": "bytes32",
          "name": "role",
          "type": "bytes32"
        },
        {
          "internalType": "address",
          "name": "account",
          "type": "address"
        }
      ],
      "name": "revokeRole",
      "outputs": [],
      "stateMutability": "nonpayable",
      "type": "function"
    },
    {
      "inputs": [
        {
          "internalType": "address",
          "name": "from",
          "type": "address"
        },
        {
          "internalType": "address",
          "name": "to",
          "type": "address"
        },
        {
          "internalType": "uint256[]",
          "name": "ids",
          "type": "uint256[]"
        },
        {
          "internalType": "uint256[]",
          "name": "amounts",
          "type": "uint256[]"
        },
        {
          "internalType": "bytes",
          "name": "data",
          "type": "bytes"
        }
      ],
      "name": "safeBatchTransferFrom",
      "outputs": [],
      "stateMutability": "nonpayable",
      "type": "function"
    },
    {
      "inputs": [
        {
          "internalType": "address",
          "name": "from",
          "type": "address"
        },
        {
          "internalType": "address",
          "name": "to",
          "type": "address"
        },
        {
          "internalType": "uint256",
          "name": "id",
          "type": "uint256"
        },
        {
          "internalType": "uint256",
          "name": "amount",
          "type": "uint256"
        },
        {
          "internalType": "bytes",
          "name": "data",
          "type": "bytes"
        }
      ],
      "name": "safeTransferFrom",
      "outputs": [],
      "stateMutability": "nonpayable",
      "type": "function"
    },
    {
      "inputs": [
        {
          "internalType": "address",
          "name": "operator",
          "type": "address"
        },
        {
          "internalType": "bool",
          "name": "approved",
          "type": "bool"
        }
      ],
      "name": "setApprovalForAll",
      "outputs": [],
      "stateMutability": "nonpayable",
      "type": "function"
    },
    {
      "inputs": [
        {
          "internalType": "string",
          "name": "newUri",
          "type": "string"
        }
      ],
      "name": "setURI",
      "outputs": [],
      "stateMutability": "nonpayable",
      "type": "function"
    },
    {
      "inputs": [
        {
          "internalType": "bytes4",
          "name": "interfaceId",
          "type": "bytes4"
        }
      ],
      "name": "supportsInterface",
      "outputs": [
        {
          "internalType": "bool",
          "name": "",
          "type": "bool"
        }
      ],
      "stateMutability": "view",
      "type": "function"
    },
    {
      "inputs": [
        {
          "internalType": "uint256",
          "name": "id",
          "type": "uint256"
        }
      ],
      "name": "totalSupply",
      "outputs": [
        {
          "internalType": "uint256",
          "name": "",
          "type": "uint256"
        }
      ],
      "stateMutability": "view",
      "type": "function"
    },
    {
      "inputs": [
        {
          "internalType": "uint256",
          "name": "id",
          "type": "uint256"
        }
      ],
      "name": "unLockTokenTransfer",
      "outputs": [],
      "stateMutability": "nonpayable",
      "type": "function"
    },
    {
      "inputs": [],
      "name": "unpause",
      "outputs": [],
      "stateMutability": "nonpayable",
      "type": "function"
    },
    {
      "inputs": [
        {
          "internalType": "uint256",
          "name": "id",
          "type": "uint256"
        }
      ],
      "name": "uri",
      "outputs": [
        {
          "internalType": "string",
          "name": "",
          "type": "string"
        }
      ],
      "stateMutability": "view",
      "type": "function"
    }
  ],
  "bytecode": "0x60806040523480156200001157600080fd5b5060405162004628380380620046288339810160408190526200003491620008e5565b6000805460ff19169055806200004a81620000ba565b506200007933600169d3c21bcecceda100000060405180602001604052806000815250620000d360201b60201c565b620000a633600268056bc75e2d6310000060405180602001604052806000815250620000d360201b60201c565b620000b360003362000208565b5062000bb9565b8051620000cf9060059060208401906200080e565b5050565b6001600160a01b038416620001395760405162461bcd60e51b815260206004820152602160248201527f455243313135353a206d696e7420746f20746865207a65726f206164647265736044820152607360f81b60648201526084015b60405180910390fd5b336000620001478562000214565b90506000620001568562000214565b905062000169836000898585896200026e565b60008681526002602090815260408083206001600160a01b038b168452909152812080548792906200019d90849062000a0d565b909155505060408051878152602081018790526001600160a01b03808a1692600092918716917fc3d58168c5ae7397731d063d5bbf3d657854427343f4c083240f7aacaa2d0f62910160405180910390a4620001ff836000898989896200057e565b50505050505050565b620000cf82826200075b565b604080516001808252818301909252606091600091906020808301908036833701905050905082816000815181106200025d57634e487b7160e01b600052603260045260246000fd5b602090810291909101015292915050565b60005460ff1615620002d85760405162461bcd60e51b815260206004820152602c60248201527f455243313135355061757361626c653a20746f6b656e207472616e736665722060448201526b1dda1a5b19481c185d5cd95960a21b606482015260840162000130565b6001600160a01b03851615801590620002f957506001600160a01b03841615155b15620003b35760005b8351811015620003b157600460008583815181106200033157634e487b7160e01b600052603260045260246000fd5b60209081029190910181015182528101919091526040016000205460ff16156200039e5760405162461bcd60e51b815260206004820152601f60248201527f455243313135353a20746f6b656e206e6f74207472616e7366657261626c6500604482015260640162000130565b620003a98162000ac7565b905062000302565b505b6001600160a01b0385166200045f5760005b83518110156200045d57828181518110620003f057634e487b7160e01b600052603260045260246000fd5b6020026020010151600160008684815181106200041d57634e487b7160e01b600052603260045260246000fd5b60200260200101518152602001908152602001600020600082825462000444919062000a0d565b909155506200045590508162000ac7565b9050620003c5565b505b6001600160a01b038416620005765760005b8351811015620001ff5760008482815181106200049e57634e487b7160e01b600052603260045260246000fd5b602002602001015190506000848381518110620004cb57634e487b7160e01b600052603260045260246000fd5b6020026020010151905060006001600084815260200190815260200160002054905081811015620005505760405162461bcd60e51b815260206004820152602860248201527f455243313135353a206275726e20616d6f756e74206578636565647320746f74604482015267616c537570706c7960c01b606482015260840162000130565b600092835260016020526040909220910390556200056e8162000ac7565b905062000471565b505050505050565b6200059d846001600160a01b0316620007ff60201b6200130f1760201c565b15620005765760405163f23a6e6160e01b81526001600160a01b0385169063f23a6e6190620005d99089908990889088908890600401620009b1565b602060405180830381600087803b158015620005f457600080fd5b505af192505050801562000627575060408051601f3d908101601f191682019092526200062491810190620008b4565b60015b620006e8576200063662000b11565b806308c379a014156200067757506200064e62000b2a565b806200065b575062000679565b8060405162461bcd60e51b8152600401620001309190620009f8565b505b60405162461bcd60e51b815260206004820152603460248201527f455243313135353a207472616e7366657220746f206e6f6e204552433131353560448201527f526563656976657220696d706c656d656e746572000000000000000000000000606482015260840162000130565b6001600160e01b0319811663f23a6e6160e01b14620001ff5760405162461bcd60e51b815260206004820152602860248201527f455243313135353a204552433131353552656365697665722072656a656374656044820152676420746f6b656e7360c01b606482015260840162000130565b60008281526006602090815260408083206001600160a01b038516845290915290205460ff16620000cf5760008281526006602090815260408083206001600160a01b03851684529091529020805460ff19166001179055620007bb3390565b6001600160a01b0316816001600160a01b0316837f2f8788117e7eff1d82e926ec794901d17c78024a50270940304540a733656f0d60405160405180910390a45050565b6001600160a01b03163b151590565b8280546200081c9062000a5b565b90600052602060002090601f0160209004810192826200084057600085556200088b565b82601f106200085b57805160ff19168380011785556200088b565b828001600101855582156200088b579182015b828111156200088b5782518255916020019190600101906200086e565b50620008999291506200089d565b5090565b5b808211156200089957600081556001016200089e565b600060208284031215620008c6578081fd5b81516001600160e01b031981168114620008de578182fd5b9392505050565b600060208284031215620008f7578081fd5b81516001600160401b03808211156200090e578283fd5b818401915084601f83011262000922578283fd5b81518181111562000937576200093762000afb565b604051915062000952601f8201601f19166020018362000a98565b80825285602082850101111562000967578384fd5b6200097a81602084016020860162000a28565b50949350505050565b600081518084526200099d81602086016020860162000a28565b601f01601f19169290920160200192915050565b6001600160a01b03868116825285166020820152604081018490526060810183905260a060808201819052600090620009ed9083018462000983565b979650505050505050565b602081526000620008de602083018462000983565b6000821982111562000a235762000a2362000ae5565b500190565b60005b8381101562000a4557818101518382015260200162000a2b565b8381111562000a55576000848401525b50505050565b600181811c9082168062000a7057607f821691505b6020821081141562000a9257634e487b7160e01b600052602260045260246000fd5b50919050565b601f8201601f191681016001600160401b038111828210171562000ac05762000ac062000afb565b6040525050565b600060001982141562000ade5762000ade62000ae5565b5060010190565b634e487b7160e01b600052601160045260246000fd5b634e487b7160e01b600052604160045260246000fd5b600060033d111562000b2757600481823e5160e01c5b90565b600060443d101562000b395790565b6040516003193d81016004833e81513d6001600160401b03808311602484018310171562000b6957505050505090565b828501915081518181111562000b825750505050505090565b843d870101602082850101111562000b9d5750505050505090565b62000bae6020828601018762000a98565b509095945050505050565b613a5f8062000bc96000396000f3fe608060405234801561001057600080fd5b506004361061027e5760003560e01c80636b20c4541161015c578063c6782462116100ce578063e622f4b111610087578063e622f4b11461066b578063e9098d9c1461067e578063e985e9c5146106a5578063f242432a146106e1578063f4481de0146106f4578063f5298aca1461070757600080fd5b8063c6782462146105cb578063c68c44ff146105f2578063c89999d0146105fa578063d547741f1461061e578063d81d0a1514610631578063e00b587a1461064457600080fd5b8063a217fddf11610120578063a217fddf1461052f578063a22cb46514610537578063a8ee06281461054a578063b517d1cc14610571578063b5e6f55514610584578063bd85b039146105ab57600080fd5b80636b20c454146104b35780637f345710146104c65780638456cb59146104ed57806385d5084b146104f557806391d148541461051c57600080fd5b8063380b1d41116101f55780634e1273f4116101b95780634e1273f4146104105780634f558e791461043057806359590b32146104525780635c975abb146104795780635cd56955146104845780636712627d146104ab57600080fd5b8063380b1d411461039f578063391c3891146103c65780633c71cfa2146103d95780633f4ba83a146103e157806347b291cd146103e957600080fd5b8063156e29f611610247578063156e29f614610328578063248a9ca31461033b5780632eb2c2d61461035e5780632f2ff15d1461037157806331e61ea61461038457806336568abe1461038c57600080fd5b8062fdd58e1461028357806301ffc9a7146102a957806302fe5305146102cc5780630e89341c146102e1578063124130b714610301575b600080fd5b610296610291366004612fba565b61071a565b6040519081526020015b60405180910390f35b6102bc6102b7366004613181565b6107b2565b60405190151581526020016102a0565b6102df6102da3660046131b9565b6107c3565b005b6102f46102ef366004613147565b610831565b6040516102a09190613547565b6102967fae196802966ddb0eed808e030e9905b906ad173665ebaa4ec3254544456d188e81565b6102df610336366004612fe3565b6108d2565b610296610349366004613147565b60009081526006602052604090206001015490565b6102df61036c366004612dfc565b610942565b6102df61037f36600461315f565b6109d9565b610296600381565b6102df61039a36600461315f565b610a42565b6102967f77fe00f5aaa81d64d9f55d8616be0398bce160f21a075e1635f854dc0c69a57281565b6102df6103d43660046130df565b610ac0565b610296600481565b6102df610bfe565b6102967fcc0ccd8bd17a2b44b8083daff945bb3afbdb74c75c0d0ade0c1d73872f3da2b781565b61042361041e366004613015565b610c5c565b6040516102a0919061350f565b6102bc61043e366004613147565b600090815260016020526040902054151590565b6102967f5a858fceef8a0916707e3b8d20381bb4869a55f766ca6b98b79a65718c1af55c81565b60005460ff166102bc565b6102967f7b4d2faaff6bdaace990e24462dcf2739c3533574e81f2cb36eeec6d9d91a63e81565b610296600281565b6102df6104c1366004612f03565b610dbd565b6102967f7804d923f43a17d325d77e781528e0793b2edd9890ab45fc64efd7b4b427744c81565b6102df610e83565b6102967f2b4969f19539c2db676e85f97d2bd9db7c07cb467eb0cd96476827285a03148481565b6102bc61052a36600461315f565b610ee1565b610296600081565b6102df610545366004612f80565b610f0c565b6102967fc9753cc6a12b1d2aa87c7b66743185706ef6ec8328f4ea4f1bb99f0cac77045781565b6102df61057f366004613147565b610f17565b6102967f570fae637af42631540d61792ad6c3a38622f6396680bd058c94992df958932e81565b6102966105b9366004613147565b60009081526001602052604090205490565b6102967fd1b4dc7e91c020dd9a22a12df8a310edc9b278f858f001ba89798b0309dc366681565b610296600181565b6102bc610608366004613147565b60009081526004602052604090205460ff161590565b6102df61062c36600461315f565b610f87565b6102df61063f366004612f03565b610fe7565b6102967f8a971267dda73f2bbe888f9ed240c21afb5a5980f7b1e92aeafaad3880dac52f81565b6102df610679366004613147565b6110c5565b6102967fd241016ee141eea33ebd00967f7f7843377cf319f71a1070675110119fb86c0181565b6102bc6106b3366004612dca565b6001600160a01b03918216600090815260036020908152604080832093909416825291909152205460ff1690565b6102df6106ef366004612ea1565b61112f565b6102df6107023660046130df565b611174565b6102df610715366004612fe3565b611282565b60006001600160a01b03831661078a5760405162461bcd60e51b815260206004820152602a60248201527f455243313135353a2061646472657373207a65726f206973206e6f742061207660448201526930b634b21037bbb732b960b11b60648201526084015b60405180910390fd5b5060009081526002602090815260408083206001600160a01b03949094168352929052205490565b60006107bd8261131e565b92915050565b7f7804d923f43a17d325d77e781528e0793b2edd9890ab45fc64efd7b4b427744c6107ed81611343565b6107f682611350565b7ff5812106a5117622bd79cfb5006bd04706a128a2c4830dd03e5f8a17b1eb7483826040516108259190613547565b60405180910390a15050565b6000818152600160205260409020546060906108a05760405162461bcd60e51b815260206004820152602860248201527f455243313135353a2055524920717565727920666f72206e6f6e657869737465604482015267373a103a37b5b2b760c11b6064820152608401610781565b60056108ab83611363565b6040516020016108bc9291906132de565b6040516020818303038152906040529050919050565b6108db81611484565b6108f68382846040518060200160405280600081525061164e565b60408051828152602081018490526001600160a01b0385169133917fdbba30eb0402b389513e87f51f4db2db80bed454384ec6925a24097c3548a02a91015b60405180910390a3505050565b6001600160a01b03851633148061095e575061095e85336106b3565b6109c55760405162461bcd60e51b815260206004820152603260248201527f455243313135353a207472616e736665722063616c6c6572206973206e6f74206044820152711bdddb995c881b9bdc88185c1c1c9bdd995960721b6064820152608401610781565b6109d28585858585611739565b5050505050565b6000828152600660205260409020600101546109f481611343565b6109fe8383611902565b6040516001600160a01b038316815283907f5a06360d65acf95e98445dc834f205063424c636e65418d928cdfabc33a95399906020015b60405180910390a2505050565b6001600160a01b0381163314610ab25760405162461bcd60e51b815260206004820152602f60248201527f416363657373436f6e74726f6c3a2063616e206f6e6c792072656e6f756e636560448201526e103937b632b9903337b91039b2b63360891b6064820152608401610781565b610abc8282611988565b5050565b828114610adf5760405162461bcd60e51b81526004016107819061362f565b60005b83811015610ba657610b32610b2c868684818110610b1057634e487b7160e01b600052603260045260246000fd5b9050602002013560009081526006602052604090206001015490565b336119ef565b610b96858583818110610b5557634e487b7160e01b600052603260045260246000fd5b90506020020135848484818110610b7c57634e487b7160e01b600052603260045260246000fd5b9050602002016020810190610b919190612db0565b611988565b610b9f81613901565b9050610ae2565b508383604051610bb79291906132b4565b60405180910390207fde14d5e6084c46f384087d8cb38584d2d8520dd6248e6e9c14f7cdf2c8246abf8383604051610bf092919061349c565b60405180910390a250505050565b7f2b4969f19539c2db676e85f97d2bd9db7c07cb467eb0cd96476827285a031484610c2881611343565b610c30611a53565b6040517f7805862f689e2f13df9f062ff482ad3ad112aca9e0847911ed832e158c525b3390600090a150565b60608151835114610cc15760405162461bcd60e51b815260206004820152602960248201527f455243313135353a206163636f756e747320616e6420696473206c656e677468604482015268040dad2e6dac2e8c6d60bb1b6064820152608401610781565b600083516001600160401b03811115610cea57634e487b7160e01b600052604160045260246000fd5b604051908082528060200260200182016040528015610d13578160200160208202803683370190505b50905060005b8451811015610db557610d7a858281518110610d4557634e487b7160e01b600052603260045260246000fd5b6020026020010151858381518110610d6d57634e487b7160e01b600052603260045260246000fd5b602002602001015161071a565b828281518110610d9a57634e487b7160e01b600052603260045260246000fd5b6020908102919091010152610dae81613901565b9050610d19565b509392505050565b610dc78484611ae6565b610e358585858080602002602001604051908101604052809392919081815260200183836020028082843760009201919091525050604080516020808902828101820190935288825290935088925087918291850190849080828437600092019190915250611b3592505050565b846001600160a01b03167fc654fa60d2a625ee021b1ac30960810e81f72997250f9fe91c3c443690c47cdf85858585604051610e7494939291906134e8565b60405180910390a25050505050565b7f5a858fceef8a0916707e3b8d20381bb4869a55f766ca6b98b79a65718c1af55c610ead81611343565b610eb5611cf2565b6040517f6985a02210a168e66602d3235cb6db0e70f92b3ba4d376a33c0f3d9434bff62590600090a150565b60009182526006602090815260408084206001600160a01b0393909316845291905290205460ff1690565b610abc338383611d6d565b7fae196802966ddb0eed808e030e9905b906ad173665ebaa4ec3254544456d188e610f4181611343565b6000828152600460205260409020805460ff191660011790556040517fb8c06629fdf17815efad9716161b539d85d816e669e6975f41df31006bd834c190600090a15050565b600082815260066020526040902060010154610fa281611343565b610fac8383611988565b6040516001600160a01b038316815283907f76e6093c136cd7faa5a6d92b2b633f3b4595abd4a529b7a13917398355fea69490602001610a35565b610ff18484611e46565b61106d8585858080602002602001604051908101604052809392919081815260200183836020028082843760009201919091525050604080516020808902828101820190935288825290935088925087918291850190849080828437600092018290525060408051602081019091529081529250611e90915050565b846001600160a01b0316336001600160a01b03167fce8f0106078f9672a627da4c89d5493b0f7c05f59bcd228439a9698c00b1b5a7868686866040516110b694939291906134e8565b60405180910390a35050505050565b7fae196802966ddb0eed808e030e9905b906ad173665ebaa4ec3254544456d188e6110ef81611343565b600082815260046020526040808220805460ff19169055517ff4d100eb5d3cef841f19482569859f9fd8276efe52b2f27bb9ff6737311e3b639190a15050565b6001600160a01b03851633148061114b575061114b85336106b3565b6111675760405162461bcd60e51b8152600401610781906135e6565b6109d28585858585612007565b8281146111935760405162461bcd60e51b81526004016107819061362f565b60005b83811015611238576111c4610b2c868684818110610b1057634e487b7160e01b600052603260045260246000fd5b6112288585838181106111e757634e487b7160e01b600052603260045260246000fd5b9050602002013584848481811061120e57634e487b7160e01b600052603260045260246000fd5b90506020020160208101906112239190612db0565b611902565b61123181613901565b9050611196565b5083836040516112499291906132b4565b60405180910390207f75769898739b7fdc3a176bbde571a58229366802081bf5a21a9736473a17d95e8383604051610bf092919061349c565b6001600160a01b03831633148061129e575061129e83336106b3565b6112ba5760405162461bcd60e51b8152600401610781906135e6565b6112c381612143565b6112ce8382846122f5565b60408051828152602081018490526001600160a01b038516917f49995e5dd6158cf69ad3e9777c46755a1a826a446c6416992167462dad033b2a9101610a35565b6001600160a01b03163b151590565b60006001600160e01b03198216637965db0b60e01b14806107bd57506107bd82612411565b61134d81336119ef565b50565b8051610abc906005906020840190612bc2565b6060816113875750506040805180820190915260018152600360fc1b602082015290565b8160005b81156113b1578061139b81613901565b91506113aa9050600a8361380d565b915061138b565b6000816001600160401b038111156113d957634e487b7160e01b600052604160045260246000fd5b6040519080825280601f01601f191660200182016040528015611403576020820181803683370190505b5090505b841561147c57611418600183613840565b9150611425600a8661391c565b6114309060306137f5565b60f81b81838151811061145357634e487b7160e01b600052603260045260246000fd5b60200101906001600160f81b031916908160001a905350611475600a8661380d565b9450611407565b949350505050565b6040516f1352539517d493d31157d193d497d25160821b6020820152603081018290526114cb906050015b6040516020818303038152906040528051906020012033610ee1565b156114d35750565b60c781111580156114e5575060648110155b801561151657506115167f570fae637af42631540d61792ad6c3a38622f6396680bd058c94992df958932e33610ee1565b1561151e5750565b61270f811115801561153257506103e88110155b801561156357506115637f8a971267dda73f2bbe888f9ed240c21afb5a5980f7b1e92aeafaad3880dac52f33610ee1565b1561156b5750565b614e1f811115801561157f57506127108110155b80156115b057506115b07fd241016ee141eea33ebd00967f7f7843377cf319f71a1070675110119fb86c0133610ee1565b156115b85750565b6201869f81111580156115cd5750614e208110155b80156115fe57506115fe7f77fe00f5aaa81d64d9f55d8616be0398bce160f21a075e1635f854dc0c69a57233610ee1565b156116065750565b60405162461bcd60e51b815260206004820181905260248201527f416363657373436f6e74726f6c3a206d697373696e67206d696e7420726f6c656044820152606401610781565b6001600160a01b0384166116745760405162461bcd60e51b815260040161078190613791565b33600061168085612461565b9050600061168d85612461565b905061169e836000898585896124ba565b60008681526002602090815260408083206001600160a01b038b168452909152812080548792906116d09084906137f5565b909155505060408051878152602081018790526001600160a01b03808a1692600092918716917fc3d58168c5ae7397731d063d5bbf3d657854427343f4c083240f7aacaa2d0f62910160405180910390a4611730836000898989896127a5565b50505050505050565b815183511461175a5760405162461bcd60e51b815260040161078190613749565b6001600160a01b0384166117805760405162461bcd60e51b815260040161078190613677565b3361178f8187878787876124ba565b60005b84518110156118945760008582815181106117bd57634e487b7160e01b600052603260045260246000fd5b6020026020010151905060008583815181106117e957634e487b7160e01b600052603260045260246000fd5b60209081029190910181015160008481526002835260408082206001600160a01b038e16835290935291909120549091508181101561183a5760405162461bcd60e51b8152600401610781906136ff565b60008381526002602090815260408083206001600160a01b038e8116855292528083208585039055908b168252812080548492906118799084906137f5565b925050819055505050508061188d90613901565b9050611792565b50846001600160a01b0316866001600160a01b0316826001600160a01b03167f4a39dc06d4c0dbc64b70af90fd698a233a518aa5d07e595d983b8c0526c8f7fb87876040516118e4929190613522565b60405180910390a46118fa818787878787612910565b505050505050565b61190c8282610ee1565b610abc5760008281526006602090815260408083206001600160a01b03851684529091529020805460ff191660011790556119443390565b6001600160a01b0316816001600160a01b0316837f2f8788117e7eff1d82e926ec794901d17c78024a50270940304540a733656f0d60405160405180910390a45050565b6119928282610ee1565b15610abc5760008281526006602090815260408083206001600160a01b0385168085529252808320805460ff1916905551339285917ff6391f5c32d9c69d2a47ea670b442974b53935d1edc7fd64eb21e047a839171b9190a45050565b6119f98282610ee1565b610abc57611a11816001600160a01b031660146129da565b611a1c8360206129da565b604051602001611a2d929190613384565b60408051601f198184030181529082905262461bcd60e51b825261078191600401613547565b60005460ff16611a9c5760405162461bcd60e51b815260206004820152601460248201527314185d5cd8589b194e881b9bdd081c185d5cd95960621b6044820152606401610781565b6000805460ff191690557f5db9ee0a495bf2e6ff9c91a7834c1ba4fdd244a5e8aa4e537bd38aeae4b073aa335b6040516001600160a01b03909116815260200160405180910390a1565b60005b81811015611b3057611b20838383818110611b1457634e487b7160e01b600052603260045260246000fd5b90506020020135612143565b611b2981613901565b9050611ae9565b505050565b6001600160a01b038316611b5b5760405162461bcd60e51b8152600401610781906136bc565b8051825114611b7c5760405162461bcd60e51b815260040161078190613749565b6000339050611b9f818560008686604051806020016040528060008152506124ba565b60005b8351811015611c83576000848281518110611bcd57634e487b7160e01b600052603260045260246000fd5b602002602001015190506000848381518110611bf957634e487b7160e01b600052603260045260246000fd5b60209081029190910181015160008481526002835260408082206001600160a01b038c168352909352919091205490915081811015611c4a5760405162461bcd60e51b8152600401610781906135a2565b60009283526002602090815260408085206001600160a01b038b1686529091529092209103905580611c7b81613901565b915050611ba2565b5060006001600160a01b0316846001600160a01b0316826001600160a01b03167f4a39dc06d4c0dbc64b70af90fd698a233a518aa5d07e595d983b8c0526c8f7fb8686604051611cd4929190613522565b60405180910390a46040805160208101909152600090525b50505050565b60005460ff1615611d385760405162461bcd60e51b815260206004820152601060248201526f14185d5cd8589b194e881c185d5cd95960821b6044820152606401610781565b6000805460ff191660011790557f62e78cea01bee320cd4e420270b5ea74000d11b0c9f74754ebdbfc544b05a258611ac93390565b816001600160a01b0316836001600160a01b03161415611de15760405162461bcd60e51b815260206004820152602960248201527f455243313135353a2073657474696e6720617070726f76616c20737461747573604482015268103337b91039b2b63360b91b6064820152608401610781565b6001600160a01b03838116600081815260036020908152604080832094871680845294825291829020805460ff191686151590811790915591519182527f17307eab39ab6107e8899845ad3d59bd9653f200f220920489ca2b5937696c319101610935565b60005b81811015611b3057611e80838383818110611e7457634e487b7160e01b600052603260045260246000fd5b90506020020135611484565b611e8981613901565b9050611e49565b6001600160a01b038416611eb65760405162461bcd60e51b815260040161078190613791565b8151835114611ed75760405162461bcd60e51b815260040161078190613749565b33611ee7816000878787876124ba565b60005b8451811015611f9f57838181518110611f1357634e487b7160e01b600052603260045260246000fd5b602002602001015160026000878481518110611f3f57634e487b7160e01b600052603260045260246000fd5b602002602001015181526020019081526020016000206000886001600160a01b03166001600160a01b031681526020019081526020016000206000828254611f8791906137f5565b90915550819050611f9781613901565b915050611eea565b50846001600160a01b031660006001600160a01b0316826001600160a01b03167f4a39dc06d4c0dbc64b70af90fd698a233a518aa5d07e595d983b8c0526c8f7fb8787604051611ff0929190613522565b60405180910390a46109d281600087878787612910565b6001600160a01b03841661202d5760405162461bcd60e51b815260040161078190613677565b33600061203985612461565b9050600061204685612461565b90506120568389898585896124ba565b60008681526002602090815260408083206001600160a01b038c168452909152902054858110156120995760405162461bcd60e51b8152600401610781906136ff565b60008781526002602090815260408083206001600160a01b038d8116855292528083208985039055908a168252812080548892906120d89084906137f5565b909155505060408051888152602081018890526001600160a01b03808b16928c821692918816917fc3d58168c5ae7397731d063d5bbf3d657854427343f4c083240f7aacaa2d0f62910160405180910390a4612138848a8a8a8a8a6127a5565b505050505050505050565b6040516f1095549397d493d31157d193d497d25160821b602082015260308101829052612172906050016114af565b1561217a5750565b60c7811115801561218c575060648110155b80156121bd57506121bd7fcc0ccd8bd17a2b44b8083daff945bb3afbdb74c75c0d0ade0c1d73872f3da2b733610ee1565b156121c55750565b61270f81111580156121d957506103e88110155b801561220a575061220a7fc9753cc6a12b1d2aa87c7b66743185706ef6ec8328f4ea4f1bb99f0cac77045733610ee1565b156122125750565b614e1f811115801561222657506127108110155b801561225757506122577f7b4d2faaff6bdaace990e24462dcf2739c3533574e81f2cb36eeec6d9d91a63e33610ee1565b1561225f5750565b6201869f81111580156122745750614e208110155b80156122a557506122a57fd1b4dc7e91c020dd9a22a12df8a310edc9b278f858f001ba89798b0309dc366633610ee1565b156122ad5750565b60405162461bcd60e51b815260206004820181905260248201527f416363657373436f6e74726f6c3a206d697373696e67206275726e20726f6c656044820152606401610781565b6001600160a01b03831661231b5760405162461bcd60e51b8152600401610781906136bc565b33600061232784612461565b9050600061233484612461565b9050612354838760008585604051806020016040528060008152506124ba565b60008581526002602090815260408083206001600160a01b038a168452909152902054848110156123975760405162461bcd60e51b8152600401610781906135a2565b60008681526002602090815260408083206001600160a01b038b81168086529184528285208a8703905582518b81529384018a90529092908816917fc3d58168c5ae7397731d063d5bbf3d657854427343f4c083240f7aacaa2d0f62910160405180910390a4604080516020810190915260009052611730565b60006001600160e01b03198216636cdb3d1360e11b148061244257506001600160e01b031982166303a24d0760e21b145b806107bd57506301ffc9a760e01b6001600160e01b03198316146107bd565b604080516001808252818301909252606091600091906020808301908036833701905050905082816000815181106124a957634e487b7160e01b600052603260045260246000fd5b602090810291909101015292915050565b60005460ff16156125225760405162461bcd60e51b815260206004820152602c60248201527f455243313135355061757361626c653a20746f6b656e207472616e736665722060448201526b1dda1a5b19481c185d5cd95960a21b6064820152608401610781565b6001600160a01b0385161580159061254257506001600160a01b03841615155b156125f45760005b83518110156125f2576004600085838151811061257757634e487b7160e01b600052603260045260246000fd5b60209081029190910181015182528101919091526040016000205460ff16156125e25760405162461bcd60e51b815260206004820152601f60248201527f455243313135353a20746f6b656e206e6f74207472616e7366657261626c65006044820152606401610781565b6125eb81613901565b905061254a565b505b6001600160a01b0385166126975760005b83518110156126955782818151811061262e57634e487b7160e01b600052603260045260246000fd5b60200260200101516001600086848151811061265a57634e487b7160e01b600052603260045260246000fd5b60200260200101518152602001908152602001600020600082825461267f91906137f5565b9091555061268e905081613901565b9050612605565b505b6001600160a01b0384166118fa5760005b83518110156117305760008482815181106126d357634e487b7160e01b600052603260045260246000fd5b6020026020010151905060008483815181106126ff57634e487b7160e01b600052603260045260246000fd5b60200260200101519050600060016000848152602001908152602001600020549050818110156127825760405162461bcd60e51b815260206004820152602860248201527f455243313135353a206275726e20616d6f756e74206578636565647320746f74604482015267616c537570706c7960c01b6064820152608401610781565b6000928352600160205260409092209103905561279e81613901565b90506126a8565b6001600160a01b0384163b156118fa5760405163f23a6e6160e01b81526001600160a01b0385169063f23a6e61906127e99089908990889088908890600401613457565b602060405180830381600087803b15801561280357600080fd5b505af1925050508015612833575060408051601f3d908101601f191682019092526128309181019061319d565b60015b6128e05761283f613972565b806308c379a01415612879575061285461398a565b8061285f575061287b565b8060405162461bcd60e51b81526004016107819190613547565b505b60405162461bcd60e51b815260206004820152603460248201527f455243313135353a207472616e7366657220746f206e6f6e20455243313135356044820152732932b1b2b4bb32b91034b6b83632b6b2b73a32b960611b6064820152608401610781565b6001600160e01b0319811663f23a6e6160e01b146117305760405162461bcd60e51b81526004016107819061355a565b6001600160a01b0384163b156118fa5760405163bc197c8160e01b81526001600160a01b0385169063bc197c819061295490899089908890889088906004016133f9565b602060405180830381600087803b15801561296e57600080fd5b505af192505050801561299e575060408051601f3d908101601f1916820190925261299b9181019061319d565b60015b6129aa5761283f613972565b6001600160e01b0319811663bc197c8160e01b146117305760405162461bcd60e51b81526004016107819061355a565b606060006129e9836002613821565b6129f49060026137f5565b6001600160401b03811115612a1957634e487b7160e01b600052604160045260246000fd5b6040519080825280601f01601f191660200182016040528015612a43576020820181803683370190505b509050600360fc1b81600081518110612a6c57634e487b7160e01b600052603260045260246000fd5b60200101906001600160f81b031916908160001a905350600f60fb1b81600181518110612aa957634e487b7160e01b600052603260045260246000fd5b60200101906001600160f81b031916908160001a9053506000612acd846002613821565b612ad89060016137f5565b90505b6001811115612b6c576f181899199a1a9b1b9c1cb0b131b232b360811b85600f1660108110612b1a57634e487b7160e01b600052603260045260246000fd5b1a60f81b828281518110612b3e57634e487b7160e01b600052603260045260246000fd5b60200101906001600160f81b031916908160001a90535060049490941c93612b6581613883565b9050612adb565b508315612bbb5760405162461bcd60e51b815260206004820181905260248201527f537472696e67733a20686578206c656e67746820696e73756666696369656e746044820152606401610781565b9392505050565b828054612bce9061389a565b90600052602060002090601f016020900481019282612bf05760008555612c36565b82601f10612c0957805160ff1916838001178555612c36565b82800160010185558215612c36579182015b82811115612c36578251825591602001919060010190612c1b565b50612c42929150612c46565b5090565b5b80821115612c425760008155600101612c47565b60006001600160401b03831115612c7457612c7461395c565b604051612c8b601f8501601f1916602001826138d5565b809150838152848484011115612ca057600080fd5b83836020830137600060208583010152509392505050565b80356001600160a01b0381168114612ccf57600080fd5b919050565b60008083601f840112612ce5578182fd5b5081356001600160401b03811115612cfb578182fd5b6020830191508360208260051b8501011115612d1657600080fd5b9250929050565b600082601f830112612d2d578081fd5b81356020612d3a826137d2565b604051612d4782826138d5565b8381528281019150858301600585901b87018401881015612d66578586fd5b855b85811015612d8457813584529284019290840190600101612d68565b5090979650505050505050565b600082601f830112612da1578081fd5b612bbb83833560208501612c5b565b600060208284031215612dc1578081fd5b612bbb82612cb8565b60008060408385031215612ddc578081fd5b612de583612cb8565b9150612df360208401612cb8565b90509250929050565b600080600080600060a08688031215612e13578081fd5b612e1c86612cb8565b9450612e2a60208701612cb8565b935060408601356001600160401b0380821115612e45578283fd5b612e5189838a01612d1d565b94506060880135915080821115612e66578283fd5b612e7289838a01612d1d565b93506080880135915080821115612e87578283fd5b50612e9488828901612d91565b9150509295509295909350565b600080600080600060a08688031215612eb8578081fd5b612ec186612cb8565b9450612ecf60208701612cb8565b9350604086013592506060860135915060808601356001600160401b03811115612ef7578182fd5b612e9488828901612d91565b600080600080600060608688031215612f1a578081fd5b612f2386612cb8565b945060208601356001600160401b0380821115612f3e578283fd5b612f4a89838a01612cd4565b90965094506040880135915080821115612f62578283fd5b50612f6f88828901612cd4565b969995985093965092949392505050565b60008060408385031215612f92578182fd5b612f9b83612cb8565b915060208301358015158114612faf578182fd5b809150509250929050565b60008060408385031215612fcc578182fd5b612fd583612cb8565b946020939093013593505050565b600080600060608486031215612ff7578081fd5b61300084612cb8565b95602085013595506040909401359392505050565b60008060408385031215613027578182fd5b82356001600160401b038082111561303d578384fd5b818501915085601f830112613050578384fd5b8135602061305d826137d2565b60405161306a82826138d5565b8381528281019150858301600585901b870184018b1015613089578889fd5b8896505b848710156130b25761309e81612cb8565b83526001969096019591830191830161308d565b50965050860135925050808211156130c8578283fd5b506130d585828601612d1d565b9150509250929050565b600080600080604085870312156130f4578182fd5b84356001600160401b038082111561310a578384fd5b61311688838901612cd4565b9096509450602087013591508082111561312e578384fd5b5061313b87828801612cd4565b95989497509550505050565b600060208284031215613158578081fd5b5035919050565b60008060408385031215613171578182fd5b82359150612df360208401612cb8565b600060208284031215613192578081fd5b8135612bbb81613a13565b6000602082840312156131ae578081fd5b8151612bbb81613a13565b6000602082840312156131ca578081fd5b81356001600160401b038111156131df578182fd5b8201601f810184136131ef578182fd5b61147c84823560208401612c5b565b81835260006001600160fb1b03831115613216578081fd5b8260051b80836020870137939093016020019283525090919050565b6000815180845260208085019450808401835b8381101561326157815187529582019590820190600101613245565b509495945050505050565b60008151808452613284816020860160208601613857565b601f01601f19169290920160200192915050565b600081516132aa818560208601613857565b9290920192915050565b60006001600160fb1b038311156132c9578081fd5b8260051b808584379190910190815292915050565b600080845482600182811c9150808316806132fa57607f831692505b602080841082141561331a57634e487b7160e01b87526022600452602487fd5b81801561332e576001811461333f5761336b565b60ff1986168952848901965061336b565b60008b815260209020885b868110156133635781548b82015290850190830161334a565b505084890196505b50505050505061337b8185613298565b95945050505050565b7f416363657373436f6e74726f6c3a206163636f756e74200000000000000000008152600083516133bc816017850160208801613857565b7001034b99036b4b9b9b4b733903937b6329607d1b60179184019182015283516133ed816028840160208801613857565b01602801949350505050565b6001600160a01b0386811682528516602082015260a06040820181905260009061342590830186613232565b82810360608401526134378186613232565b9050828103608084015261344b818561326c565b98975050505050505050565b6001600160a01b03868116825285166020820152604081018490526060810183905260a0608082018190526000906134919083018461326c565b979650505050505050565b60208082528181018390526000908460408401835b868110156134dd576001600160a01b036134ca84612cb8565b16825291830191908301906001016134b1565b509695505050505050565b6040815260006134fc6040830186886131fe565b82810360208401526134918185876131fe565b602081526000612bbb6020830184613232565b6040815260006135356040830185613232565b828103602084015261337b8185613232565b602081526000612bbb602083018461326c565b60208082526028908201527f455243313135353a204552433131353552656365697665722072656a656374656040820152676420746f6b656e7360c01b606082015260800190565b60208082526024908201527f455243313135353a206275726e20616d6f756e7420657863656564732062616c604082015263616e636560e01b606082015260800190565b60208082526029908201527f455243313135353a2063616c6c6572206973206e6f74206f776e6572206e6f7260408201526808185c1c1c9bdd995960ba1b606082015260800190565b60208082526028908201527f416363657373436f6e74726f6c3a206172726179206f6620646966666572656e6040820152670e840d8cadccee8d60c31b606082015260800190565b60208082526025908201527f455243313135353a207472616e7366657220746f20746865207a65726f206164604082015264647265737360d81b606082015260800190565b60208082526023908201527f455243313135353a206275726e2066726f6d20746865207a65726f206164647260408201526265737360e81b606082015260800190565b6020808252602a908201527f455243313135353a20696e73756666696369656e742062616c616e636520666f60408201526939103a3930b739b332b960b11b606082015260800190565b60208082526028908201527f455243313135353a2069647320616e6420616d6f756e7473206c656e677468206040820152670dad2e6dac2e8c6d60c31b606082015260800190565b60208082526021908201527f455243313135353a206d696e7420746f20746865207a65726f206164647265736040820152607360f81b606082015260800190565b60006001600160401b038211156137eb576137eb61395c565b5060051b60200190565b6000821982111561380857613808613930565b500190565b60008261381c5761381c613946565b500490565b600081600019048311821515161561383b5761383b613930565b500290565b60008282101561385257613852613930565b500390565b60005b8381101561387257818101518382015260200161385a565b83811115611cec5750506000910152565b60008161389257613892613930565b506000190190565b600181811c908216806138ae57607f821691505b602082108114156138cf57634e487b7160e01b600052602260045260246000fd5b50919050565b601f8201601f191681016001600160401b03811182821017156138fa576138fa61395c565b6040525050565b600060001982141561391557613915613930565b5060010190565b60008261392b5761392b613946565b500690565b634e487b7160e01b600052601160045260246000fd5b634e487b7160e01b600052601260045260246000fd5b634e487b7160e01b600052604160045260246000fd5b600060033d111561398757600481823e5160e01c5b90565b600060443d10156139985790565b6040516003193d81016004833e81513d6001600160401b0381602484011181841117156139c757505050505090565b82850191508151818111156139df5750505050505090565b843d87010160208285010111156139f95750505050505090565b613a08602082860101876138d5565b509095945050505050565b6001600160e01b03198116811461134d57600080fdfea2646970667358221220ae03192ee54f951092b40a43651bc076f973548e830865eff87f672becf6ff9d64736f6c63430008040033",
  "linkReferences": {},
  "deployedLinkReferences": {}
}