{
  "contractName": "ChainId2",
  "abi": [
    {
      "inputs": [],
      "stateMutability": "nonpayable",
      "type": "constructor"
    },
    {
      "inputs": [],
      "name": "CHAIN_ID",
      "outputs": [
        {
          "internalType": "uint256",
          "name": "",
          "type": "uint256"
        }
      ],
      "stateMutability": "view",
      "type": "function"
    }
  ],
  "bytecode": "0x60a0604052601460005534801561001557600080fd5b50d3801561002257600080fd5b50d2801561002f57600080fd5b504660805260805160b361004c60003960006049015260b36000f3fe6080604052348015600f57600080fd5b50d38015601b57600080fd5b50d28015602757600080fd5b506004361060405760003560e01c806385e1f4d0146045575b600080fd5b606b7f000000000000000000000000000000000000000000000000000000000000000081565b60405190815260200160405180910390f3fea26474726f6e58221220918d3eba1a699907c709016763a1c242176115963ee23755799f4905f2c37da164736f6c63430008060033",
  "source": "// SPDX-License-Identifier: unlicense\r\npragma solidity ^0.8.0;\r\n\r\n/**\r\n * @title Chain Id Contract\r\n * @author @Gr3it\r\n * @notice Get Chain Id (for tron)\r\n */\r\n\r\ncontract ChainId {\r\n    uint256 public immutable CHAIN_ID;\r\n\r\n    constructor() {\r\n        CHAIN_ID = block.chainid;\r\n    }\r\n}\r\n\r\ncontract ChainId2 is ChainId {\r\n    uint256 temp = 20;\r\n\r\n    constructor() ChainId() {}\r\n}\r\n",
  "sourcePath": "C:/Users/emanu/space-pirates-tronbox/contracts/utils/ChainId copy.sol",
  "compiler": {
    "name": "solc",
    "version": "0.8.6+commit.0e36fba0.mod.Emscripten.clang"
  },
  "schemaVersion": "2.0.1",
  "updatedAt": "2022-07-16T14:55:56.056Z"
}