{
  "contractName": "ChainId",
  "abi": [
    {
      "inputs": [],
      "stateMutability": "nonpayable",
      "type": "constructor"
    },
    {
      "inputs": [],
      "name": "CHAIN_ID",
      "outputs": [
        {
          "internalType": "uint256",
          "name": "",
          "type": "uint256"
        }
      ],
      "stateMutability": "view",
      "type": "function"
    }
  ],
  "bytecode": "0x60a060405234801561001057600080fd5b50d3801561001d57600080fd5b50d2801561002a57600080fd5b504660805260805160b361004760003960006049015260b36000f3fe6080604052348015600f57600080fd5b50d38015601b57600080fd5b50d28015602757600080fd5b506004361060405760003560e01c806385e1f4d0146045575b600080fd5b606b7f000000000000000000000000000000000000000000000000000000000000000081565b60405190815260200160405180910390f3fea26474726f6e58221220b79042bf23cc563071381ee5282e59946179fff100f0dc5859b3b69cd02dc4f064736f6c63430008060033",
  "source": "// SPDX-License-Identifier: unlicense\r\npragma solidity ^0.8.0;\r\n\r\n/**\r\n * @title Chain Id Contract\r\n * @author @Gr3it\r\n * @notice Get Chain Id (for tron)\r\n */\r\n\r\ncontract ChainId {\r\n    uint256 public immutable CHAIN_ID;\r\n\r\n    constructor() {\r\n        CHAIN_ID = block.chainid;\r\n    }\r\n}\r\n",
  "sourcePath": "C:/Users/emanu/space-pirates-tronbox/contracts/utils/ChainId.sol",
  "compiler": {
    "name": "solc",
    "version": "0.8.6+commit.0e36fba0.mod.Emscripten.clang"
  },
  "schemaVersion": "2.0.1",
  "updatedAt": "2022-07-16T14:55:56.054Z"
}