{
  "contractName": "ERC1155Custom",
  "abi": [
    {
      "inputs": [
        {
          "internalType": "string",
          "name": "uri_",
          "type": "string"
        }
      ],
      "stateMutability": "nonpayable",
      "type": "constructor"
    },
    {
      "anonymous": false,
      "inputs": [
        {
          "indexed": true,
          "internalType": "address",
          "name": "account",
          "type": "address"
        },
        {
          "indexed": true,
          "internalType": "address",
          "name": "operator",
          "type": "address"
        },
        {
          "indexed": false,
          "internalType": "bool",
          "name": "approved",
          "type": "bool"
        }
      ],
      "name": "ApprovalForAll",
      "type": "event"
    },
    {
      "anonymous": false,
      "inputs": [
        {
          "indexed": false,
          "internalType": "address",
          "name": "account",
          "type": "address"
        }
      ],
      "name": "Paused",
      "type": "event"
    },
    {
      "anonymous": false,
      "inputs": [
        {
          "indexed": true,
          "internalType": "address",
          "name": "operator",
          "type": "address"
        },
        {
          "indexed": true,
          "internalType": "address",
          "name": "from",
          "type": "address"
        },
        {
          "indexed": true,
          "internalType": "address",
          "name": "to",
          "type": "address"
        },
        {
          "indexed": false,
          "internalType": "uint256[]",
          "name": "ids",
          "type": "uint256[]"
        },
        {
          "indexed": false,
          "internalType": "uint256[]",
          "name": "values",
          "type": "uint256[]"
        }
      ],
      "name": "TransferBatch",
      "type": "event"
    },
    {
      "anonymous": false,
      "inputs": [
        {
          "indexed": true,
          "internalType": "address",
          "name": "operator",
          "type": "address"
        },
        {
          "indexed": true,
          "internalType": "address",
          "name": "from",
          "type": "address"
        },
        {
          "indexed": true,
          "internalType": "address",
          "name": "to",
          "type": "address"
        },
        {
          "indexed": false,
          "internalType": "uint256",
          "name": "id",
          "type": "uint256"
        },
        {
          "indexed": false,
          "internalType": "uint256",
          "name": "value",
          "type": "uint256"
        }
      ],
      "name": "TransferSingle",
      "type": "event"
    },
    {
      "anonymous": false,
      "inputs": [
        {
          "indexed": false,
          "internalType": "string",
          "name": "value",
          "type": "string"
        },
        {
          "indexed": true,
          "internalType": "uint256",
          "name": "id",
          "type": "uint256"
        }
      ],
      "name": "URI",
      "type": "event"
    },
    {
      "anonymous": false,
      "inputs": [
        {
          "indexed": false,
          "internalType": "address",
          "name": "account",
          "type": "address"
        }
      ],
      "name": "Unpaused",
      "type": "event"
    },
    {
      "inputs": [
        {
          "internalType": "address",
          "name": "account",
          "type": "address"
        },
        {
          "internalType": "uint256",
          "name": "id",
          "type": "uint256"
        }
      ],
      "name": "balanceOf",
      "outputs": [
        {
          "internalType": "uint256",
          "name": "",
          "type": "uint256"
        }
      ],
      "stateMutability": "view",
      "type": "function"
    },
    {
      "inputs": [
        {
          "internalType": "address[]",
          "name": "accounts",
          "type": "address[]"
        },
        {
          "internalType": "uint256[]",
          "name": "ids",
          "type": "uint256[]"
        }
      ],
      "name": "balanceOfBatch",
      "outputs": [
        {
          "internalType": "uint256[]",
          "name": "",
          "type": "uint256[]"
        }
      ],
      "stateMutability": "view",
      "type": "function"
    },
    {
      "inputs": [
        {
          "internalType": "uint256",
          "name": "id",
          "type": "uint256"
        }
      ],
      "name": "canBeTransferred",
      "outputs": [
        {
          "internalType": "bool",
          "name": "",
          "type": "bool"
        }
      ],
      "stateMutability": "view",
      "type": "function"
    },
    {
      "inputs": [
        {
          "internalType": "uint256",
          "name": "id",
          "type": "uint256"
        }
      ],
      "name": "exists",
      "outputs": [
        {
          "internalType": "bool",
          "name": "",
          "type": "bool"
        }
      ],
      "stateMutability": "view",
      "type": "function"
    },
    {
      "inputs": [
        {
          "internalType": "address",
          "name": "account",
          "type": "address"
        },
        {
          "internalType": "address",
          "name": "operator",
          "type": "address"
        }
      ],
      "name": "isApprovedForAll",
      "outputs": [
        {
          "internalType": "bool",
          "name": "",
          "type": "bool"
        }
      ],
      "stateMutability": "view",
      "type": "function"
    },
    {
      "inputs": [],
      "name": "paused",
      "outputs": [
        {
          "internalType": "bool",
          "name": "",
          "type": "bool"
        }
      ],
      "stateMutability": "view",
      "type": "function"
    },
    {
      "inputs": [
        {
          "internalType": "address",
          "name": "from",
          "type": "address"
        },
        {
          "internalType": "address",
          "name": "to",
          "type": "address"
        },
        {
          "internalType": "uint256[]",
          "name": "ids",
          "type": "uint256[]"
        },
        {
          "internalType": "uint256[]",
          "name": "amounts",
          "type": "uint256[]"
        },
        {
          "internalType": "bytes",
          "name": "data",
          "type": "bytes"
        }
      ],
      "name": "safeBatchTransferFrom",
      "outputs": [],
      "stateMutability": "nonpayable",
      "type": "function"
    },
    {
      "inputs": [
        {
          "internalType": "address",
          "name": "from",
          "type": "address"
        },
        {
          "internalType": "address",
          "name": "to",
          "type": "address"
        },
        {
          "internalType": "uint256",
          "name": "id",
          "type": "uint256"
        },
        {
          "internalType": "uint256",
          "name": "amount",
          "type": "uint256"
        },
        {
          "internalType": "bytes",
          "name": "data",
          "type": "bytes"
        }
      ],
      "name": "safeTransferFrom",
      "outputs": [],
      "stateMutability": "nonpayable",
      "type": "function"
    },
    {
      "inputs": [
        {
          "internalType": "address",
          "name": "operator",
          "type": "address"
        },
        {
          "internalType": "bool",
          "name": "approved",
          "type": "bool"
        }
      ],
      "name": "setApprovalForAll",
      "outputs": [],
      "stateMutability": "nonpayable",
      "type": "function"
    },
    {
      "inputs": [
        {
          "internalType": "bytes4",
          "name": "interfaceId",
          "type": "bytes4"
        }
      ],
      "name": "supportsInterface",
      "outputs": [
        {
          "internalType": "bool",
          "name": "",
          "type": "bool"
        }
      ],
      "stateMutability": "view",
      "type": "function"
    },
    {
      "inputs": [
        {
          "internalType": "uint256",
          "name": "id",
          "type": "uint256"
        }
      ],
      "name": "totalSupply",
      "outputs": [
        {
          "internalType": "uint256",
          "name": "",
          "type": "uint256"
        }
      ],
      "stateMutability": "view",
      "type": "function"
    },
    {
      "inputs": [
        {
          "internalType": "uint256",
          "name": "id",
          "type": "uint256"
        }
      ],
      "name": "uri",
      "outputs": [
        {
          "internalType": "string",
          "name": "",
          "type": "string"
        }
      ],
      "stateMutability": "view",
      "type": "function"
    }
  ],
  "bytecode": "0x60806040523480156200001157600080fd5b50d380156200001f57600080fd5b50d280156200002d57600080fd5b5060405162001be338038062001be383398101604081905262000050916200012b565b6000805460ff1916905562000065816200006c565b506200025a565b80516200008190600590602084019062000085565b5050565b828054620000939062000207565b90600052602060002090601f016020900481019282620000b7576000855562000102565b82601f10620000d257805160ff191683800117855562000102565b8280016001018555821562000102579182015b8281111562000102578251825591602001919060010190620000e5565b506200011092915062000114565b5090565b5b8082111562000110576000815560010162000115565b600060208083850312156200013f57600080fd5b82516001600160401b03808211156200015757600080fd5b818501915085601f8301126200016c57600080fd5b81518181111562000181576200018162000244565b604051601f8201601f19908116603f01168101908382118183101715620001ac57620001ac62000244565b816040528281528886848701011115620001c557600080fd5b600093505b82841015620001e95784840186015181850187015292850192620001ca565b82841115620001fb5760008684830101525b98975050505050505050565b600181811c908216806200021c57607f821691505b602082108114156200023e57634e487b7160e01b600052602260045260246000fd5b50919050565b634e487b7160e01b600052604160045260246000fd5b611979806200026a6000396000f3fe608060405234801561001057600080fd5b50d3801561001d57600080fd5b50d2801561002a57600080fd5b50600436106100cd5760003560e01c80635c975abb1161008b5780635c975abb14610192578063a22cb4651461019d578063bd85b039146101b0578063c89999d0146101d0578063e985e9c5146101f4578063f242432a1461023057600080fd5b8062fdd58e146100d257806301ffc9a7146100f85780630e89341c1461011b5780632eb2c2d61461013b5780634e1273f4146101505780634f558e7914610170575b600080fd5b6100e56100e03660046112f5565b610243565b6040519081526020015b60405180910390f35b61010b6101063660046113f0565b6102db565b60405190151581526020016100ef565b61012e610129366004611431565b61032d565b6040516100ef919061164f565b61014e6101493660046111aa565b6103ce565b005b61016361015e36600461131f565b610465565b6040516100ef9190611617565b61010b61017e366004611431565b600090815260016020526040902054151590565b60005460ff1661010b565b61014e6101ab3660046112b9565b61058f565b6100e56101be366004611431565b60009081526001602052604090205490565b61010b6101de366004611431565b60009081526004602052604090205460ff161590565b61010b610202366004611177565b6001600160a01b03918216600090815260036020908152604080832093909416825291909152205460ff1690565b61014e61023e366004611254565b61059e565b60006001600160a01b0383166102b35760405162461bcd60e51b815260206004820152602a60248201527f455243313135353a2061646472657373207a65726f206973206e6f742061207660448201526930b634b21037bbb732b960b11b60648201526084015b60405180910390fd5b5060009081526002602090815260408083206001600160a01b03949094168352929052205490565b60006001600160e01b03198216636cdb3d1360e11b148061030c57506001600160e01b031982166303a24d0760e21b145b8061032757506301ffc9a760e01b6001600160e01b03198316145b92915050565b60008181526001602052604090205460609061039c5760405162461bcd60e51b815260206004820152602860248201527f455243313135353a2055524920717565727920666f72206e6f6e657869737465604482015267373a103a37b5b2b760c11b60648201526084016102aa565b60056103a783610625565b6040516020016103b89291906114cd565b6040516020818303038152906040529050919050565b6001600160a01b0385163314806103ea57506103ea8533610202565b6104515760405162461bcd60e51b815260206004820152603260248201527f455243313135353a207472616e736665722063616c6c6572206973206e6f74206044820152711bdddb995c881b9bdc88185c1c1c9bdd995960721b60648201526084016102aa565b61045e858585858561072b565b5050505050565b606081518351146104ca5760405162461bcd60e51b815260206004820152602960248201527f455243313135353a206163636f756e747320616e6420696473206c656e677468604482015268040dad2e6dac2e8c6d60bb1b60648201526084016102aa565b6000835167ffffffffffffffff8111156104e6576104e661186e565b60405190808252806020026020018201604052801561050f578160200160208202803683370190505b50905060005b84518110156105875761055a85828151811061053357610533611858565b602002602001015185838151811061054d5761054d611858565b6020026020010151610243565b82828151811061056c5761056c611858565b6020908102919091010152610580816117fd565b9050610515565b509392505050565b61059a338383610919565b5050565b6001600160a01b0385163314806105ba57506105ba8533610202565b6106185760405162461bcd60e51b815260206004820152602960248201527f455243313135353a2063616c6c6572206973206e6f74206f776e6572206e6f7260448201526808185c1c1c9bdd995960ba1b60648201526084016102aa565b61045e85858585856109fa565b6060816106495750506040805180820190915260018152600360fc1b602082015290565b8160005b8115610673578061065d816117fd565b915061066c9050600a83611775565b915061064d565b60008167ffffffffffffffff81111561068e5761068e61186e565b6040519080825280601f01601f1916602001820160405280156106b8576020820181803683370190505b5090505b8415610723576106cd600183611789565b91506106da600a86611818565b6106e590603061175d565b60f81b8183815181106106fa576106fa611858565b60200101906001600160f81b031916908160001a90535061071c600a86611775565b94506106bc565b949350505050565b815183511461078d5760405162461bcd60e51b815260206004820152602860248201527f455243313135353a2069647320616e6420616d6f756e7473206c656e677468206044820152670dad2e6dac2e8c6d60c31b60648201526084016102aa565b6001600160a01b0384166107b35760405162461bcd60e51b81526004016102aa906116aa565b336107c2818787878787610b36565b60005b84518110156108ab5760008582815181106107e2576107e2611858565b60200260200101519050600085838151811061080057610800611858565b60209081029190910181015160008481526002835260408082206001600160a01b038e1683529093529190912054909150818110156108515760405162461bcd60e51b81526004016102aa906116ef565b60008381526002602090815260408083206001600160a01b038e8116855292528083208585039055908b1682528120805484929061089090849061175d565b92505081905550505050806108a4906117fd565b90506107c5565b50846001600160a01b0316866001600160a01b0316826001600160a01b03167f4a39dc06d4c0dbc64b70af90fd698a233a518aa5d07e595d983b8c0526c8f7fb87876040516108fb92919061162a565b60405180910390a4610911818787878787610de4565b505050505050565b816001600160a01b0316836001600160a01b0316141561098d5760405162461bcd60e51b815260206004820152602960248201527f455243313135353a2073657474696e6720617070726f76616c20737461747573604482015268103337b91039b2b63360b91b60648201526084016102aa565b6001600160a01b03838116600081815260036020908152604080832094871680845294825291829020805460ff191686151590811790915591519182527f17307eab39ab6107e8899845ad3d59bd9653f200f220920489ca2b5937696c31910160405180910390a3505050565b6001600160a01b038416610a205760405162461bcd60e51b81526004016102aa906116aa565b336000610a2c85610f4f565b90506000610a3985610f4f565b9050610a49838989858589610b36565b60008681526002602090815260408083206001600160a01b038c16845290915290205485811015610a8c5760405162461bcd60e51b81526004016102aa906116ef565b60008781526002602090815260408083206001600160a01b038d8116855292528083208985039055908a16825281208054889290610acb90849061175d565b909155505060408051888152602081018890526001600160a01b03808b16928c821692918816917fc3d58168c5ae7397731d063d5bbf3d657854427343f4c083240f7aacaa2d0f62910160405180910390a4610b2b848a8a8a8a8a610f9a565b505050505050505050565b60005460ff1615610b9e5760405162461bcd60e51b815260206004820152602c60248201527f455243313135355061757361626c653a20746f6b656e207472616e736665722060448201526b1dda1a5b19481c185d5cd95960a21b60648201526084016102aa565b6001600160a01b03851615801590610bbe57506001600160a01b03841615155b15610c625760005b8351811015610c605760046000858381518110610be557610be5611858565b60209081029190910181015182528101919091526040016000205460ff1615610c505760405162461bcd60e51b815260206004820152601f60248201527f455243313135353a20746f6b656e206e6f74207472616e7366657261626c650060448201526064016102aa565b610c59816117fd565b9050610bc6565b505b6001600160a01b038516610ce95760005b8351811015610ce757828181518110610c8e57610c8e611858565b602002602001015160016000868481518110610cac57610cac611858565b602002602001015181526020019081526020016000206000828254610cd1919061175d565b90915550610ce09050816117fd565b9050610c73565b505b6001600160a01b0384166109115760005b8351811015610ddb576000848281518110610d1757610d17611858565b602002602001015190506000848381518110610d3557610d35611858565b6020026020010151905060006001600084815260200190815260200160002054905081811015610db85760405162461bcd60e51b815260206004820152602860248201527f455243313135353a206275726e20616d6f756e74206578636565647320746f74604482015267616c537570706c7960c01b60648201526084016102aa565b60009283526001602052604090922091039055610dd4816117fd565b9050610cfa565b50505050505050565b6001600160a01b0384163b156109115760405163bc197c8160e01b81526001600160a01b0385169063bc197c8190610e289089908990889088908890600401611574565b602060405180830381600087803b158015610e4257600080fd5b505af1925050508015610e72575060408051601f3d908101601f19168201909252610e6f91810190611414565b60015b610f1f57610e7e611884565b806308c379a01415610eb85750610e936118a0565b80610e9e5750610eba565b8060405162461bcd60e51b81526004016102aa919061164f565b505b60405162461bcd60e51b815260206004820152603460248201527f455243313135353a207472616e7366657220746f206e6f6e20455243313135356044820152732932b1b2b4bb32b91034b6b83632b6b2b73a32b960611b60648201526084016102aa565b6001600160e01b0319811663bc197c8160e01b14610ddb5760405162461bcd60e51b81526004016102aa90611662565b60408051600180825281830190925260609160009190602080830190803683370190505090508281600081518110610f8957610f89611858565b602090810291909101015292915050565b6001600160a01b0384163b156109115760405163f23a6e6160e01b81526001600160a01b0385169063f23a6e6190610fde90899089908890889088906004016115d2565b602060405180830381600087803b158015610ff857600080fd5b505af1925050508015611028575060408051601f3d908101601f1916820190925261102591810190611414565b60015b61103457610e7e611884565b6001600160e01b0319811663f23a6e6160e01b14610ddb5760405162461bcd60e51b81526004016102aa90611662565b600081356001600160a81b038116811461107d57600080fd5b6001600160a01b031692915050565b600082601f83011261109d57600080fd5b813560206110aa82611739565b6040516110b782826117d0565b8381528281019150858301600585901b870184018810156110d757600080fd5b60005b858110156110f6578135845292840192908401906001016110da565b5090979650505050505050565b600082601f83011261111457600080fd5b813567ffffffffffffffff81111561112e5761112e61186e565b604051611145601f8301601f1916602001826117d0565b81815284602083860101111561115a57600080fd5b816020850160208301376000918101602001919091529392505050565b6000806040838503121561118a57600080fd5b61119383611064565b91506111a160208401611064565b90509250929050565b600080600080600060a086880312156111c257600080fd5b6111cb86611064565b94506111d960208701611064565b9350604086013567ffffffffffffffff808211156111f657600080fd5b61120289838a0161108c565b9450606088013591508082111561121857600080fd5b61122489838a0161108c565b9350608088013591508082111561123a57600080fd5b5061124788828901611103565b9150509295509295909350565b600080600080600060a0868803121561126c57600080fd5b61127586611064565b945061128360208701611064565b93506040860135925060608601359150608086013567ffffffffffffffff8111156112ad57600080fd5b61124788828901611103565b600080604083850312156112cc57600080fd5b6112d583611064565b9150602083013580151581146112ea57600080fd5b809150509250929050565b6000806040838503121561130857600080fd5b61131183611064565b946020939093013593505050565b6000806040838503121561133257600080fd5b823567ffffffffffffffff8082111561134a57600080fd5b818501915085601f83011261135e57600080fd5b8135602061136b82611739565b60405161137882826117d0565b8381528281019150858301600585901b870184018b101561139857600080fd5b600096505b848710156113c2576113ae81611064565b83526001969096019591830191830161139d565b50965050860135925050808211156113d957600080fd5b506113e68582860161108c565b9150509250929050565b60006020828403121561140257600080fd5b813561140d8161192a565b9392505050565b60006020828403121561142657600080fd5b815161140d8161192a565b60006020828403121561144357600080fd5b5035919050565b600081518084526020808501945080840160005b8381101561147a5781518752958201959082019060010161145e565b509495945050505050565b6000815180845261149d8160208601602086016117a0565b601f01601f19169290920160200192915050565b600081516114c38185602086016117a0565b9290920192915050565b600080845481600182811c9150808316806114e957607f831692505b602080841082141561150957634e487b7160e01b86526022600452602486fd5b81801561151d576001811461152e5761155b565b60ff1986168952848901965061155b565b60008b81526020902060005b868110156115535781548b82015290850190830161153a565b505084890196505b50505050505061156b81856114b1565b95945050505050565b6001600160a01b0386811682528516602082015260a0604082018190526000906115a09083018661144a565b82810360608401526115b2818661144a565b905082810360808401526115c68185611485565b98975050505050505050565b6001600160a01b03868116825285166020820152604081018490526060810183905260a06080820181905260009061160c90830184611485565b979650505050505050565b60208152600061140d602083018461144a565b60408152600061163d604083018561144a565b828103602084015261156b818561144a565b60208152600061140d6020830184611485565b60208082526028908201527f455243313135353a204552433131353552656365697665722072656a656374656040820152676420746f6b656e7360c01b606082015260800190565b60208082526025908201527f455243313135353a207472616e7366657220746f20746865207a65726f206164604082015264647265737360d81b606082015260800190565b6020808252602a908201527f455243313135353a20696e73756666696369656e742062616c616e636520666f60408201526939103a3930b739b332b960b11b606082015260800190565b600067ffffffffffffffff8211156117535761175361186e565b5060051b60200190565b600082198211156117705761177061182c565b500190565b60008261178457611784611842565b500490565b60008282101561179b5761179b61182c565b500390565b60005b838110156117bb5781810151838201526020016117a3565b838111156117ca576000848401525b50505050565b601f8201601f1916810167ffffffffffffffff811182821017156117f6576117f661186e565b6040525050565b60006000198214156118115761181161182c565b5060010190565b60008261182757611827611842565b500690565b634e487b7160e01b600052601160045260246000fd5b634e487b7160e01b600052601260045260246000fd5b634e487b7160e01b600052603260045260246000fd5b634e487b7160e01b600052604160045260246000fd5b600060033d111561189d5760046000803e5060005160e01c5b90565b600060443d10156118ae5790565b6040516003193d81016004833e81513d67ffffffffffffffff81602484011181841117156118de57505050505090565b82850191508151818111156118f65750505050505090565b843d87010160208285010111156119105750505050505090565b61191f602082860101876117d0565b509095945050505050565b6001600160e01b03198116811461194057600080fd5b5056fea26474726f6e58221220b0e9db1241777e09da88a1cad8aec198ec5b2d1f36dbc4e0aba8a0aedab60d5c64736f6c63430008060033",
  "source": "// SPDX-License-Identifier: MIT\r\n\r\npragma solidity ^0.8.0;\r\n\r\nimport \"@openzeppelin/contracts/token/ERC1155/IERC1155.sol\";\r\nimport \"@openzeppelin/contracts/token/ERC1155/IERC1155Receiver.sol\";\r\nimport \"@openzeppelin/contracts/token/ERC1155/extensions/IERC1155MetadataURI.sol\";\r\nimport \"@openzeppelin/contracts/utils/Address.sol\";\r\nimport \"@openzeppelin/contracts/utils/Context.sol\";\r\nimport \"@openzeppelin/contracts/utils/Strings.sol\";\r\nimport \"@openzeppelin/contracts/utils/introspection/ERC165.sol\";\r\nimport \"@openzeppelin/contracts/security/Pausable.sol\";\r\n\r\n/**\r\n * @title Space Pirates Faucet Contract\r\n * @author @Gr3it\r\n * @notice Custom implementation with Supply, Pausable, Burnable, Token Transfer Lock\r\n */\r\n\r\ncontract ERC1155Custom is\r\n    Context,\r\n    ERC165,\r\n    Pausable,\r\n    IERC1155,\r\n    IERC1155MetadataURI\r\n{\r\n    using Address for address;\r\n    using Strings for uint256;\r\n\r\n    mapping(uint256 => uint256) private _totalSupply;\r\n\r\n    // Mapping from token ID to account balances\r\n    mapping(uint256 => mapping(address => uint256)) private _balances;\r\n\r\n    // Mapping from account to operator approvals\r\n    mapping(address => mapping(address => bool)) private _operatorApprovals;\r\n\r\n    // Mapping from token ID to transferable\r\n    mapping(uint256 => bool) private _transferBlock;\r\n\r\n    // Used as the URI for all token types by relying on ID substitution, e.g. https://token-cdn-domain/{id}.json\r\n    string private _uri;\r\n\r\n    /**\r\n     * @dev See {_setURI}.\r\n     */\r\n    constructor(string memory uri_) {\r\n        _setURI(uri_);\r\n    }\r\n\r\n    /**\r\n     * @dev See {IERC165-supportsInterface}.\r\n     */\r\n    function supportsInterface(bytes4 interfaceId)\r\n        public\r\n        view\r\n        virtual\r\n        override(ERC165, IERC165)\r\n        returns (bool)\r\n    {\r\n        return\r\n            interfaceId == type(IERC1155).interfaceId ||\r\n            interfaceId == type(IERC1155MetadataURI).interfaceId ||\r\n            super.supportsInterface(interfaceId);\r\n    }\r\n\r\n    /**\r\n     * @dev Total amount of tokens in with a given id.\r\n     */\r\n    function totalSupply(uint256 id) public view virtual returns (uint256) {\r\n        return _totalSupply[id];\r\n    }\r\n\r\n    /**\r\n     * @dev Indicates whether any token exist with a given id, or not.\r\n     */\r\n    function exists(uint256 id) public view virtual returns (bool) {\r\n        return totalSupply(id) > 0;\r\n    }\r\n\r\n    /**\r\n     * @dev Indicates whether a token can be transfered\r\n     */\r\n    function canBeTransferred(uint256 id) public view virtual returns (bool) {\r\n        return !_transferBlock[id];\r\n    }\r\n\r\n    /**\r\n     * @dev See {IERC1155MetadataURI-uri}.\r\n     *\r\n     * This implementation returns the same URI for *all* token types. It relies\r\n     * on the token type ID substitution mechanism\r\n     * https://eips.ethereum.org/EIPS/eip-1155#metadata[defined in the EIP].\r\n     *\r\n     * Clients calling this function must replace the `\\{id\\}` substring with the\r\n     * actual token type ID.\r\n     */\r\n    function uri(uint256 id)\r\n        public\r\n        view\r\n        virtual\r\n        override\r\n        returns (string memory)\r\n    {\r\n        require(exists(id), \"ERC1155: URI query for nonexistent token\");\r\n\r\n        return string(abi.encodePacked(_uri, id.toString()));\r\n    }\r\n\r\n    /**\r\n     * @dev See {IERC1155-balanceOf}.\r\n     *\r\n     * Requirements:\r\n     *\r\n     * - `account` cannot be the zero address.\r\n     */\r\n    function balanceOf(address account, uint256 id)\r\n        public\r\n        view\r\n        virtual\r\n        override\r\n        returns (uint256)\r\n    {\r\n        require(\r\n            account != address(0),\r\n            \"ERC1155: address zero is not a valid owner\"\r\n        );\r\n        return _balances[id][account];\r\n    }\r\n\r\n    /**\r\n     * @dev See {IERC1155-balanceOfBatch}.\r\n     *\r\n     * Requirements:\r\n     *\r\n     * - `accounts` and `ids` must have the same length.\r\n     */\r\n    function balanceOfBatch(address[] memory accounts, uint256[] memory ids)\r\n        public\r\n        view\r\n        virtual\r\n        override\r\n        returns (uint256[] memory)\r\n    {\r\n        require(\r\n            accounts.length == ids.length,\r\n            \"ERC1155: accounts and ids length mismatch\"\r\n        );\r\n\r\n        uint256[] memory batchBalances = new uint256[](accounts.length);\r\n\r\n        for (uint256 i = 0; i < accounts.length; ++i) {\r\n            batchBalances[i] = balanceOf(accounts[i], ids[i]);\r\n        }\r\n\r\n        return batchBalances;\r\n    }\r\n\r\n    /**\r\n     * @dev See {IERC1155-setApprovalForAll}.\r\n     */\r\n    function setApprovalForAll(address operator, bool approved)\r\n        public\r\n        virtual\r\n        override\r\n    {\r\n        _setApprovalForAll(_msgSender(), operator, approved);\r\n    }\r\n\r\n    /**\r\n     * @dev See {IERC1155-isApprovedForAll}.\r\n     */\r\n    function isApprovedForAll(address account, address operator)\r\n        public\r\n        view\r\n        virtual\r\n        override\r\n        returns (bool)\r\n    {\r\n        return _operatorApprovals[account][operator];\r\n    }\r\n\r\n    /**\r\n     * @dev See {IERC1155-safeTransferFrom}.\r\n     */\r\n    function safeTransferFrom(\r\n        address from,\r\n        address to,\r\n        uint256 id,\r\n        uint256 amount,\r\n        bytes memory data\r\n    ) public virtual override {\r\n        require(\r\n            from == _msgSender() || isApprovedForAll(from, _msgSender()),\r\n            \"ERC1155: caller is not owner nor approved\"\r\n        );\r\n        _safeTransferFrom(from, to, id, amount, data);\r\n    }\r\n\r\n    /**\r\n     * @dev See {IERC1155-safeBatchTransferFrom}.\r\n     */\r\n    function safeBatchTransferFrom(\r\n        address from,\r\n        address to,\r\n        uint256[] memory ids,\r\n        uint256[] memory amounts,\r\n        bytes memory data\r\n    ) public virtual override {\r\n        require(\r\n            from == _msgSender() || isApprovedForAll(from, _msgSender()),\r\n            \"ERC1155: transfer caller is not owner nor approved\"\r\n        );\r\n        _safeBatchTransferFrom(from, to, ids, amounts, data);\r\n    }\r\n\r\n    /**\r\n     * @dev Transfers `amount` tokens of token type `id` from `from` to `to`.\r\n     *\r\n     * Emits a {TransferSingle} event.\r\n     *\r\n     * Requirements:\r\n     *\r\n     * - `to` cannot be the zero address.\r\n     * - `from` must have a balance of tokens of type `id` of at least `amount`.\r\n     * - If `to` refers to a smart contract, it must implement {IERC1155Receiver-onERC1155Received} and return the\r\n     * acceptance magic value.\r\n     */\r\n    function _safeTransferFrom(\r\n        address from,\r\n        address to,\r\n        uint256 id,\r\n        uint256 amount,\r\n        bytes memory data\r\n    ) internal virtual {\r\n        require(to != address(0), \"ERC1155: transfer to the zero address\");\r\n\r\n        address operator = _msgSender();\r\n        uint256[] memory ids = _asSingletonArray(id);\r\n        uint256[] memory amounts = _asSingletonArray(amount);\r\n\r\n        _beforeTokenTransfer(operator, from, to, ids, amounts, data);\r\n\r\n        uint256 fromBalance = _balances[id][from];\r\n        require(\r\n            fromBalance >= amount,\r\n            \"ERC1155: insufficient balance for transfer\"\r\n        );\r\n        unchecked {\r\n            _balances[id][from] = fromBalance - amount;\r\n        }\r\n        _balances[id][to] += amount;\r\n\r\n        emit TransferSingle(operator, from, to, id, amount);\r\n\r\n        _afterTokenTransfer(operator, from, to, ids, amounts, data);\r\n\r\n        _doSafeTransferAcceptanceCheck(operator, from, to, id, amount, data);\r\n    }\r\n\r\n    /**\r\n     * @dev xref:ROOT:erc1155.adoc#batch-operations[Batched] version of {_safeTransferFrom}.\r\n     *\r\n     * Emits a {TransferBatch} event.\r\n     *\r\n     * Requirements:\r\n     *\r\n     * - If `to` refers to a smart contract, it must implement {IERC1155Receiver-onERC1155BatchReceived} and return the\r\n     * acceptance magic value.\r\n     */\r\n    function _safeBatchTransferFrom(\r\n        address from,\r\n        address to,\r\n        uint256[] memory ids,\r\n        uint256[] memory amounts,\r\n        bytes memory data\r\n    ) internal virtual {\r\n        require(\r\n            ids.length == amounts.length,\r\n            \"ERC1155: ids and amounts length mismatch\"\r\n        );\r\n        require(to != address(0), \"ERC1155: transfer to the zero address\");\r\n\r\n        address operator = _msgSender();\r\n\r\n        _beforeTokenTransfer(operator, from, to, ids, amounts, data);\r\n\r\n        for (uint256 i = 0; i < ids.length; ++i) {\r\n            uint256 id = ids[i];\r\n            uint256 amount = amounts[i];\r\n\r\n            uint256 fromBalance = _balances[id][from];\r\n            require(\r\n                fromBalance >= amount,\r\n                \"ERC1155: insufficient balance for transfer\"\r\n            );\r\n            unchecked {\r\n                _balances[id][from] = fromBalance - amount;\r\n            }\r\n            _balances[id][to] += amount;\r\n        }\r\n\r\n        emit TransferBatch(operator, from, to, ids, amounts);\r\n\r\n        _afterTokenTransfer(operator, from, to, ids, amounts, data);\r\n\r\n        _doSafeBatchTransferAcceptanceCheck(\r\n            operator,\r\n            from,\r\n            to,\r\n            ids,\r\n            amounts,\r\n            data\r\n        );\r\n    }\r\n\r\n    /**\r\n     * @dev Sets a new URI for all token types, by relying on the token type ID\r\n     * substitution mechanism\r\n     * https://eips.ethereum.org/EIPS/eip-1155#metadata[defined in the EIP].\r\n     *\r\n     * By this mechanism, any occurrence of the `\\{id\\}` substring in either the\r\n     * URI or any of the amounts in the JSON file at said URI will be replaced by\r\n     * clients with the token type ID.\r\n     *\r\n     * For example, the `https://token-cdn-domain/\\{id\\}.json` URI would be\r\n     * interpreted by clients as\r\n     * `https://token-cdn-domain/000000000000000000000000000000000000000000000000000000000004cce0.json`\r\n     * for token type ID 0x4cce0.\r\n     *\r\n     * See {uri}.\r\n     *\r\n     * Because these URIs cannot be meaningfully represented by the {URI} event,\r\n     * this function emits no events.\r\n     */\r\n    function _setURI(string memory newuri) internal virtual {\r\n        _uri = newuri;\r\n    }\r\n\r\n    /**\r\n     * @dev Set whether a token can be transfered\r\n     */\r\n    function _setTrasferBlock(uint256 id, bool blocked) internal virtual {\r\n        _transferBlock[id] = blocked;\r\n    }\r\n\r\n    /**\r\n     * @dev Creates `amount` tokens of token type `id`, and assigns them to `to`.\r\n     *\r\n     * Emits a {TransferSingle} event.\r\n     *\r\n     * Requirements:\r\n     *\r\n     * - `to` cannot be the zero address.\r\n     * - If `to` refers to a smart contract, it must implement {IERC1155Receiver-onERC1155Received} and return the\r\n     * acceptance magic value.\r\n     */\r\n    function _mint(\r\n        address to,\r\n        uint256 id,\r\n        uint256 amount,\r\n        bytes memory data\r\n    ) internal virtual {\r\n        require(to != address(0), \"ERC1155: mint to the zero address\");\r\n\r\n        address operator = _msgSender();\r\n        uint256[] memory ids = _asSingletonArray(id);\r\n        uint256[] memory amounts = _asSingletonArray(amount);\r\n\r\n        _beforeTokenTransfer(operator, address(0), to, ids, amounts, data);\r\n\r\n        _balances[id][to] += amount;\r\n        emit TransferSingle(operator, address(0), to, id, amount);\r\n\r\n        _afterTokenTransfer(operator, address(0), to, ids, amounts, data);\r\n\r\n        _doSafeTransferAcceptanceCheck(\r\n            operator,\r\n            address(0),\r\n            to,\r\n            id,\r\n            amount,\r\n            data\r\n        );\r\n    }\r\n\r\n    /**\r\n     * @dev xref:ROOT:erc1155.adoc#batch-operations[Batched] version of {_mint}.\r\n     *\r\n     * Requirements:\r\n     *\r\n     * - `ids` and `amounts` must have the same length.\r\n     * - If `to` refers to a smart contract, it must implement {IERC1155Receiver-onERC1155BatchReceived} and return the\r\n     * acceptance magic value.\r\n     */\r\n    function _mintBatch(\r\n        address to,\r\n        uint256[] memory ids,\r\n        uint256[] memory amounts,\r\n        bytes memory data\r\n    ) internal virtual {\r\n        require(to != address(0), \"ERC1155: mint to the zero address\");\r\n        require(\r\n            ids.length == amounts.length,\r\n            \"ERC1155: ids and amounts length mismatch\"\r\n        );\r\n\r\n        address operator = _msgSender();\r\n\r\n        _beforeTokenTransfer(operator, address(0), to, ids, amounts, data);\r\n\r\n        for (uint256 i = 0; i < ids.length; i++) {\r\n            _balances[ids[i]][to] += amounts[i];\r\n        }\r\n\r\n        emit TransferBatch(operator, address(0), to, ids, amounts);\r\n\r\n        _afterTokenTransfer(operator, address(0), to, ids, amounts, data);\r\n\r\n        _doSafeBatchTransferAcceptanceCheck(\r\n            operator,\r\n            address(0),\r\n            to,\r\n            ids,\r\n            amounts,\r\n            data\r\n        );\r\n    }\r\n\r\n    /**\r\n     * @dev Destroys `amount` tokens of token type `id` from `from`\r\n     *\r\n     * Requirements:\r\n     *\r\n     * - `from` cannot be the zero address.\r\n     * - `from` must have at least `amount` tokens of token type `id`.\r\n     */\r\n    function _burn(\r\n        address from,\r\n        uint256 id,\r\n        uint256 amount\r\n    ) internal virtual {\r\n        require(from != address(0), \"ERC1155: burn from the zero address\");\r\n\r\n        address operator = _msgSender();\r\n        uint256[] memory ids = _asSingletonArray(id);\r\n        uint256[] memory amounts = _asSingletonArray(amount);\r\n\r\n        _beforeTokenTransfer(operator, from, address(0), ids, amounts, \"\");\r\n\r\n        uint256 fromBalance = _balances[id][from];\r\n        require(fromBalance >= amount, \"ERC1155: burn amount exceeds balance\");\r\n        unchecked {\r\n            _balances[id][from] = fromBalance - amount;\r\n        }\r\n\r\n        emit TransferSingle(operator, from, address(0), id, amount);\r\n\r\n        _afterTokenTransfer(operator, from, address(0), ids, amounts, \"\");\r\n    }\r\n\r\n    /**\r\n     * @dev xref:ROOT:erc1155.adoc#batch-operations[Batched] version of {_burn}.\r\n     *\r\n     * Requirements:\r\n     *\r\n     * - `ids` and `amounts` must have the same length.\r\n     */\r\n    function _burnBatch(\r\n        address from,\r\n        uint256[] memory ids,\r\n        uint256[] memory amounts\r\n    ) internal virtual {\r\n        require(from != address(0), \"ERC1155: burn from the zero address\");\r\n        require(\r\n            ids.length == amounts.length,\r\n            \"ERC1155: ids and amounts length mismatch\"\r\n        );\r\n\r\n        address operator = _msgSender();\r\n\r\n        _beforeTokenTransfer(operator, from, address(0), ids, amounts, \"\");\r\n\r\n        for (uint256 i = 0; i < ids.length; i++) {\r\n            uint256 id = ids[i];\r\n            uint256 amount = amounts[i];\r\n\r\n            uint256 fromBalance = _balances[id][from];\r\n            require(\r\n                fromBalance >= amount,\r\n                \"ERC1155: burn amount exceeds balance\"\r\n            );\r\n            unchecked {\r\n                _balances[id][from] = fromBalance - amount;\r\n            }\r\n        }\r\n\r\n        emit TransferBatch(operator, from, address(0), ids, amounts);\r\n\r\n        _afterTokenTransfer(operator, from, address(0), ids, amounts, \"\");\r\n    }\r\n\r\n    /**\r\n     * @dev Approve `operator` to operate on all of `owner` tokens\r\n     *\r\n     * Emits a {ApprovalForAll} event.\r\n     */\r\n    function _setApprovalForAll(\r\n        address owner,\r\n        address operator,\r\n        bool approved\r\n    ) internal virtual {\r\n        require(owner != operator, \"ERC1155: setting approval status for self\");\r\n        _operatorApprovals[owner][operator] = approved;\r\n        emit ApprovalForAll(owner, operator, approved);\r\n    }\r\n\r\n    /**\r\n     * @dev Hook that is called before any token transfer. This includes minting\r\n     * and burning, as well as batched variants.\r\n     *\r\n     * The same hook is called on both single and batched variants. For single\r\n     * transfers, the length of the `id` and `amount` arrays will be 1.\r\n     *\r\n     * Calling conditions (for each `id` and `amount` pair):\r\n     *\r\n     * - When `from` and `to` are both non-zero, `amount` of ``from``'s tokens\r\n     * of token type `id` will be  transferred to `to`.\r\n     * - When `from` is zero, `amount` tokens of token type `id` will be minted\r\n     * for `to`.\r\n     * - when `to` is zero, `amount` of ``from``'s tokens of token type `id`\r\n     * will be burned.\r\n     * - `from` and `to` are never both zero.\r\n     * - `ids` and `amounts` have the same, non-zero length.\r\n     *\r\n     * To learn more about hooks, head to xref:ROOT:extending-contracts.adoc#using-hooks[Using Hooks].\r\n     */\r\n    function _beforeTokenTransfer(\r\n        address operator,\r\n        address from,\r\n        address to,\r\n        uint256[] memory ids,\r\n        uint256[] memory amounts,\r\n        bytes memory data\r\n    ) internal virtual {\r\n        require(!paused(), \"ERC1155Pausable: token transfer while paused\");\r\n\r\n        if (from != address(0) && to != address(0)) {\r\n            for (uint256 i = 0; i < ids.length; ++i) {\r\n                require(\r\n                    !_transferBlock[ids[i]],\r\n                    \"ERC1155: token not transferable\"\r\n                );\r\n            }\r\n        }\r\n\r\n        if (from == address(0)) {\r\n            for (uint256 i = 0; i < ids.length; ++i) {\r\n                _totalSupply[ids[i]] += amounts[i];\r\n            }\r\n        }\r\n\r\n        if (to == address(0)) {\r\n            for (uint256 i = 0; i < ids.length; ++i) {\r\n                uint256 id = ids[i];\r\n                uint256 amount = amounts[i];\r\n                uint256 supply = _totalSupply[id];\r\n                require(\r\n                    supply >= amount,\r\n                    \"ERC1155: burn amount exceeds totalSupply\"\r\n                );\r\n                unchecked {\r\n                    _totalSupply[id] = supply - amount;\r\n                }\r\n            }\r\n        }\r\n    }\r\n\r\n    /**\r\n     * @dev Hook that is called after any token transfer. This includes minting\r\n     * and burning, as well as batched variants.\r\n     *\r\n     * The same hook is called on both single and batched variants. For single\r\n     * transfers, the length of the `id` and `amount` arrays will be 1.\r\n     *\r\n     * Calling conditions (for each `id` and `amount` pair):\r\n     *\r\n     * - When `from` and `to` are both non-zero, `amount` of ``from``'s tokens\r\n     * of token type `id` will be  transferred to `to`.\r\n     * - When `from` is zero, `amount` tokens of token type `id` will be minted\r\n     * for `to`.\r\n     * - when `to` is zero, `amount` of ``from``'s tokens of token type `id`\r\n     * will be burned.\r\n     * - `from` and `to` are never both zero.\r\n     * - `ids` and `amounts` have the same, non-zero length.\r\n     *\r\n     * To learn more about hooks, head to xref:ROOT:extending-contracts.adoc#using-hooks[Using Hooks].\r\n     */\r\n    function _afterTokenTransfer(\r\n        address operator,\r\n        address from,\r\n        address to,\r\n        uint256[] memory ids,\r\n        uint256[] memory amounts,\r\n        bytes memory data\r\n    ) internal virtual {}\r\n\r\n    function _doSafeTransferAcceptanceCheck(\r\n        address operator,\r\n        address from,\r\n        address to,\r\n        uint256 id,\r\n        uint256 amount,\r\n        bytes memory data\r\n    ) private {\r\n        if (to.addressIsContract()) {\r\n            try\r\n                IERC1155Receiver(to).onERC1155Received(\r\n                    operator,\r\n                    from,\r\n                    id,\r\n                    amount,\r\n                    data\r\n                )\r\n            returns (bytes4 response) {\r\n                if (response != IERC1155Receiver.onERC1155Received.selector) {\r\n                    revert(\"ERC1155: ERC1155Receiver rejected tokens\");\r\n                }\r\n            } catch Error(string memory reason) {\r\n                revert(reason);\r\n            } catch {\r\n                revert(\"ERC1155: transfer to non ERC1155Receiver implementer\");\r\n            }\r\n        }\r\n    }\r\n\r\n    function _doSafeBatchTransferAcceptanceCheck(\r\n        address operator,\r\n        address from,\r\n        address to,\r\n        uint256[] memory ids,\r\n        uint256[] memory amounts,\r\n        bytes memory data\r\n    ) private {\r\n        if (to.addressIsContract()) {\r\n            try\r\n                IERC1155Receiver(to).onERC1155BatchReceived(\r\n                    operator,\r\n                    from,\r\n                    ids,\r\n                    amounts,\r\n                    data\r\n                )\r\n            returns (bytes4 response) {\r\n                if (\r\n                    response != IERC1155Receiver.onERC1155BatchReceived.selector\r\n                ) {\r\n                    revert(\"ERC1155: ERC1155Receiver rejected tokens\");\r\n                }\r\n            } catch Error(string memory reason) {\r\n                revert(reason);\r\n            } catch {\r\n                revert(\"ERC1155: transfer to non ERC1155Receiver implementer\");\r\n            }\r\n        }\r\n    }\r\n\r\n    function _asSingletonArray(uint256 element)\r\n        private\r\n        pure\r\n        returns (uint256[] memory)\r\n    {\r\n        uint256[] memory array = new uint256[](1);\r\n        array[0] = element;\r\n\r\n        return array;\r\n    }\r\n}\r\n",
  "sourcePath": "C:/Users/emanu/space-pirates-tronbox/contracts/ERC1155Custom.sol",
  "compiler": {
    "name": "solc",
    "version": "0.8.6+commit.0e36fba0.mod.Emscripten.clang"
  },
  "schemaVersion": "2.0.1",
  "updatedAt": "2022-07-16T14:55:56.200Z"
}