{
  "contractName": "SpacePiratesMasterChef",
  "abi": [
    {
      "inputs": [
        {
          "internalType": "contract SpacePiratesTokens",
          "name": "_doubloons",
          "type": "address"
        },
        {
          "internalType": "address",
          "name": "_devaddr",
          "type": "address"
        },
        {
          "internalType": "address",
          "name": "_feeAddress",
          "type": "address"
        },
        {
          "internalType": "uint256",
          "name": "_doubloonsPerBlock",
          "type": "uint256"
        },
        {
          "internalType": "uint256",
          "name": "_startBlock",
          "type": "uint256"
        }
      ],
      "stateMutability": "nonpayable",
      "type": "constructor"
    },
    {
      "anonymous": false,
      "inputs": [
        {
          "indexed": true,
          "internalType": "address",
          "name": "user",
          "type": "address"
        },
        {
          "indexed": true,
          "internalType": "uint256",
          "name": "pid",
          "type": "uint256"
        },
        {
          "indexed": false,
          "internalType": "uint256",
          "name": "amount",
          "type": "uint256"
        }
      ],
      "name": "Deposit",
      "type": "event"
    },
    {
      "anonymous": false,
      "inputs": [
        {
          "indexed": true,
          "internalType": "address",
          "name": "user",
          "type": "address"
        },
        {
          "indexed": true,
          "internalType": "uint256",
          "name": "pid",
          "type": "uint256"
        },
        {
          "indexed": false,
          "internalType": "uint256",
          "name": "amount",
          "type": "uint256"
        }
      ],
      "name": "EmergencyWithdraw",
      "type": "event"
    },
    {
      "anonymous": false,
      "inputs": [
        {
          "indexed": true,
          "internalType": "address",
          "name": "previousOwner",
          "type": "address"
        },
        {
          "indexed": true,
          "internalType": "address",
          "name": "newOwner",
          "type": "address"
        }
      ],
      "name": "OwnershipTransferred",
      "type": "event"
    },
    {
      "anonymous": false,
      "inputs": [
        {
          "indexed": true,
          "internalType": "address",
          "name": "user",
          "type": "address"
        },
        {
          "indexed": true,
          "internalType": "address",
          "name": "newAddress",
          "type": "address"
        }
      ],
      "name": "SetDevAddress",
      "type": "event"
    },
    {
      "anonymous": false,
      "inputs": [
        {
          "indexed": true,
          "internalType": "address",
          "name": "user",
          "type": "address"
        },
        {
          "indexed": true,
          "internalType": "address",
          "name": "newAddress",
          "type": "address"
        }
      ],
      "name": "SetFeeAddress",
      "type": "event"
    },
    {
      "anonymous": false,
      "inputs": [
        {
          "indexed": true,
          "internalType": "address",
          "name": "user",
          "type": "address"
        },
        {
          "indexed": false,
          "internalType": "uint256",
          "name": "doubloonsPerBlock",
          "type": "uint256"
        }
      ],
      "name": "UpdateEmissionRate",
      "type": "event"
    },
    {
      "anonymous": false,
      "inputs": [
        {
          "indexed": true,
          "internalType": "address",
          "name": "user",
          "type": "address"
        },
        {
          "indexed": true,
          "internalType": "uint256",
          "name": "pid",
          "type": "uint256"
        },
        {
          "indexed": false,
          "internalType": "uint256",
          "name": "amount",
          "type": "uint256"
        }
      ],
      "name": "Withdraw",
      "type": "event"
    },
    {
      "inputs": [],
      "name": "BONUS_MULTIPLIER",
      "outputs": [
        {
          "internalType": "uint256",
          "name": "",
          "type": "uint256"
        }
      ],
      "stateMutability": "view",
      "type": "function"
    },
    {
      "inputs": [],
      "name": "DOUBLOONS_ID",
      "outputs": [
        {
          "internalType": "uint256",
          "name": "",
          "type": "uint256"
        }
      ],
      "stateMutability": "view",
      "type": "function"
    },
    {
      "inputs": [
        {
          "internalType": "uint256",
          "name": "_allocPoint",
          "type": "uint256"
        },
        {
          "internalType": "contract IERC20",
          "name": "_lpToken",
          "type": "address"
        },
        {
          "internalType": "uint16",
          "name": "_depositFeeBP",
          "type": "uint16"
        },
        {
          "internalType": "bool",
          "name": "_withUpdate",
          "type": "bool"
        }
      ],
      "name": "add",
      "outputs": [],
      "stateMutability": "nonpayable",
      "type": "function"
    },
    {
      "inputs": [
        {
          "internalType": "uint256",
          "name": "_pid",
          "type": "uint256"
        },
        {
          "internalType": "uint256",
          "name": "_amount",
          "type": "uint256"
        }
      ],
      "name": "deposit",
      "outputs": [],
      "stateMutability": "nonpayable",
      "type": "function"
    },
    {
      "inputs": [
        {
          "internalType": "address",
          "name": "_devaddr",
          "type": "address"
        }
      ],
      "name": "dev",
      "outputs": [],
      "stateMutability": "nonpayable",
      "type": "function"
    },
    {
      "inputs": [],
      "name": "devaddr",
      "outputs": [
        {
          "internalType": "address",
          "name": "",
          "type": "address"
        }
      ],
      "stateMutability": "view",
      "type": "function"
    },
    {
      "inputs": [],
      "name": "doubloons",
      "outputs": [
        {
          "internalType": "contract SpacePiratesTokens",
          "name": "",
          "type": "address"
        }
      ],
      "stateMutability": "view",
      "type": "function"
    },
    {
      "inputs": [],
      "name": "doubloonsPerBlock",
      "outputs": [
        {
          "internalType": "uint256",
          "name": "",
          "type": "uint256"
        }
      ],
      "stateMutability": "view",
      "type": "function"
    },
    {
      "inputs": [
        {
          "internalType": "uint256",
          "name": "_pid",
          "type": "uint256"
        }
      ],
      "name": "emergencyWithdraw",
      "outputs": [],
      "stateMutability": "nonpayable",
      "type": "function"
    },
    {
      "inputs": [],
      "name": "feeAddress",
      "outputs": [
        {
          "internalType": "address",
          "name": "",
          "type": "address"
        }
      ],
      "stateMutability": "view",
      "type": "function"
    },
    {
      "inputs": [
        {
          "internalType": "uint256",
          "name": "_from",
          "type": "uint256"
        },
        {
          "internalType": "uint256",
          "name": "_to",
          "type": "uint256"
        }
      ],
      "name": "getMultiplier",
      "outputs": [
        {
          "internalType": "uint256",
          "name": "",
          "type": "uint256"
        }
      ],
      "stateMutability": "pure",
      "type": "function"
    },
    {
      "inputs": [],
      "name": "massUpdatePools",
      "outputs": [],
      "stateMutability": "nonpayable",
      "type": "function"
    },
    {
      "inputs": [],
      "name": "owner",
      "outputs": [
        {
          "internalType": "address",
          "name": "",
          "type": "address"
        }
      ],
      "stateMutability": "view",
      "type": "function"
    },
    {
      "inputs": [
        {
          "internalType": "uint256",
          "name": "_pid",
          "type": "uint256"
        },
        {
          "internalType": "address",
          "name": "_user",
          "type": "address"
        }
      ],
      "name": "pendingDoubloons",
      "outputs": [
        {
          "internalType": "uint256",
          "name": "",
          "type": "uint256"
        }
      ],
      "stateMutability": "view",
      "type": "function"
    },
    {
      "inputs": [
        {
          "internalType": "contract IERC20",
          "name": "",
          "type": "address"
        }
      ],
      "name": "poolExistence",
      "outputs": [
        {
          "internalType": "bool",
          "name": "",
          "type": "bool"
        }
      ],
      "stateMutability": "view",
      "type": "function"
    },
    {
      "inputs": [
        {
          "internalType": "uint256",
          "name": "",
          "type": "uint256"
        }
      ],
      "name": "poolInfo",
      "outputs": [
        {
          "internalType": "contract IERC20",
          "name": "lpToken",
          "type": "address"
        },
        {
          "internalType": "uint256",
          "name": "allocPoint",
          "type": "uint256"
        },
        {
          "internalType": "uint256",
          "name": "lastRewardBlock",
          "type": "uint256"
        },
        {
          "internalType": "uint256",
          "name": "accDoubloonsPerShare",
          "type": "uint256"
        },
        {
          "internalType": "uint16",
          "name": "depositFeeBP",
          "type": "uint16"
        }
      ],
      "stateMutability": "view",
      "type": "function"
    },
    {
      "inputs": [],
      "name": "poolLength",
      "outputs": [
        {
          "internalType": "uint256",
          "name": "",
          "type": "uint256"
        }
      ],
      "stateMutability": "view",
      "type": "function"
    },
    {
      "inputs": [],
      "name": "renounceOwnership",
      "outputs": [],
      "stateMutability": "nonpayable",
      "type": "function"
    },
    {
      "inputs": [
        {
          "internalType": "uint256",
          "name": "_pid",
          "type": "uint256"
        },
        {
          "internalType": "uint256",
          "name": "_allocPoint",
          "type": "uint256"
        },
        {
          "internalType": "uint16",
          "name": "_depositFeeBP",
          "type": "uint16"
        },
        {
          "internalType": "bool",
          "name": "_withUpdate",
          "type": "bool"
        }
      ],
      "name": "set",
      "outputs": [],
      "stateMutability": "nonpayable",
      "type": "function"
    },
    {
      "inputs": [
        {
          "internalType": "address",
          "name": "_feeAddress",
          "type": "address"
        }
      ],
      "name": "setFeeAddress",
      "outputs": [],
      "stateMutability": "nonpayable",
      "type": "function"
    },
    {
      "inputs": [],
      "name": "startBlock",
      "outputs": [
        {
          "internalType": "uint256",
          "name": "",
          "type": "uint256"
        }
      ],
      "stateMutability": "view",
      "type": "function"
    },
    {
      "inputs": [],
      "name": "totalAllocPoint",
      "outputs": [
        {
          "internalType": "uint256",
          "name": "",
          "type": "uint256"
        }
      ],
      "stateMutability": "view",
      "type": "function"
    },
    {
      "inputs": [
        {
          "internalType": "address",
          "name": "newOwner",
          "type": "address"
        }
      ],
      "name": "transferOwnership",
      "outputs": [],
      "stateMutability": "nonpayable",
      "type": "function"
    },
    {
      "inputs": [
        {
          "internalType": "uint256",
          "name": "_doubloonsPerBlock",
          "type": "uint256"
        }
      ],
      "name": "updateEmissionRate",
      "outputs": [],
      "stateMutability": "nonpayable",
      "type": "function"
    },
    {
      "inputs": [
        {
          "internalType": "uint256",
          "name": "_pid",
          "type": "uint256"
        }
      ],
      "name": "updatePool",
      "outputs": [],
      "stateMutability": "nonpayable",
      "type": "function"
    },
    {
      "inputs": [
        {
          "internalType": "uint256",
          "name": "",
          "type": "uint256"
        },
        {
          "internalType": "address",
          "name": "",
          "type": "address"
        }
      ],
      "name": "userInfo",
      "outputs": [
        {
          "internalType": "uint256",
          "name": "amount",
          "type": "uint256"
        },
        {
          "internalType": "uint256",
          "name": "rewardDebt",
          "type": "uint256"
        }
      ],
      "stateMutability": "view",
      "type": "function"
    },
    {
      "inputs": [
        {
          "internalType": "uint256",
          "name": "_pid",
          "type": "uint256"
        },
        {
          "internalType": "uint256",
          "name": "_amount",
          "type": "uint256"
        }
      ],
      "name": "withdraw",
      "outputs": [],
      "stateMutability": "nonpayable",
      "type": "function"
    }
  ],
  "bytecode": "0x608060405260006008553480156200001657600080fd5b50d380156200002457600080fd5b50d280156200003257600080fd5b5060405162001c0238038062001c02833981016040819052620000559162000101565b6200006033620000b1565b60018055600280546001600160a01b03199081166001600160a01b0397881617909155600380548216958716959095179094556005805490941692909416919091179091556004556009556200018d565b600080546001600160a01b038381166001600160a01b0319831681178455604051919092169283917f8be0079c531659141344cd1fd0a4f28419497f9722a3daafe3b4186f6b6457e09190a35050565b600080600080600060a086880312156200011a57600080fd5b8551620001278162000174565b60208701516001600160a01b03918216965090620001458262000174565b604088015191811695506200015a8262000174565b606088015160809098015196999598501695949392505050565b6001600160a81b03811681146200018a57600080fd5b50565b611a65806200019d6000396000f3fe608060405234801561001057600080fd5b50d3801561001d57600080fd5b50d2801561002a57600080fd5b50600436106101c35760003560e01c8063715018a61161011357806393f1a40b116100b1578063d96384221161008b578063d9638422146103d1578063e2bbb158146103e4578063e701588e146103f7578063f2fde38b1461040a57600080fd5b806393f1a40b14610344578063cbd258b51461038b578063d49e77cd146103be57600080fd5b80638aa28550116100ed5780638aa28550146102a95780638d88a90e1461030d5780638da5cb5b146103205780638dbb1e3a1461033157600080fd5b8063715018a6146102df57806384e82a33146102e75780638705fcd4146102fa57600080fd5b8063412753581161018057806349ea15b71161015a57806349ea15b7146102a957806351eb05a6146102b15780635312ea8e146102c4578063630b5ba1146102d757600080fd5b8063412753581461027a578063441a3e701461028d57806348cd4cb1146102a057600080fd5b8063081e3eda146101c85780630ba84cd2146101df5780630bdea945146101f45780631464e0de146101fd5780631526fe271461022857806317caf6f114610271575b600080fd5b6006545b6040519081526020015b60405180910390f35b6101f26101ed366004611756565b61041d565b005b6101cc60045481565b600254610210906001600160a01b031681565b6040516001600160a01b0390911681526020016101d6565b61023b610236366004611756565b61046a565b604080516001600160a01b039096168652602086019490945292840191909152606083015261ffff16608082015260a0016101d6565b6101cc60085481565b600554610210906001600160a01b031681565b6101f261029b36600461181c565b6104b9565b6101cc60095481565b6101cc600181565b6101f26102bf366004611756565b610653565b6101f26102d2366004611756565b610898565b6101f261096a565b6101f2610995565b6101f26102f53660046117c2565b6109a9565b6101f261030836600461170c565b610bff565b6101f261031b36600461170c565b610ca5565b6000546001600160a01b0316610210565b6101cc61033f36600461181c565b610d37565b610376610352366004611788565b60076020908152600092835260408084209091529082529020805460019091015482565b604080519283526020830191909152016101d6565b6103ae61039936600461170c565b600a6020526000908152604090205460ff1681565b60405190151581526020016101d6565b600354610210906001600160a01b031681565b6101f26103df36600461183e565b610d56565b6101f26103f236600461181c565b610e81565b6101cc610405366004611788565b61103b565b6101f261041836600461170c565b6111b9565b610425611232565b61042d61096a565b600481905560405181815233907fe2492e003bbe8afa53088b406f0c1cb5d9e280370fc72a74cf116ffd343c40539060200160405180910390a250565b6006818154811061047a57600080fd5b6000918252602090912060059091020180546001820154600283015460038401546004909401546001600160a01b0390931694509092909161ffff1685565b600260015414156104e55760405162461bcd60e51b81526004016104dc906118f2565b60405180910390fd5b6002600181905550600060068381548110610502576105026119f6565b6000918252602080832086845260078252604080852033865290925292208054600590920290920192508311156105705760405162461bcd60e51b81526020600482015260126024820152711dda5d1a191c985dce881b9bdd0819dbdbd960721b60448201526064016104dc565b61057984610653565b6000816001015464e8d4a510008460030154846000015461059a9190611963565b6105a49190611941565b6105ae9190611982565b905080156105c0576105c0338261128c565b83156105eb5781546105d3908590611982565b825582546105eb906001600160a01b031633866113c1565b6003830154825464e8d4a510009161060291611963565b61060c9190611941565b6001830155604051848152859033907ff279e6a1f5e320cca91135676d9cb6e44ca8a08c0b88342bcdb1144f6511b5689060200160405180910390a3505060018055505050565b600060068281548110610668576106686119f6565b9060005260206000209060050201905080600201544311610687575050565b80546040516370a0823160e01b81523060048201526000916001600160a01b0316906370a082319060240160206040518083038186803b1580156106ca57600080fd5b505afa1580156106de573d6000803e3d6000fd5b505050506040513d601f19601f82011682018060405250810190610702919061176f565b905080158061071357506001820154155b1561072357504360029091015550565b6000610733836002015443610d37565b9050600060085484600101546004548461074d9190611963565b6107579190611963565b6107619190611941565b6002546003549192506001600160a01b039081169163156e29f69116610788600a85611941565b6040516001600160e01b031960e085901b1681526001600160a01b039092166004830152602482015260016044820152606401600060405180830381600087803b1580156107d557600080fd5b505af11580156107e9573d6000803e3d6000fd5b5050600254604051630ab714fb60e11b815230600482015260248101859052600160448201526001600160a01b03909116925063156e29f69150606401600060405180830381600087803b15801561084057600080fd5b505af1158015610854573d6000803e3d6000fd5b50505050828164e8d4a5100061086a9190611963565b6108749190611941565b84600301546108839190611929565b60038501555050436002909201919091555050565b600260015414156108bb5760405162461bcd60e51b81526004016104dc906118f2565b60026001819055506000600682815481106108d8576108d86119f6565b600091825260208083208584526007825260408085203380875293528420805485825560018201959095556005909302018054909450919291610928916001600160a01b039190911690836113c1565b604051818152849033907fbb757047c2b5f3974fe26b7c10f732e7bce710b0952a71082702781e62ae0595906020015b60405180910390a35050600180555050565b60065460005b818110156109915761098181610653565b61098a816119c5565b9050610970565b5050565b61099d611232565b6109a76000611424565b565b6109b1611232565b6001600160a01b0383166000908152600a6020526040902054839060ff1615610a1c5760405162461bcd60e51b815260206004820152601960248201527f6e6f6e4475706c6963617465643a206475706c6963617465640000000000000060448201526064016104dc565b6127108361ffff161115610a805760405162461bcd60e51b815260206004820152602560248201527f6164643a20696e76616c6964206465706f7369742066656520626173697320706044820152646f696e747360d81b60648201526084016104dc565b8115610a8e57610a8e61096a565b60006009544311610aa157600954610aa3565b435b905085600854610ab39190611929565b6008556001600160a01b039485166000818152600a602090815260408083208054600160ff199091168117909155815160a081018352948552918401998a5283019384526060830182815261ffff9788166080850190815260068054938401815590935292517ff652222313e28459528d920b65115c16c04f3efc82aaedc97be59f3f377c0d3f600590920291820180546001600160a01b031916919099161790975596517ff652222313e28459528d920b65115c16c04f3efc82aaedc97be59f3f377c0d4087015590517ff652222313e28459528d920b65115c16c04f3efc82aaedc97be59f3f377c0d41860155517ff652222313e28459528d920b65115c16c04f3efc82aaedc97be59f3f377c0d42850155505091517ff652222313e28459528d920b65115c16c04f3efc82aaedc97be59f3f377c0d43909101805461ffff191691909216179055565b6005546001600160a01b03163314610c595760405162461bcd60e51b815260206004820152601860248201527f736574466565416464726573733a20464f5242494444454e000000000000000060448201526064016104dc565b600580546001600160a01b0319166001600160a01b03831690811790915560405133907fd44190acf9d04bdb5d3a1aafff7e6dee8b40b93dfb8c5d3f0eea4b9f4539c3f790600090a350565b6003546001600160a01b03163314610ceb5760405162461bcd60e51b81526020600482015260096024820152686465763a207775743f60b81b60448201526064016104dc565b600380546001600160a01b0319166001600160a01b03831690811790915560405133907f618c54559e94f1499a808aad71ee8729f8e74e8c48e979616328ce493a1a52e790600090a350565b60006001610d458484611982565b610d4f9190611963565b9392505050565b610d5e611232565b6127108261ffff161115610dc25760405162461bcd60e51b815260206004820152602560248201527f7365743a20696e76616c6964206465706f7369742066656520626173697320706044820152646f696e747360d81b60648201526084016104dc565b8015610dd057610dd061096a565b8260068581548110610de457610de46119f6565b906000526020600020906005020160010154600854610e039190611982565b610e0d9190611929565b6008819055508260068581548110610e2757610e276119f6565b9060005260206000209060050201600101819055508160068581548110610e5057610e506119f6565b906000526020600020906005020160040160006101000a81548161ffff021916908361ffff16021790555050505050565b60026001541415610ea45760405162461bcd60e51b81526004016104dc906118f2565b6002600181905550600060068381548110610ec157610ec16119f6565b60009182526020808320868452600782526040808520338652909252922060059091029091019150610ef284610653565b805415610f42576000816001015464e8d4a5100084600301548460000154610f1a9190611963565b610f249190611941565b610f2e9190611982565b90508015610f4057610f40338261128c565b505b8215610fe1578154610f5f906001600160a01b0316333086611474565b600482015461ffff1615610fd157600482015460009061271090610f879061ffff1686611963565b610f919190611941565b6005548454919250610fb0916001600160a01b039081169116836113c1565b81548190610fbf908690611929565b610fc99190611982565b825550610fe1565b8054610fde908490611929565b81555b6003820154815464e8d4a5100091610ff891611963565b6110029190611941565b6001820155604051838152849033907f90890809c654f11d6e72a28fa60149770a0d11ec6c92319d6ceb2bb0a4ea1a1590602001610958565b60008060068481548110611051576110516119f6565b600091825260208083208784526007825260408085206001600160a01b03898116875293528085206005949094029091016003810154815492516370a0823160e01b815230600482015291965093949291909116906370a082319060240160206040518083038186803b1580156110c757600080fd5b505afa1580156110db573d6000803e3d6000fd5b505050506040513d601f19601f820116820180604052508101906110ff919061176f565b905083600201544311801561111357508015155b15611181576000611128856002015443610d37565b905060006008548660010154600454846111429190611963565b61114c9190611963565b6111569190611941565b9050826111688264e8d4a51000611963565b6111729190611941565b61117c9085611929565b935050505b6001830154835464e8d4a510009061119a908590611963565b6111a49190611941565b6111ae9190611982565b979650505050505050565b6111c1611232565b6001600160a01b0381166112265760405162461bcd60e51b815260206004820152602660248201527f4f776e61626c653a206e6577206f776e657220697320746865207a65726f206160448201526564647265737360d01b60648201526084016104dc565b61122f81611424565b50565b6000546001600160a01b031633146109a75760405162461bcd60e51b815260206004820181905260248201527f4f776e61626c653a2063616c6c6572206973206e6f7420746865206f776e657260448201526064016104dc565b600254604051627eeac760e11b8152306004820152600160248201526000916001600160a01b03169062fdd58e9060440160206040518083038186803b1580156112d557600080fd5b505afa1580156112e9573d6000803e3d6000fd5b505050506040513d601f19601f8201168201806040525081019061130d919061176f565b90508082111561138557600254604051637921219560e11b81526001600160a01b039091169063f242432a9061134e90309087906001908790600401611887565b600060405180830381600087803b15801561136857600080fd5b505af115801561137c573d6000803e3d6000fd5b50505050505050565b600254604051637921219560e11b81526001600160a01b039091169063f242432a9061134e90309087906001908890600401611887565b505050565b6040516001600160a01b0383166024820152604481018290526113bc90849063a9059cbb60e01b906064015b60408051601f198184030181529190526020810180516001600160e01b03166001600160e01b0319909316929092179091526114b2565b600080546001600160a01b038381166001600160a01b0319831681178455604051919092169283917f8be0079c531659141344cd1fd0a4f28419497f9722a3daafe3b4186f6b6457e09190a35050565b6040516001600160a01b03808516602483015283166044820152606481018290526114ac9085906323b872dd60e01b906084016113ed565b50505050565b6000611507826040518060400160405280602081526020017f5361666545524332303a206c6f772d6c6576656c2063616c6c206661696c6564815250856001600160a01b03166115849092919063ffffffff16565b8051909150156113bc57808060200190518101906115259190611739565b6113bc5760405162461bcd60e51b815260206004820152602a60248201527f5361666545524332303a204245503230206f7065726174696f6e20646964206e6044820152691bdd081cdd58d8d9595960b21b60648201526084016104dc565b6060611593848460008561159b565b949350505050565b6060824710156115fc5760405162461bcd60e51b815260206004820152602660248201527f416464726573733a20696e73756666696369656e742062616c616e636520666f6044820152651c8818d85b1b60d21b60648201526084016104dc565b6001600160a01b0385163b6116535760405162461bcd60e51b815260206004820152601d60248201527f416464726573733a2063616c6c20746f206e6f6e2d636f6e747261637400000060448201526064016104dc565b600080866001600160a01b0316858760405161166f919061186b565b60006040518083038185875af1925050503d80600081146116ac576040519150601f19603f3d011682016040523d82523d6000602084013e6116b1565b606091505b50915091506111ae828286606083156116cb575081610d4f565b8251156116db5782518084602001fd5b8160405162461bcd60e51b81526004016104dc91906118bf565b803561ffff8116811461170757600080fd5b919050565b60006020828403121561171e57600080fd5b813561172981611a0c565b6001600160a01b03169392505050565b60006020828403121561174b57600080fd5b8151610d4f81611a21565b60006020828403121561176857600080fd5b5035919050565b60006020828403121561178157600080fd5b5051919050565b6000806040838503121561179b57600080fd5b8235915060208301356117ad81611a0c565b91946001600160a01b03909216935090915050565b600080600080608085870312156117d857600080fd5b8435935060208501356117ea81611a0c565b6001600160a01b03169250611801604086016116f5565b9150606085013561181181611a21565b939692955090935050565b6000806040838503121561182f57600080fd5b50508035926020909101359150565b6000806000806080858703121561185457600080fd5b8435935060208501359250611801604086016116f5565b6000825161187d818460208701611999565b9190910192915050565b6001600160a01b0394851681529290931660208301526040820152606081019190915260a06080820181905260009082015260c00190565b60208152600082518060208401526118de816040850160208701611999565b601f01601f19169190910160400192915050565b6020808252601f908201527f5265656e7472616e637947756172643a207265656e7472616e742063616c6c00604082015260600190565b6000821982111561193c5761193c6119e0565b500190565b60008261195e57634e487b7160e01b600052601260045260246000fd5b500490565b600081600019048311821515161561197d5761197d6119e0565b500290565b600082821015611994576119946119e0565b500390565b60005b838110156119b457818101518382015260200161199c565b838111156114ac5750506000910152565b60006000198214156119d9576119d96119e0565b5060010190565b634e487b7160e01b600052601160045260246000fd5b634e487b7160e01b600052603260045260246000fd5b6001600160a81b038116811461122f57600080fd5b801515811461122f57600080fdfea26474726f6e58221220dfa458334371b9082b664e2eaf6479b4b632d040a290cbacd510f8cacc4bdcae64736f6c63430008060033",
  "source": "// SPDX-License-Identifier: MIT\r\npragma solidity ^0.8.0;\r\n\r\nimport \"../libraries/SafeERC20.sol\";\r\nimport \"@openzeppelin/contracts/access/Ownable.sol\";\r\nimport \"@openzeppelin/contracts/security/ReentrancyGuard.sol\";\r\n\r\nimport \"../SpacePiratesTokens.sol\";\r\n\r\n/**\r\n * @title Space Pirates MasterChef Contract\r\n * @author @Gr3it, @yuripaoloni (reviewer), @MatteoLeonesi (reviewer)\r\n * @notice Create Staking pools for LPTokens\r\n */\r\n\r\n// MasterChef is the master of the doubloons. He can make doubloons and he is a fair guy.\r\n//\r\n// Note that it's ownable and the owner wields tremendous power. The ownership\r\n// will be transferred to a governance smart contract once ve-asteroids is sufficiently\r\n// distributed and the community can show to govern itself.\r\n//\r\n// Have fun reading it. Hopefully it's bug-free. God bless.\r\ncontract SpacePiratesMasterChef is Ownable, ReentrancyGuard {\r\n    using SafeERC20 for IERC20;\r\n\r\n    // Info of each user.\r\n    struct UserInfo {\r\n        uint256 amount; // How many LP tokens the user has provided.\r\n        uint256 rewardDebt; // Reward debt. See explanation below.\r\n        //\r\n        // We do some fancy math here. Basically, any point in time, the amount of doubloons\r\n        // entitled to a user but is pending to be distributed is:\r\n        //\r\n        //   pending reward = (user.amount * pool.accDoubloonsPerShare) - user.rewardDebt\r\n        //\r\n        // Whenever a user deposits or withdraws LP tokens to a pool. Here's what happens:\r\n        //   1. The pool's `accDoubloonsPerShare` (and `lastRewardBlock`) gets updated.\r\n        //   2. User receives the pending reward sent to his/her address.\r\n        //   3. User's `amount` gets updated.\r\n        //   4. User's `rewardDebt` gets updated.\r\n    }\r\n\r\n    // Info of each pool.\r\n    struct PoolInfo {\r\n        IERC20 lpToken; // Address of LP token contract.\r\n        uint256 allocPoint; // How many allocation points assigned to this pool. Doubloons to distribute per block.\r\n        uint256 lastRewardBlock; // Last block number that Doubloons distribution occurs.\r\n        uint256 accDoubloonsPerShare; // Accumulated Doubloons per share, times 1e12. See below.\r\n        uint16 depositFeeBP; // Deposit fee in basis points\r\n    }\r\n\r\n    // The Doubloons TOKEN!\r\n    SpacePiratesTokens public doubloons;\r\n    // The Doubloons ID!\r\n    uint256 public constant DOUBLOONS_ID = 1;\r\n    // Dev address.\r\n    address public devaddr;\r\n    // doubloons tokens created per block.\r\n    uint256 public doubloonsPerBlock;\r\n    // Bonus muliplier for early Doubloons makers.\r\n    uint256 public constant BONUS_MULTIPLIER = 1;\r\n    // Deposit Fee address\r\n    address public feeAddress;\r\n\r\n    // Info of each pool.\r\n    PoolInfo[] public poolInfo;\r\n    // Info of each user that stakes LP tokens.\r\n    mapping(uint256 => mapping(address => UserInfo)) public userInfo;\r\n    // Total allocation points. Must be the sum of all allocation points in all pools.\r\n    uint256 public totalAllocPoint = 0;\r\n    // The block number when Doubloons mining starts.\r\n    uint256 public startBlock;\r\n\r\n    event Deposit(address indexed user, uint256 indexed pid, uint256 amount);\r\n    event Withdraw(address indexed user, uint256 indexed pid, uint256 amount);\r\n    event EmergencyWithdraw(\r\n        address indexed user,\r\n        uint256 indexed pid,\r\n        uint256 amount\r\n    );\r\n    event SetFeeAddress(address indexed user, address indexed newAddress);\r\n    event SetDevAddress(address indexed user, address indexed newAddress);\r\n    event UpdateEmissionRate(address indexed user, uint256 doubloonsPerBlock);\r\n\r\n    constructor(\r\n        SpacePiratesTokens _doubloons,\r\n        address _devaddr,\r\n        address _feeAddress,\r\n        uint256 _doubloonsPerBlock,\r\n        uint256 _startBlock\r\n    ) {\r\n        doubloons = _doubloons;\r\n        devaddr = _devaddr;\r\n        feeAddress = _feeAddress;\r\n        doubloonsPerBlock = _doubloonsPerBlock;\r\n        startBlock = _startBlock;\r\n    }\r\n\r\n    function poolLength() external view returns (uint256) {\r\n        return poolInfo.length;\r\n    }\r\n\r\n    mapping(IERC20 => bool) public poolExistence;\r\n    modifier nonDuplicated(IERC20 _lpToken) {\r\n        require(poolExistence[_lpToken] == false, \"nonDuplicated: duplicated\");\r\n        _;\r\n    }\r\n\r\n    // Add a new lp to the pool. Can only be called by the owner.\r\n    function add(\r\n        uint256 _allocPoint,\r\n        IERC20 _lpToken,\r\n        uint16 _depositFeeBP,\r\n        bool _withUpdate\r\n    ) public onlyOwner nonDuplicated(_lpToken) {\r\n        require(\r\n            _depositFeeBP <= 10000,\r\n            \"add: invalid deposit fee basis points\"\r\n        );\r\n        if (_withUpdate) {\r\n            massUpdatePools();\r\n        }\r\n        uint256 lastRewardBlock = block.number > startBlock\r\n            ? block.number\r\n            : startBlock;\r\n        totalAllocPoint = totalAllocPoint + _allocPoint;\r\n        poolExistence[_lpToken] = true;\r\n        poolInfo.push(\r\n            PoolInfo({\r\n                lpToken: _lpToken,\r\n                allocPoint: _allocPoint,\r\n                lastRewardBlock: lastRewardBlock,\r\n                accDoubloonsPerShare: 0,\r\n                depositFeeBP: _depositFeeBP\r\n            })\r\n        );\r\n    }\r\n\r\n    // Update the given pool's Doubloons allocation point and deposit fee. Can only be called by the owner.\r\n    function set(\r\n        uint256 _pid,\r\n        uint256 _allocPoint,\r\n        uint16 _depositFeeBP,\r\n        bool _withUpdate\r\n    ) public onlyOwner {\r\n        require(\r\n            _depositFeeBP <= 10000,\r\n            \"set: invalid deposit fee basis points\"\r\n        );\r\n        if (_withUpdate) {\r\n            massUpdatePools();\r\n        }\r\n        totalAllocPoint =\r\n            totalAllocPoint -\r\n            poolInfo[_pid].allocPoint +\r\n            _allocPoint;\r\n        poolInfo[_pid].allocPoint = _allocPoint;\r\n        poolInfo[_pid].depositFeeBP = _depositFeeBP;\r\n    }\r\n\r\n    // Return reward multiplier over the given _from to _to block.\r\n    function getMultiplier(uint256 _from, uint256 _to)\r\n        public\r\n        pure\r\n        returns (uint256)\r\n    {\r\n        return (_to - _from) * BONUS_MULTIPLIER;\r\n    }\r\n\r\n    // View function to see pending Doubloons on frontend.\r\n    function pendingDoubloons(uint256 _pid, address _user)\r\n        external\r\n        view\r\n        returns (uint256)\r\n    {\r\n        PoolInfo storage pool = poolInfo[_pid];\r\n        UserInfo storage user = userInfo[_pid][_user];\r\n        uint256 accDoubloonsPerShare = pool.accDoubloonsPerShare;\r\n        uint256 lpSupply = pool.lpToken.balanceOf(address(this));\r\n        if (block.number > pool.lastRewardBlock && lpSupply != 0) {\r\n            uint256 multiplier = getMultiplier(\r\n                pool.lastRewardBlock,\r\n                block.number\r\n            );\r\n            uint256 doubloonsReward = (multiplier *\r\n                doubloonsPerBlock *\r\n                pool.allocPoint) / totalAllocPoint;\r\n            accDoubloonsPerShare =\r\n                accDoubloonsPerShare +\r\n                ((doubloonsReward * 1e12) / lpSupply);\r\n        }\r\n        return (user.amount * accDoubloonsPerShare) / 1e12 - user.rewardDebt;\r\n    }\r\n\r\n    // Update reward variables for all pools. Be careful of gas spending!\r\n    function massUpdatePools() public {\r\n        uint256 length = poolInfo.length;\r\n        for (uint256 pid = 0; pid < length; ++pid) {\r\n            updatePool(pid);\r\n        }\r\n    }\r\n\r\n    // Update reward variables of the given pool to be up-to-date.\r\n    function updatePool(uint256 _pid) public {\r\n        PoolInfo storage pool = poolInfo[_pid];\r\n        if (block.number <= pool.lastRewardBlock) {\r\n            return;\r\n        }\r\n        uint256 lpSupply = pool.lpToken.balanceOf(address(this));\r\n        if (lpSupply == 0 || pool.allocPoint == 0) {\r\n            pool.lastRewardBlock = block.number;\r\n            return;\r\n        }\r\n        uint256 multiplier = getMultiplier(pool.lastRewardBlock, block.number);\r\n        uint256 doubloonsReward = (multiplier *\r\n            doubloonsPerBlock *\r\n            pool.allocPoint) / totalAllocPoint;\r\n        doubloons.mint(devaddr, doubloonsReward / 10, DOUBLOONS_ID);\r\n        doubloons.mint(address(this), doubloonsReward, DOUBLOONS_ID);\r\n        pool.accDoubloonsPerShare =\r\n            pool.accDoubloonsPerShare +\r\n            ((doubloonsReward * 1e12) / lpSupply);\r\n        pool.lastRewardBlock = block.number;\r\n    }\r\n\r\n    // Deposit LP tokens to MasterChef for Doubloons allocation.\r\n    function deposit(uint256 _pid, uint256 _amount) public nonReentrant {\r\n        PoolInfo storage pool = poolInfo[_pid];\r\n        UserInfo storage user = userInfo[_pid][msg.sender];\r\n        updatePool(_pid);\r\n        if (user.amount > 0) {\r\n            uint256 pending = (user.amount * pool.accDoubloonsPerShare) /\r\n                1e12 -\r\n                user.rewardDebt;\r\n            if (pending > 0) {\r\n                safeDoubloonsTransfer(msg.sender, pending);\r\n            }\r\n        }\r\n        if (_amount > 0) {\r\n            pool.lpToken.safeTransferFrom(\r\n                address(msg.sender),\r\n                address(this),\r\n                _amount\r\n            );\r\n            if (pool.depositFeeBP > 0) {\r\n                uint256 depositFee = (_amount * pool.depositFeeBP) / 10000;\r\n                pool.lpToken.safeTransfer(feeAddress, depositFee);\r\n                user.amount = user.amount + _amount - depositFee;\r\n            } else {\r\n                user.amount = user.amount + _amount;\r\n            }\r\n        }\r\n        user.rewardDebt = (user.amount * pool.accDoubloonsPerShare) / 1e12;\r\n        emit Deposit(msg.sender, _pid, _amount);\r\n    }\r\n\r\n    // Withdraw LP tokens from MasterChef.\r\n    function withdraw(uint256 _pid, uint256 _amount) public nonReentrant {\r\n        PoolInfo storage pool = poolInfo[_pid];\r\n        UserInfo storage user = userInfo[_pid][msg.sender];\r\n        require(user.amount >= _amount, \"withdraw: not good\");\r\n        updatePool(_pid);\r\n        uint256 pending = ((user.amount * pool.accDoubloonsPerShare) / 1e12) -\r\n            (user.rewardDebt);\r\n        if (pending > 0) {\r\n            safeDoubloonsTransfer(msg.sender, pending);\r\n        }\r\n        if (_amount > 0) {\r\n            user.amount = user.amount - _amount;\r\n            pool.lpToken.safeTransfer(address(msg.sender), _amount);\r\n        }\r\n        user.rewardDebt = (user.amount * pool.accDoubloonsPerShare) / 1e12;\r\n        emit Withdraw(msg.sender, _pid, _amount);\r\n    }\r\n\r\n    // Withdraw without caring about rewards. EMERGENCY ONLY.\r\n    function emergencyWithdraw(uint256 _pid) public nonReentrant {\r\n        PoolInfo storage pool = poolInfo[_pid];\r\n        UserInfo storage user = userInfo[_pid][msg.sender];\r\n        uint256 amount = user.amount;\r\n        user.amount = 0;\r\n        user.rewardDebt = 0;\r\n        pool.lpToken.safeTransfer(address(msg.sender), amount);\r\n        emit EmergencyWithdraw(msg.sender, _pid, amount);\r\n    }\r\n\r\n    // Safe Doubloons transfer function, just in case if rounding error causes pool to not have enough Doubloons.\r\n    function safeDoubloonsTransfer(address _to, uint256 _amount) internal {\r\n        uint256 doubloonsBal = doubloons.balanceOf(address(this), DOUBLOONS_ID);\r\n        if (_amount > doubloonsBal) {\r\n            doubloons.safeTransferFrom(\r\n                address(this),\r\n                _to,\r\n                DOUBLOONS_ID,\r\n                doubloonsBal,\r\n                \"\"\r\n            );\r\n        } else {\r\n            doubloons.safeTransferFrom(\r\n                address(this),\r\n                _to,\r\n                DOUBLOONS_ID,\r\n                _amount,\r\n                \"\"\r\n            );\r\n        }\r\n    }\r\n\r\n    // Update dev address by the previous dev.\r\n    function dev(address _devaddr) public {\r\n        require(msg.sender == devaddr, \"dev: wut?\");\r\n        devaddr = _devaddr;\r\n        emit SetDevAddress(msg.sender, _devaddr);\r\n    }\r\n\r\n    function setFeeAddress(address _feeAddress) public {\r\n        require(msg.sender == feeAddress, \"setFeeAddress: FORBIDDEN\");\r\n        feeAddress = _feeAddress;\r\n        emit SetFeeAddress(msg.sender, _feeAddress);\r\n    }\r\n\r\n    //Pancake has to add hidden dummy pools inorder to alter the emission, here we make it simple and transparent to all.\r\n    function updateEmissionRate(uint256 _doubloonsPerBlock) public onlyOwner {\r\n        massUpdatePools();\r\n        doubloonsPerBlock = _doubloonsPerBlock;\r\n        emit UpdateEmissionRate(msg.sender, _doubloonsPerBlock);\r\n    }\r\n}\r\n",
  "sourcePath": "C:/Users/emanu/space-pirates-tronbox/contracts/dex/SpacePiratesMasterChef.sol",
  "compiler": {
    "name": "solc",
    "version": "0.8.6+commit.0e36fba0.mod.Emscripten.clang"
  },
  "schemaVersion": "2.0.1",
  "updatedAt": "2022-07-16T14:55:56.174Z"
}