{
  "contractName": "SpacePiratesTokens",
  "abi": [
    {
      "inputs": [
        {
          "internalType": "string",
          "name": "uri",
          "type": "string"
        }
      ],
      "stateMutability": "nonpayable",
      "type": "constructor"
    },
    {
      "anonymous": false,
      "inputs": [
        {
          "indexed": true,
          "internalType": "address",
          "name": "account",
          "type": "address"
        },
        {
          "indexed": true,
          "internalType": "address",
          "name": "operator",
          "type": "address"
        },
        {
          "indexed": false,
          "internalType": "bool",
          "name": "approved",
          "type": "bool"
        }
      ],
      "name": "ApprovalForAll",
      "type": "event"
    },
    {
      "anonymous": false,
      "inputs": [
        {
          "indexed": true,
          "internalType": "address",
          "name": "sender",
          "type": "address"
        },
        {
          "indexed": false,
          "internalType": "uint256",
          "name": "id",
          "type": "uint256"
        },
        {
          "indexed": false,
          "internalType": "uint256",
          "name": "amount",
          "type": "uint256"
        }
      ],
      "name": "Burn",
      "type": "event"
    },
    {
      "anonymous": false,
      "inputs": [
        {
          "indexed": true,
          "internalType": "address",
          "name": "sender",
          "type": "address"
        },
        {
          "indexed": false,
          "internalType": "uint256[]",
          "name": "ids",
          "type": "uint256[]"
        },
        {
          "indexed": false,
          "internalType": "uint256[]",
          "name": "amounts",
          "type": "uint256[]"
        }
      ],
      "name": "BurnBatch",
      "type": "event"
    },
    {
      "anonymous": false,
      "inputs": [
        {
          "indexed": true,
          "internalType": "bytes32[]",
          "name": "roles",
          "type": "bytes32[]"
        },
        {
          "indexed": false,
          "internalType": "address[]",
          "name": "accounts",
          "type": "address[]"
        }
      ],
      "name": "GrantMultiRole",
      "type": "event"
    },
    {
      "anonymous": false,
      "inputs": [
        {
          "indexed": true,
          "internalType": "bytes32",
          "name": "role",
          "type": "bytes32"
        },
        {
          "indexed": false,
          "internalType": "address",
          "name": "account",
          "type": "address"
        }
      ],
      "name": "GrantRole",
      "type": "event"
    },
    {
      "anonymous": false,
      "inputs": [],
      "name": "LockTokenTransfer",
      "type": "event"
    },
    {
      "anonymous": false,
      "inputs": [
        {
          "indexed": true,
          "internalType": "address",
          "name": "sender",
          "type": "address"
        },
        {
          "indexed": false,
          "internalType": "uint256",
          "name": "id",
          "type": "uint256"
        },
        {
          "indexed": false,
          "internalType": "uint256",
          "name": "amount",
          "type": "uint256"
        },
        {
          "indexed": true,
          "internalType": "address",
          "name": "to",
          "type": "address"
        }
      ],
      "name": "Mint",
      "type": "event"
    },
    {
      "anonymous": false,
      "inputs": [
        {
          "indexed": true,
          "internalType": "address",
          "name": "sender",
          "type": "address"
        },
        {
          "indexed": false,
          "internalType": "uint256[]",
          "name": "ids",
          "type": "uint256[]"
        },
        {
          "indexed": false,
          "internalType": "uint256[]",
          "name": "amounts",
          "type": "uint256[]"
        },
        {
          "indexed": true,
          "internalType": "address",
          "name": "to",
          "type": "address"
        }
      ],
      "name": "MintBatch",
      "type": "event"
    },
    {
      "anonymous": false,
      "inputs": [],
      "name": "Pause",
      "type": "event"
    },
    {
      "anonymous": false,
      "inputs": [
        {
          "indexed": false,
          "internalType": "address",
          "name": "account",
          "type": "address"
        }
      ],
      "name": "Paused",
      "type": "event"
    },
    {
      "anonymous": false,
      "inputs": [
        {
          "indexed": true,
          "internalType": "bytes32",
          "name": "role",
          "type": "bytes32"
        },
        {
          "indexed": false,
          "internalType": "address",
          "name": "account",
          "type": "address"
        }
      ],
      "name": "RenounceRole",
      "type": "event"
    },
    {
      "anonymous": false,
      "inputs": [
        {
          "indexed": true,
          "internalType": "bytes32[]",
          "name": "roles",
          "type": "bytes32[]"
        },
        {
          "indexed": false,
          "internalType": "address[]",
          "name": "accounts",
          "type": "address[]"
        }
      ],
      "name": "RevokeMultiRole",
      "type": "event"
    },
    {
      "anonymous": false,
      "inputs": [
        {
          "indexed": true,
          "internalType": "bytes32",
          "name": "role",
          "type": "bytes32"
        },
        {
          "indexed": false,
          "internalType": "address",
          "name": "account",
          "type": "address"
        }
      ],
      "name": "RevokeRole",
      "type": "event"
    },
    {
      "anonymous": false,
      "inputs": [
        {
          "indexed": true,
          "internalType": "bytes32",
          "name": "role",
          "type": "bytes32"
        },
        {
          "indexed": true,
          "internalType": "bytes32",
          "name": "previousAdminRole",
          "type": "bytes32"
        },
        {
          "indexed": true,
          "internalType": "bytes32",
          "name": "newAdminRole",
          "type": "bytes32"
        }
      ],
      "name": "RoleAdminChanged",
      "type": "event"
    },
    {
      "anonymous": false,
      "inputs": [
        {
          "indexed": true,
          "internalType": "bytes32",
          "name": "role",
          "type": "bytes32"
        },
        {
          "indexed": true,
          "internalType": "address",
          "name": "account",
          "type": "address"
        },
        {
          "indexed": true,
          "internalType": "address",
          "name": "sender",
          "type": "address"
        }
      ],
      "name": "RoleGranted",
      "type": "event"
    },
    {
      "anonymous": false,
      "inputs": [
        {
          "indexed": true,
          "internalType": "bytes32",
          "name": "role",
          "type": "bytes32"
        },
        {
          "indexed": true,
          "internalType": "address",
          "name": "account",
          "type": "address"
        },
        {
          "indexed": true,
          "internalType": "address",
          "name": "sender",
          "type": "address"
        }
      ],
      "name": "RoleRevoked",
      "type": "event"
    },
    {
      "anonymous": false,
      "inputs": [
        {
          "indexed": true,
          "internalType": "address",
          "name": "operator",
          "type": "address"
        },
        {
          "indexed": true,
          "internalType": "address",
          "name": "from",
          "type": "address"
        },
        {
          "indexed": true,
          "internalType": "address",
          "name": "to",
          "type": "address"
        },
        {
          "indexed": false,
          "internalType": "uint256[]",
          "name": "ids",
          "type": "uint256[]"
        },
        {
          "indexed": false,
          "internalType": "uint256[]",
          "name": "values",
          "type": "uint256[]"
        }
      ],
      "name": "TransferBatch",
      "type": "event"
    },
    {
      "anonymous": false,
      "inputs": [
        {
          "indexed": true,
          "internalType": "address",
          "name": "operator",
          "type": "address"
        },
        {
          "indexed": true,
          "internalType": "address",
          "name": "from",
          "type": "address"
        },
        {
          "indexed": true,
          "internalType": "address",
          "name": "to",
          "type": "address"
        },
        {
          "indexed": false,
          "internalType": "uint256",
          "name": "id",
          "type": "uint256"
        },
        {
          "indexed": false,
          "internalType": "uint256",
          "name": "value",
          "type": "uint256"
        }
      ],
      "name": "TransferSingle",
      "type": "event"
    },
    {
      "anonymous": false,
      "inputs": [
        {
          "indexed": false,
          "internalType": "string",
          "name": "value",
          "type": "string"
        },
        {
          "indexed": true,
          "internalType": "uint256",
          "name": "id",
          "type": "uint256"
        }
      ],
      "name": "URI",
      "type": "event"
    },
    {
      "anonymous": false,
      "inputs": [],
      "name": "UnLockTokenTransfer",
      "type": "event"
    },
    {
      "anonymous": false,
      "inputs": [],
      "name": "Unpause",
      "type": "event"
    },
    {
      "anonymous": false,
      "inputs": [
        {
          "indexed": false,
          "internalType": "address",
          "name": "account",
          "type": "address"
        }
      ],
      "name": "Unpaused",
      "type": "event"
    },
    {
      "anonymous": false,
      "inputs": [
        {
          "indexed": false,
          "internalType": "string",
          "name": "newUri",
          "type": "string"
        }
      ],
      "name": "UriUpdate",
      "type": "event"
    },
    {
      "inputs": [],
      "name": "ASTEROIDS",
      "outputs": [
        {
          "internalType": "uint256",
          "name": "",
          "type": "uint256"
        }
      ],
      "stateMutability": "view",
      "type": "function"
    },
    {
      "inputs": [],
      "name": "BF_BURN_ROLE",
      "outputs": [
        {
          "internalType": "bytes32",
          "name": "",
          "type": "bytes32"
        }
      ],
      "stateMutability": "view",
      "type": "function"
    },
    {
      "inputs": [],
      "name": "BF_MINT_ROLE",
      "outputs": [
        {
          "internalType": "bytes32",
          "name": "",
          "type": "bytes32"
        }
      ],
      "stateMutability": "view",
      "type": "function"
    },
    {
      "inputs": [],
      "name": "CAN_PAUSE_ROLE",
      "outputs": [
        {
          "internalType": "bytes32",
          "name": "",
          "type": "bytes32"
        }
      ],
      "stateMutability": "view",
      "type": "function"
    },
    {
      "inputs": [],
      "name": "CAN_UNPAUSE_ROLE",
      "outputs": [
        {
          "internalType": "bytes32",
          "name": "",
          "type": "bytes32"
        }
      ],
      "stateMutability": "view",
      "type": "function"
    },
    {
      "inputs": [],
      "name": "DECORATIONS_BURN_ROLE",
      "outputs": [
        {
          "internalType": "bytes32",
          "name": "",
          "type": "bytes32"
        }
      ],
      "stateMutability": "view",
      "type": "function"
    },
    {
      "inputs": [],
      "name": "DECORATIONS_MINT_ROLE",
      "outputs": [
        {
          "internalType": "bytes32",
          "name": "",
          "type": "bytes32"
        }
      ],
      "stateMutability": "view",
      "type": "function"
    },
    {
      "inputs": [],
      "name": "DEFAULT_ADMIN_ROLE",
      "outputs": [
        {
          "internalType": "bytes32",
          "name": "",
          "type": "bytes32"
        }
      ],
      "stateMutability": "view",
      "type": "function"
    },
    {
      "inputs": [],
      "name": "DOUBLOONS",
      "outputs": [
        {
          "internalType": "uint256",
          "name": "",
          "type": "uint256"
        }
      ],
      "stateMutability": "view",
      "type": "function"
    },
    {
      "inputs": [],
      "name": "ITEMS_BURN_ROLE",
      "outputs": [
        {
          "internalType": "bytes32",
          "name": "",
          "type": "bytes32"
        }
      ],
      "stateMutability": "view",
      "type": "function"
    },
    {
      "inputs": [],
      "name": "ITEMS_MINT_ROLE",
      "outputs": [
        {
          "internalType": "bytes32",
          "name": "",
          "type": "bytes32"
        }
      ],
      "stateMutability": "view",
      "type": "function"
    },
    {
      "inputs": [],
      "name": "STK_ASTEROIDS",
      "outputs": [
        {
          "internalType": "uint256",
          "name": "",
          "type": "uint256"
        }
      ],
      "stateMutability": "view",
      "type": "function"
    },
    {
      "inputs": [],
      "name": "TITLES_BURN_ROLE",
      "outputs": [
        {
          "internalType": "bytes32",
          "name": "",
          "type": "bytes32"
        }
      ],
      "stateMutability": "view",
      "type": "function"
    },
    {
      "inputs": [],
      "name": "TITLES_MINT_ROLE",
      "outputs": [
        {
          "internalType": "bytes32",
          "name": "",
          "type": "bytes32"
        }
      ],
      "stateMutability": "view",
      "type": "function"
    },
    {
      "inputs": [],
      "name": "TRANSFERABLE_SETTER_ROLE",
      "outputs": [
        {
          "internalType": "bytes32",
          "name": "",
          "type": "bytes32"
        }
      ],
      "stateMutability": "view",
      "type": "function"
    },
    {
      "inputs": [],
      "name": "URI_SETTER_ROLE",
      "outputs": [
        {
          "internalType": "bytes32",
          "name": "",
          "type": "bytes32"
        }
      ],
      "stateMutability": "view",
      "type": "function"
    },
    {
      "inputs": [],
      "name": "VE_ASTEROIDS",
      "outputs": [
        {
          "internalType": "uint256",
          "name": "",
          "type": "uint256"
        }
      ],
      "stateMutability": "view",
      "type": "function"
    },
    {
      "inputs": [],
      "name": "WRAPPED_BURN_ROLE",
      "outputs": [
        {
          "internalType": "bytes32",
          "name": "",
          "type": "bytes32"
        }
      ],
      "stateMutability": "view",
      "type": "function"
    },
    {
      "inputs": [],
      "name": "WRAPPED_MINT_ROLE",
      "outputs": [
        {
          "internalType": "bytes32",
          "name": "",
          "type": "bytes32"
        }
      ],
      "stateMutability": "view",
      "type": "function"
    },
    {
      "inputs": [
        {
          "internalType": "address",
          "name": "account",
          "type": "address"
        },
        {
          "internalType": "uint256",
          "name": "id",
          "type": "uint256"
        }
      ],
      "name": "balanceOf",
      "outputs": [
        {
          "internalType": "uint256",
          "name": "",
          "type": "uint256"
        }
      ],
      "stateMutability": "view",
      "type": "function"
    },
    {
      "inputs": [
        {
          "internalType": "address[]",
          "name": "accounts",
          "type": "address[]"
        },
        {
          "internalType": "uint256[]",
          "name": "ids",
          "type": "uint256[]"
        }
      ],
      "name": "balanceOfBatch",
      "outputs": [
        {
          "internalType": "uint256[]",
          "name": "",
          "type": "uint256[]"
        }
      ],
      "stateMutability": "view",
      "type": "function"
    },
    {
      "inputs": [
        {
          "internalType": "address",
          "name": "from",
          "type": "address"
        },
        {
          "internalType": "uint256",
          "name": "amount",
          "type": "uint256"
        },
        {
          "internalType": "uint256",
          "name": "id",
          "type": "uint256"
        }
      ],
      "name": "burn",
      "outputs": [],
      "stateMutability": "nonpayable",
      "type": "function"
    },
    {
      "inputs": [
        {
          "internalType": "address",
          "name": "from",
          "type": "address"
        },
        {
          "internalType": "uint256[]",
          "name": "ids",
          "type": "uint256[]"
        },
        {
          "internalType": "uint256[]",
          "name": "amounts",
          "type": "uint256[]"
        }
      ],
      "name": "burnBatch",
      "outputs": [],
      "stateMutability": "nonpayable",
      "type": "function"
    },
    {
      "inputs": [
        {
          "internalType": "uint256",
          "name": "id",
          "type": "uint256"
        }
      ],
      "name": "canBeTransferred",
      "outputs": [
        {
          "internalType": "bool",
          "name": "",
          "type": "bool"
        }
      ],
      "stateMutability": "view",
      "type": "function"
    },
    {
      "inputs": [
        {
          "internalType": "uint256",
          "name": "id",
          "type": "uint256"
        }
      ],
      "name": "exists",
      "outputs": [
        {
          "internalType": "bool",
          "name": "",
          "type": "bool"
        }
      ],
      "stateMutability": "view",
      "type": "function"
    },
    {
      "inputs": [
        {
          "internalType": "bytes32",
          "name": "role",
          "type": "bytes32"
        }
      ],
      "name": "getRoleAdmin",
      "outputs": [
        {
          "internalType": "bytes32",
          "name": "",
          "type": "bytes32"
        }
      ],
      "stateMutability": "view",
      "type": "function"
    },
    {
      "inputs": [
        {
          "internalType": "bytes32[]",
          "name": "roles",
          "type": "bytes32[]"
        },
        {
          "internalType": "address[]",
          "name": "accounts",
          "type": "address[]"
        }
      ],
      "name": "grantMultiRole",
      "outputs": [],
      "stateMutability": "nonpayable",
      "type": "function"
    },
    {
      "inputs": [
        {
          "internalType": "bytes32",
          "name": "role",
          "type": "bytes32"
        },
        {
          "internalType": "address",
          "name": "account",
          "type": "address"
        }
      ],
      "name": "grantRole",
      "outputs": [],
      "stateMutability": "nonpayable",
      "type": "function"
    },
    {
      "inputs": [
        {
          "internalType": "bytes32",
          "name": "role",
          "type": "bytes32"
        },
        {
          "internalType": "address",
          "name": "account",
          "type": "address"
        }
      ],
      "name": "hasRole",
      "outputs": [
        {
          "internalType": "bool",
          "name": "",
          "type": "bool"
        }
      ],
      "stateMutability": "view",
      "type": "function"
    },
    {
      "inputs": [
        {
          "internalType": "address",
          "name": "account",
          "type": "address"
        },
        {
          "internalType": "address",
          "name": "operator",
          "type": "address"
        }
      ],
      "name": "isApprovedForAll",
      "outputs": [
        {
          "internalType": "bool",
          "name": "",
          "type": "bool"
        }
      ],
      "stateMutability": "view",
      "type": "function"
    },
    {
      "inputs": [
        {
          "internalType": "uint256",
          "name": "id",
          "type": "uint256"
        }
      ],
      "name": "lockTokenTransfer",
      "outputs": [],
      "stateMutability": "nonpayable",
      "type": "function"
    },
    {
      "inputs": [
        {
          "internalType": "address",
          "name": "to",
          "type": "address"
        },
        {
          "internalType": "uint256",
          "name": "amount",
          "type": "uint256"
        },
        {
          "internalType": "uint256",
          "name": "id",
          "type": "uint256"
        }
      ],
      "name": "mint",
      "outputs": [],
      "stateMutability": "nonpayable",
      "type": "function"
    },
    {
      "inputs": [
        {
          "internalType": "address",
          "name": "to",
          "type": "address"
        },
        {
          "internalType": "uint256[]",
          "name": "ids",
          "type": "uint256[]"
        },
        {
          "internalType": "uint256[]",
          "name": "amounts",
          "type": "uint256[]"
        }
      ],
      "name": "mintBatch",
      "outputs": [],
      "stateMutability": "nonpayable",
      "type": "function"
    },
    {
      "inputs": [],
      "name": "pause",
      "outputs": [],
      "stateMutability": "nonpayable",
      "type": "function"
    },
    {
      "inputs": [],
      "name": "paused",
      "outputs": [
        {
          "internalType": "bool",
          "name": "",
          "type": "bool"
        }
      ],
      "stateMutability": "view",
      "type": "function"
    },
    {
      "inputs": [
        {
          "internalType": "bytes32",
          "name": "role",
          "type": "bytes32"
        },
        {
          "internalType": "address",
          "name": "account",
          "type": "address"
        }
      ],
      "name": "renounceRole",
      "outputs": [],
      "stateMutability": "nonpayable",
      "type": "function"
    },
    {
      "inputs": [
        {
          "internalType": "bytes32[]",
          "name": "roles",
          "type": "bytes32[]"
        },
        {
          "internalType": "address[]",
          "name": "accounts",
          "type": "address[]"
        }
      ],
      "name": "revokeMultiRole",
      "outputs": [],
      "stateMutability": "nonpayable",
      "type": "function"
    },
    {
      "inputs": [
        {
          "internalType": "bytes32",
          "name": "role",
          "type": "bytes32"
        },
        {
          "internalType": "address",
          "name": "account",
          "type": "address"
        }
      ],
      "name": "revokeRole",
      "outputs": [],
      "stateMutability": "nonpayable",
      "type": "function"
    },
    {
      "inputs": [
        {
          "internalType": "address",
          "name": "from",
          "type": "address"
        },
        {
          "internalType": "address",
          "name": "to",
          "type": "address"
        },
        {
          "internalType": "uint256[]",
          "name": "ids",
          "type": "uint256[]"
        },
        {
          "internalType": "uint256[]",
          "name": "amounts",
          "type": "uint256[]"
        },
        {
          "internalType": "bytes",
          "name": "data",
          "type": "bytes"
        }
      ],
      "name": "safeBatchTransferFrom",
      "outputs": [],
      "stateMutability": "nonpayable",
      "type": "function"
    },
    {
      "inputs": [
        {
          "internalType": "address",
          "name": "from",
          "type": "address"
        },
        {
          "internalType": "address",
          "name": "to",
          "type": "address"
        },
        {
          "internalType": "uint256",
          "name": "id",
          "type": "uint256"
        },
        {
          "internalType": "uint256",
          "name": "amount",
          "type": "uint256"
        },
        {
          "internalType": "bytes",
          "name": "data",
          "type": "bytes"
        }
      ],
      "name": "safeTransferFrom",
      "outputs": [],
      "stateMutability": "nonpayable",
      "type": "function"
    },
    {
      "inputs": [
        {
          "internalType": "address",
          "name": "operator",
          "type": "address"
        },
        {
          "internalType": "bool",
          "name": "approved",
          "type": "bool"
        }
      ],
      "name": "setApprovalForAll",
      "outputs": [],
      "stateMutability": "nonpayable",
      "type": "function"
    },
    {
      "inputs": [
        {
          "internalType": "string",
          "name": "newUri",
          "type": "string"
        }
      ],
      "name": "setURI",
      "outputs": [],
      "stateMutability": "nonpayable",
      "type": "function"
    },
    {
      "inputs": [
        {
          "internalType": "bytes4",
          "name": "interfaceId",
          "type": "bytes4"
        }
      ],
      "name": "supportsInterface",
      "outputs": [
        {
          "internalType": "bool",
          "name": "",
          "type": "bool"
        }
      ],
      "stateMutability": "view",
      "type": "function"
    },
    {
      "inputs": [
        {
          "internalType": "uint256",
          "name": "id",
          "type": "uint256"
        }
      ],
      "name": "totalSupply",
      "outputs": [
        {
          "internalType": "uint256",
          "name": "",
          "type": "uint256"
        }
      ],
      "stateMutability": "view",
      "type": "function"
    },
    {
      "inputs": [
        {
          "internalType": "uint256",
          "name": "id",
          "type": "uint256"
        }
      ],
      "name": "unLockTokenTransfer",
      "outputs": [],
      "stateMutability": "nonpayable",
      "type": "function"
    },
    {
      "inputs": [],
      "name": "unpause",
      "outputs": [],
      "stateMutability": "nonpayable",
      "type": "function"
    },
    {
      "inputs": [
        {
          "internalType": "uint256",
          "name": "id",
          "type": "uint256"
        }
      ],
      "name": "uri",
      "outputs": [
        {
          "internalType": "string",
          "name": "",
          "type": "string"
        }
      ],
      "stateMutability": "view",
      "type": "function"
    }
  ],
  "bytecode": "0x60806040523480156200001157600080fd5b50d380156200001f57600080fd5b50d280156200002d57600080fd5b50604051620045e9380380620045e98339810160408190526200005091620008bb565b6000805460ff19169055806200006681620000d6565b506200009533600169d3c21bcecceda100000060405180602001604052806000815250620000ef60201b60201c565b620000c233600268056bc75e2d6310000060405180602001604052806000815250620000ef60201b60201c565b620000cf60003362000224565b5062000bad565b8051620000eb906005906020840190620007e2565b5050565b6001600160a01b038416620001555760405162461bcd60e51b815260206004820152602160248201527f455243313135353a206d696e7420746f20746865207a65726f206164647265736044820152607360f81b60648201526084015b60405180910390fd5b336000620001638562000230565b90506000620001728562000230565b905062000185836000898585896200027e565b60008681526002602090815260408083206001600160a01b038b16845290915281208054879290620001b9908490620009e7565b909155505060408051878152602081018790526001600160a01b03808a1692600092918716917fc3d58168c5ae7397731d063d5bbf3d657854427343f4c083240f7aacaa2d0f62910160405180910390a46200021b8360008989898962000552565b50505050505050565b620000eb82826200072f565b604080516001808252818301909252606091600091906020808301908036833701905050905082816000815181106200026d576200026d62000ad5565b602090810291909101015292915050565b60005460ff1615620002e85760405162461bcd60e51b815260206004820152602c60248201527f455243313135355061757361626c653a20746f6b656e207472616e736665722060448201526b1dda1a5b19481c185d5cd95960a21b60648201526084016200014c565b6001600160a01b038516158015906200030957506001600160a01b03841615155b15620003b75760005b8351811015620003b5576004600085838151811062000335576200033562000ad5565b60209081029190910181015182528101919091526040016000205460ff1615620003a25760405162461bcd60e51b815260206004820152601f60248201527f455243313135353a20746f6b656e206e6f74207472616e7366657261626c650060448201526064016200014c565b620003ad8162000aa1565b905062000312565b505b6001600160a01b0385166200044b5760005b83518110156200044957828181518110620003e857620003e862000ad5565b60200260200101516001600086848151811062000409576200040962000ad5565b602002602001015181526020019081526020016000206000828254620004309190620009e7565b909155506200044190508162000aa1565b9050620003c9565b505b6001600160a01b0384166200054a5760005b83518110156200021b5760008482815181106200047e576200047e62000ad5565b6020026020010151905060008483815181106200049f576200049f62000ad5565b6020026020010151905060006001600084815260200190815260200160002054905081811015620005245760405162461bcd60e51b815260206004820152602860248201527f455243313135353a206275726e20616d6f756e74206578636565647320746f74604482015267616c537570706c7960c01b60648201526084016200014c565b60009283526001602052604090922091039055620005428162000aa1565b90506200045d565b505050505050565b62000571846001600160a01b0316620007d360201b620013011760201c565b156200054a5760405163f23a6e6160e01b81526001600160a01b0385169063f23a6e6190620005ad90899089908890889088906004016200098b565b602060405180830381600087803b158015620005c857600080fd5b505af1925050508015620005fb575060408051601f3d908101601f19168201909252620005f89181019062000888565b60015b620006bc576200060a62000b01565b806308c379a014156200064b57506200062262000b1e565b806200062f57506200064d565b8060405162461bcd60e51b81526004016200014c9190620009d2565b505b60405162461bcd60e51b815260206004820152603460248201527f455243313135353a207472616e7366657220746f206e6f6e204552433131353560448201527f526563656976657220696d706c656d656e74657200000000000000000000000060648201526084016200014c565b6001600160e01b0319811663f23a6e6160e01b146200021b5760405162461bcd60e51b815260206004820152602860248201527f455243313135353a204552433131353552656365697665722072656a656374656044820152676420746f6b656e7360c01b60648201526084016200014c565b60008281526006602090815260408083206001600160a01b038516845290915290205460ff16620000eb5760008281526006602090815260408083206001600160a01b03851684529091529020805460ff191660011790556200078f3390565b6001600160a01b0316816001600160a01b0316837f2f8788117e7eff1d82e926ec794901d17c78024a50270940304540a733656f0d60405160405180910390a45050565b6001600160a01b03163b151590565b828054620007f09062000a35565b90600052602060002090601f0160209004810192826200081457600085556200085f565b82601f106200082f57805160ff19168380011785556200085f565b828001600101855582156200085f579182015b828111156200085f57825182559160200191906001019062000842565b506200086d92915062000871565b5090565b5b808211156200086d576000815560010162000872565b6000602082840312156200089b57600080fd5b81516001600160e01b031981168114620008b457600080fd5b9392505050565b600060208284031215620008ce57600080fd5b81516001600160401b0380821115620008e657600080fd5b818401915084601f830112620008fb57600080fd5b81518181111562000910576200091062000aeb565b60405191506200092b601f8201601f19166020018362000a72565b8082528560208285010111156200094157600080fd5b6200095481602084016020860162000a02565b50949350505050565b600081518084526200097781602086016020860162000a02565b601f01601f19169290920160200192915050565b6001600160a01b03868116825285166020820152604081018490526060810183905260a060808201819052600090620009c7908301846200095d565b979650505050505050565b602081526000620008b460208301846200095d565b60008219821115620009fd57620009fd62000abf565b500190565b60005b8381101562000a1f57818101518382015260200162000a05565b8381111562000a2f576000848401525b50505050565b600181811c9082168062000a4a57607f821691505b6020821081141562000a6c57634e487b7160e01b600052602260045260246000fd5b50919050565b601f8201601f191681016001600160401b038111828210171562000a9a5762000a9a62000aeb565b6040525050565b600060001982141562000ab85762000ab862000abf565b5060010190565b634e487b7160e01b600052601160045260246000fd5b634e487b7160e01b600052603260045260246000fd5b634e487b7160e01b600052604160045260246000fd5b600060033d111562000b1b5760046000803e5060005160e01c5b90565b600060443d101562000b2d5790565b6040516003193d81016004833e81513d6001600160401b03808311602484018310171562000b5d57505050505090565b828501915081518181111562000b765750505050505090565b843d870101602082850101111562000b915750505050505090565b62000ba26020828601018762000a72565b509095945050505050565b613a2c8062000bbd6000396000f3fe608060405234801561001057600080fd5b50d3801561001d57600080fd5b50d2801561002a57600080fd5b50600436106102ae5760003560e01c80637f34571011610181578063c68c44ff116100e8578063e622f4b1116100a1578063e622f4b1146106e9578063e9098d9c146106fc578063e985e9c514610723578063f242432a1461075f578063f4481de014610772578063f5298aca1461078557600080fd5b8063c68c44ff14610649578063c89999d014610651578063c971b18c14610675578063d547741f1461069c578063d81d0a15146106af578063e00b587a146106c257600080fd5b8063a22cb4651161013a578063a22cb4651461058e578063a8ee0628146105a1578063b517d1cc146105c8578063b5e6f555146105db578063bd85b03914610602578063c67824621461062257600080fd5b80637f345710146104f65780638456cb591461051d57806385d5084b146105255780638fa459e31461054c57806391d1485414610573578063a217fddf1461058657600080fd5b8063380b1d41116102255780634f558e79116101de5780634f558e791461046057806359590b32146104825780635c975abb146104a95780635cd56955146104b45780636712627d146104db5780636b20c454146104e357600080fd5b8063380b1d41146103cf578063391c3891146103f65780633c71cfa2146104095780633f4ba83a1461041157806347b291cd146104195780634e1273f41461044057600080fd5b8063156e29f611610277578063156e29f614610358578063248a9ca31461036b5780632eb2c2d61461038e5780632f2ff15d146103a157806331e61ea6146103b457806336568abe146103bc57600080fd5b8062fdd58e146102b357806301ffc9a7146102d957806302fe5305146102fc5780630e89341c14610311578063124130b714610331575b600080fd5b6102c66102c1366004612f55565b610798565b6040519081526020015b60405180910390f35b6102ec6102e7366004613129565b610830565b60405190151581526020016102d0565b61030f61030a366004613163565b610841565b005b61032461031f3660046130ed565b6108af565b6040516102d091906134fa565b6102c67fae196802966ddb0eed808e030e9905b906ad173665ebaa4ec3254544456d188e81565b61030f610366366004612f7f565b610950565b6102c66103793660046130ed565b60009081526006602052604090206001015490565b61030f61039c366004612d8c565b6109c0565b61030f6103af366004613106565b610a57565b6102c6600381565b61030f6103ca366004613106565b610ac0565b6102c67f77fe00f5aaa81d64d9f55d8616be0398bce160f21a075e1635f854dc0c69a57281565b61030f610404366004613082565b610b3e565b6102c6600481565b61030f610c52565b6102c67fcc0ccd8bd17a2b44b8083daff945bb3afbdb74c75c0d0ade0c1d73872f3da2b781565b61045361044e366004612fb2565b610cb0565b6040516102d091906134c2565b6102ec61046e3660046130ed565b600090815260016020526040902054151590565b6102c67f5a858fceef8a0916707e3b8d20381bb4869a55f766ca6b98b79a65718c1af55c81565b60005460ff166102ec565b6102c67f7b4d2faaff6bdaace990e24462dcf2739c3533574e81f2cb36eeec6d9d91a63e81565b6102c6600281565b61030f6104f1366004612e99565b610dd9565b6102c67f7804d923f43a17d325d77e781528e0793b2edd9890ab45fc64efd7b4b427744c81565b61030f610e9f565b6102c67f2b4969f19539c2db676e85f97d2bd9db7c07cb467eb0cd96476827285a03148481565b6102c67f6a5cf4fbc764663782b6c69f42c0b62dfba03c7e30fcffbf9480a5d3db112ef581565b6102ec610581366004613106565b610efd565b6102c6600081565b61030f61059c366004612f19565b610f28565b6102c67fc9753cc6a12b1d2aa87c7b66743185706ef6ec8328f4ea4f1bb99f0cac77045781565b61030f6105d63660046130ed565b610f33565b6102c67f570fae637af42631540d61792ad6c3a38622f6396680bd058c94992df958932e81565b6102c66106103660046130ed565b60009081526001602052604090205490565b6102c67fd1b4dc7e91c020dd9a22a12df8a310edc9b278f858f001ba89798b0309dc366681565b6102c6600181565b6102ec61065f3660046130ed565b60009081526004602052604090205460ff161590565b6102c67f72275d2d7cdf971af1091b6e0e4e2863c24b00b92a68a8e7184cc5d55ff619e281565b61030f6106aa366004613106565b610fa3565b61030f6106bd366004612e99565b611003565b6102c67f8a971267dda73f2bbe888f9ed240c21afb5a5980f7b1e92aeafaad3880dac52f81565b61030f6106f73660046130ed565b6110e1565b6102c67fd241016ee141eea33ebd00967f7f7843377cf319f71a1070675110119fb86c0181565b6102ec610731366004612d59565b6001600160a01b03918216600090815260036020908152604080832093909416825291909152205460ff1690565b61030f61076d366004612e35565b61114b565b61030f610780366004613082565b611190565b61030f610793366004612f7f565b611274565b60006001600160a01b0383166108085760405162461bcd60e51b815260206004820152602a60248201527f455243313135353a2061646472657373207a65726f206973206e6f742061207660448201526930b634b21037bbb732b960b11b60648201526084015b60405180910390fd5b5060009081526002602090815260408083206001600160a01b03949094168352929052205490565b600061083b82611310565b92915050565b7f7804d923f43a17d325d77e781528e0793b2edd9890ab45fc64efd7b4b427744c61086b81611335565b61087482611342565b7ff5812106a5117622bd79cfb5006bd04706a128a2c4830dd03e5f8a17b1eb7483826040516108a391906134fa565b60405180910390a15050565b60008181526001602052604090205460609061091e5760405162461bcd60e51b815260206004820152602860248201527f455243313135353a2055524920717565727920666f72206e6f6e657869737465604482015267373a103a37b5b2b760c11b60648201526084016107ff565b600561092983611355565b60405160200161093a929190613290565b6040516020818303038152906040529050919050565b6109598161145a565b61097483828460405180602001604052806000815250611673565b60408051828152602081018490526001600160a01b0385169133917fdbba30eb0402b389513e87f51f4db2db80bed454384ec6925a24097c3548a02a91015b60405180910390a3505050565b6001600160a01b0385163314806109dc57506109dc8533610731565b610a435760405162461bcd60e51b815260206004820152603260248201527f455243313135353a207472616e736665722063616c6c6572206973206e6f74206044820152711bdddb995c881b9bdc88185c1c1c9bdd995960721b60648201526084016107ff565b610a50858585858561175e565b5050505050565b600082815260066020526040902060010154610a7281611335565b610a7c838361190b565b6040516001600160a01b038316815283907f5a06360d65acf95e98445dc834f205063424c636e65418d928cdfabc33a95399906020015b60405180910390a2505050565b6001600160a01b0381163314610b305760405162461bcd60e51b815260206004820152602f60248201527f416363657373436f6e74726f6c3a2063616e206f6e6c792072656e6f756e636560448201526e103937b632b9903337b91039b2b63360891b60648201526084016107ff565b610b3a8282611991565b5050565b828114610b5d5760405162461bcd60e51b81526004016107ff906135e2565b60005b83811015610bfa57610ba2610b9c868684818110610b8057610b8061390f565b9050602002013560009081526006602052604090206001015490565b336119f8565b610bea858583818110610bb757610bb761390f565b90506020020135848484818110610bd057610bd061390f565b9050602002016020810190610be59190612d3e565b611991565b610bf3816138b4565b9050610b60565b508383604051610c0b929190613264565b60405180910390207fde14d5e6084c46f384087d8cb38584d2d8520dd6248e6e9c14f7cdf2c8246abf8383604051610c4492919061344f565b60405180910390a250505050565b7f2b4969f19539c2db676e85f97d2bd9db7c07cb467eb0cd96476827285a031484610c7c81611335565b610c84611a5c565b6040517f7805862f689e2f13df9f062ff482ad3ad112aca9e0847911ed832e158c525b3390600090a150565b60608151835114610d155760405162461bcd60e51b815260206004820152602960248201527f455243313135353a206163636f756e747320616e6420696473206c656e677468604482015268040dad2e6dac2e8c6d60bb1b60648201526084016107ff565b600083516001600160401b03811115610d3057610d30613925565b604051908082528060200260200182016040528015610d59578160200160208202803683370190505b50905060005b8451811015610dd157610da4858281518110610d7d57610d7d61390f565b6020026020010151858381518110610d9757610d9761390f565b6020026020010151610798565b828281518110610db657610db661390f565b6020908102919091010152610dca816138b4565b9050610d5f565b509392505050565b610de38484611aae565b610e518585858080602002602001604051908101604052809392919081815260200183836020028082843760009201919091525050604080516020808902828101820190935288825290935088925087918291850190849080828437600092019190915250611aef92505050565b846001600160a01b03167fc654fa60d2a625ee021b1ac30960810e81f72997250f9fe91c3c443690c47cdf85858585604051610e90949392919061349b565b60405180910390a25050505050565b7f5a858fceef8a0916707e3b8d20381bb4869a55f766ca6b98b79a65718c1af55c610ec981611335565b610ed1611c90565b6040517f6985a02210a168e66602d3235cb6db0e70f92b3ba4d376a33c0f3d9434bff62590600090a150565b60009182526006602090815260408084206001600160a01b0393909316845291905290205460ff1690565b610b3a338383611ccd565b7fae196802966ddb0eed808e030e9905b906ad173665ebaa4ec3254544456d188e610f5d81611335565b6000828152600460205260409020805460ff191660011790556040517fb8c06629fdf17815efad9716161b539d85d816e669e6975f41df31006bd834c190600090a15050565b600082815260066020526040902060010154610fbe81611335565b610fc88383611991565b6040516001600160a01b038316815283907f76e6093c136cd7faa5a6d92b2b633f3b4595abd4a529b7a13917398355fea69490602001610ab3565b61100d8484611da6565b6110898585858080602002602001604051908101604052809392919081815260200183836020028082843760009201919091525050604080516020808902828101820190935288825290935088925087918291850190849080828437600092018290525060408051602081019091529081529250611de2915050565b846001600160a01b0316336001600160a01b03167fce8f0106078f9672a627da4c89d5493b0f7c05f59bcd228439a9698c00b1b5a7868686866040516110d2949392919061349b565b60405180910390a35050505050565b7fae196802966ddb0eed808e030e9905b906ad173665ebaa4ec3254544456d188e61110b81611335565b600082815260046020526040808220805460ff19169055517ff4d100eb5d3cef841f19482569859f9fd8276efe52b2f27bb9ff6737311e3b639190a15050565b6001600160a01b03851633148061116757506111678533610731565b6111835760405162461bcd60e51b81526004016107ff90613599565b610a508585858585611f3d565b8281146111af5760405162461bcd60e51b81526004016107ff906135e2565b60005b8381101561122a576111d2610b9c868684818110610b8057610b8061390f565b61121a8585838181106111e7576111e761390f565b905060200201358484848181106112005761120061390f565b90506020020160208101906112159190612d3e565b61190b565b611223816138b4565b90506111b2565b50838360405161123b929190613264565b60405180910390207f75769898739b7fdc3a176bbde571a58229366802081bf5a21a9736473a17d95e8383604051610c4492919061344f565b6001600160a01b03831633148061129057506112908333610731565b6112ac5760405162461bcd60e51b81526004016107ff90613599565b6112b581612079565b6112c083828461227a565b60408051828152602081018490526001600160a01b038516917f49995e5dd6158cf69ad3e9777c46755a1a826a446c6416992167462dad033b2a9101610ab3565b6001600160a01b03163b151590565b60006001600160e01b03198216637965db0b60e01b148061083b575061083b82612396565b61133f81336119f8565b50565b8051610b3a906005906020840190612b3e565b6060816113795750506040805180820190915260018152600360fc1b602082015290565b8160005b81156113a3578061138d816138b4565b915061139c9050600a836137c0565b915061137d565b6000816001600160401b038111156113bd576113bd613925565b6040519080825280601f01601f1916602001820160405280156113e7576020820181803683370190505b5090505b8415611452576113fc6001836137f3565b9150611409600a866138cf565b6114149060306137a8565b60f81b8183815181106114295761142961390f565b60200101906001600160f81b031916908160001a90535061144b600a866137c0565b94506113eb565b949350505050565b6040516f1352539517d493d31157d193d497d25160821b6020820152603081018290526114a1906050015b6040516020818303038152906040528051906020012033610efd565b156114a95750565b60c781111580156114bb575060648110155b80156114ec57506114ec7f570fae637af42631540d61792ad6c3a38622f6396680bd058c94992df958932e33610efd565b156114f45750565b61270f811115801561150857506103e88110155b801561153957506115397f8a971267dda73f2bbe888f9ed240c21afb5a5980f7b1e92aeafaad3880dac52f33610efd565b156115415750565b614e1f811115801561155557506127108110155b801561158657506115867fd241016ee141eea33ebd00967f7f7843377cf319f71a1070675110119fb86c0133610efd565b1561158e5750565b6201869f81111580156115a35750614e208110155b80156115d457506115d47f77fe00f5aaa81d64d9f55d8616be0398bce160f21a075e1635f854dc0c69a57233610efd565b156115dc5750565b62030d3f81111580156115f25750620186a08110155b801561162357506116237f6a5cf4fbc764663782b6c69f42c0b62dfba03c7e30fcffbf9480a5d3db112ef533610efd565b1561162b5750565b60405162461bcd60e51b815260206004820181905260248201527f416363657373436f6e74726f6c3a206d697373696e67206d696e7420726f6c6560448201526064016107ff565b6001600160a01b0384166116995760405162461bcd60e51b81526004016107ff90613744565b3360006116a5856123e6565b905060006116b2856123e6565b90506116c383600089858589612431565b60008681526002602090815260408083206001600160a01b038b168452909152812080548792906116f59084906137a8565b909155505060408051878152602081018790526001600160a01b03808a1692600092918716917fc3d58168c5ae7397731d063d5bbf3d657854427343f4c083240f7aacaa2d0f62910160405180910390a4611755836000898989896126d6565b50505050505050565b815183511461177f5760405162461bcd60e51b81526004016107ff906136fc565b6001600160a01b0384166117a55760405162461bcd60e51b81526004016107ff9061362a565b336117b4818787878787612431565b60005b845181101561189d5760008582815181106117d4576117d461390f565b6020026020010151905060008583815181106117f2576117f261390f565b60209081029190910181015160008481526002835260408082206001600160a01b038e1683529093529190912054909150818110156118435760405162461bcd60e51b81526004016107ff906136b2565b60008381526002602090815260408083206001600160a01b038e8116855292528083208585039055908b168252812080548492906118829084906137a8565b9250508190555050505080611896906138b4565b90506117b7565b50846001600160a01b0316866001600160a01b0316826001600160a01b03167f4a39dc06d4c0dbc64b70af90fd698a233a518aa5d07e595d983b8c0526c8f7fb87876040516118ed9291906134d5565b60405180910390a4611903818787878787612841565b505050505050565b6119158282610efd565b610b3a5760008281526006602090815260408083206001600160a01b03851684529091529020805460ff1916600117905561194d3390565b6001600160a01b0316816001600160a01b0316837f2f8788117e7eff1d82e926ec794901d17c78024a50270940304540a733656f0d60405160405180910390a45050565b61199b8282610efd565b15610b3a5760008281526006602090815260408083206001600160a01b0385168085529252808320805460ff1916905551339285917ff6391f5c32d9c69d2a47ea670b442974b53935d1edc7fd64eb21e047a839171b9190a45050565b611a028282610efd565b610b3a57611a1a816001600160a01b0316601461290b565b611a2583602061290b565b604051602001611a36929190613337565b60408051601f198184030181529082905262461bcd60e51b82526107ff916004016134fa565b611a64612aad565b6000805460ff191690557f5db9ee0a495bf2e6ff9c91a7834c1ba4fdd244a5e8aa4e537bd38aeae4b073aa335b6040516001600160a01b03909116815260200160405180910390a1565b60005b81811015611aea57611ada838383818110611ace57611ace61390f565b90506020020135612079565b611ae3816138b4565b9050611ab1565b505050565b6001600160a01b038316611b155760405162461bcd60e51b81526004016107ff9061366f565b8051825114611b365760405162461bcd60e51b81526004016107ff906136fc565b6000339050611b5981856000868660405180602001604052806000815250612431565b60005b8351811015611c21576000848281518110611b7957611b7961390f565b602002602001015190506000848381518110611b9757611b9761390f565b60209081029190910181015160008481526002835260408082206001600160a01b038c168352909352919091205490915081811015611be85760405162461bcd60e51b81526004016107ff90613555565b60009283526002602090815260408085206001600160a01b038b1686529091529092209103905580611c19816138b4565b915050611b5c565b5060006001600160a01b0316846001600160a01b0316826001600160a01b03167f4a39dc06d4c0dbc64b70af90fd698a233a518aa5d07e595d983b8c0526c8f7fb8686604051611c729291906134d5565b60405180910390a46040805160208101909152600090525b50505050565b611c98612af8565b6000805460ff191660011790557f62e78cea01bee320cd4e420270b5ea74000d11b0c9f74754ebdbfc544b05a258611a913390565b816001600160a01b0316836001600160a01b03161415611d415760405162461bcd60e51b815260206004820152602960248201527f455243313135353a2073657474696e6720617070726f76616c20737461747573604482015268103337b91039b2b63360b91b60648201526084016107ff565b6001600160a01b03838116600081815260036020908152604080832094871680845294825291829020805460ff191686151590811790915591519182527f17307eab39ab6107e8899845ad3d59bd9653f200f220920489ca2b5937696c3191016109b3565b60005b81811015611aea57611dd2838383818110611dc657611dc661390f565b9050602002013561145a565b611ddb816138b4565b9050611da9565b6001600160a01b038416611e085760405162461bcd60e51b81526004016107ff90613744565b8151835114611e295760405162461bcd60e51b81526004016107ff906136fc565b33611e3981600087878787612431565b60005b8451811015611ed557838181518110611e5757611e5761390f565b602002602001015160026000878481518110611e7557611e7561390f565b602002602001015181526020019081526020016000206000886001600160a01b03166001600160a01b031681526020019081526020016000206000828254611ebd91906137a8565b90915550819050611ecd816138b4565b915050611e3c565b50846001600160a01b031660006001600160a01b0316826001600160a01b03167f4a39dc06d4c0dbc64b70af90fd698a233a518aa5d07e595d983b8c0526c8f7fb8787604051611f269291906134d5565b60405180910390a4610a5081600087878787612841565b6001600160a01b038416611f635760405162461bcd60e51b81526004016107ff9061362a565b336000611f6f856123e6565b90506000611f7c856123e6565b9050611f8c838989858589612431565b60008681526002602090815260408083206001600160a01b038c16845290915290205485811015611fcf5760405162461bcd60e51b81526004016107ff906136b2565b60008781526002602090815260408083206001600160a01b038d8116855292528083208985039055908a1682528120805488929061200e9084906137a8565b909155505060408051888152602081018890526001600160a01b03808b16928c821692918816917fc3d58168c5ae7397731d063d5bbf3d657854427343f4c083240f7aacaa2d0f62910160405180910390a461206e848a8a8a8a8a6126d6565b505050505050505050565b6040516f1095549397d493d31157d193d497d25160821b6020820152603081018290526120a890605001611485565b156120b05750565b60c781111580156120c2575060648110155b80156120f357506120f37fcc0ccd8bd17a2b44b8083daff945bb3afbdb74c75c0d0ade0c1d73872f3da2b733610efd565b156120fb5750565b61270f811115801561210f57506103e88110155b801561214057506121407fc9753cc6a12b1d2aa87c7b66743185706ef6ec8328f4ea4f1bb99f0cac77045733610efd565b156121485750565b614e1f811115801561215c57506127108110155b801561218d575061218d7f7b4d2faaff6bdaace990e24462dcf2739c3533574e81f2cb36eeec6d9d91a63e33610efd565b156121955750565b6201869f81111580156121aa5750614e208110155b80156121db57506121db7fd1b4dc7e91c020dd9a22a12df8a310edc9b278f858f001ba89798b0309dc366633610efd565b156121e35750565b62030d3f81111580156121f95750620186a08110155b801561222a575061222a7f72275d2d7cdf971af1091b6e0e4e2863c24b00b92a68a8e7184cc5d55ff619e233610efd565b156122325750565b60405162461bcd60e51b815260206004820181905260248201527f416363657373436f6e74726f6c3a206d697373696e67206275726e20726f6c6560448201526064016107ff565b6001600160a01b0383166122a05760405162461bcd60e51b81526004016107ff9061366f565b3360006122ac846123e6565b905060006122b9846123e6565b90506122d983876000858560405180602001604052806000815250612431565b60008581526002602090815260408083206001600160a01b038a1684529091529020548481101561231c5760405162461bcd60e51b81526004016107ff90613555565b60008681526002602090815260408083206001600160a01b038b81168086529184528285208a8703905582518b81529384018a90529092908816917fc3d58168c5ae7397731d063d5bbf3d657854427343f4c083240f7aacaa2d0f62910160405180910390a4604080516020810190915260009052611755565b60006001600160e01b03198216636cdb3d1360e11b14806123c757506001600160e01b031982166303a24d0760e21b145b8061083b57506301ffc9a760e01b6001600160e01b031983161461083b565b604080516001808252818301909252606091600091906020808301908036833701905050905082816000815181106124205761242061390f565b602090810291909101015292915050565b60005460ff16156124995760405162461bcd60e51b815260206004820152602c60248201527f455243313135355061757361626c653a20746f6b656e207472616e736665722060448201526b1dda1a5b19481c185d5cd95960a21b60648201526084016107ff565b6001600160a01b038516158015906124b957506001600160a01b03841615155b1561255d5760005b835181101561255b57600460008583815181106124e0576124e061390f565b60209081029190910181015182528101919091526040016000205460ff161561254b5760405162461bcd60e51b815260206004820152601f60248201527f455243313135353a20746f6b656e206e6f74207472616e7366657261626c650060448201526064016107ff565b612554816138b4565b90506124c1565b505b6001600160a01b0385166125e45760005b83518110156125e2578281815181106125895761258961390f565b6020026020010151600160008684815181106125a7576125a761390f565b6020026020010151815260200190815260200160002060008282546125cc91906137a8565b909155506125db9050816138b4565b905061256e565b505b6001600160a01b0384166119035760005b83518110156117555760008482815181106126125761261261390f565b6020026020010151905060008483815181106126305761263061390f565b60200260200101519050600060016000848152602001908152602001600020549050818110156126b35760405162461bcd60e51b815260206004820152602860248201527f455243313135353a206275726e20616d6f756e74206578636565647320746f74604482015267616c537570706c7960c01b60648201526084016107ff565b600092835260016020526040909220910390556126cf816138b4565b90506125f5565b6001600160a01b0384163b156119035760405163f23a6e6160e01b81526001600160a01b0385169063f23a6e619061271a908990899088908890889060040161340a565b602060405180830381600087803b15801561273457600080fd5b505af1925050508015612764575060408051601f3d908101601f1916820190925261276191810190613146565b60015b6128115761277061393b565b806308c379a014156127aa5750612785613957565b8061279057506127ac565b8060405162461bcd60e51b81526004016107ff91906134fa565b505b60405162461bcd60e51b815260206004820152603460248201527f455243313135353a207472616e7366657220746f206e6f6e20455243313135356044820152732932b1b2b4bb32b91034b6b83632b6b2b73a32b960611b60648201526084016107ff565b6001600160e01b0319811663f23a6e6160e01b146117555760405162461bcd60e51b81526004016107ff9061350d565b6001600160a01b0384163b156119035760405163bc197c8160e01b81526001600160a01b0385169063bc197c819061288590899089908890889088906004016133ac565b602060405180830381600087803b15801561289f57600080fd5b505af19250505080156128cf575060408051601f3d908101601f191682019092526128cc91810190613146565b60015b6128db5761277061393b565b6001600160e01b0319811663bc197c8160e01b146117555760405162461bcd60e51b81526004016107ff9061350d565b6060600061291a8360026137d4565b6129259060026137a8565b6001600160401b0381111561293c5761293c613925565b6040519080825280601f01601f191660200182016040528015612966576020820181803683370190505b509050600360fc1b816000815181106129815761298161390f565b60200101906001600160f81b031916908160001a905350600f60fb1b816001815181106129b0576129b061390f565b60200101906001600160f81b031916908160001a90535060006129d48460026137d4565b6129df9060016137a8565b90505b6001811115612a57576f181899199a1a9b1b9c1cb0b131b232b360811b85600f1660108110612a1357612a1361390f565b1a60f81b828281518110612a2957612a2961390f565b60200101906001600160f81b031916908160001a90535060049490941c93612a5081613836565b90506129e2565b508315612aa65760405162461bcd60e51b815260206004820181905260248201527f537472696e67733a20686578206c656e67746820696e73756666696369656e7460448201526064016107ff565b9392505050565b60005460ff16612af65760405162461bcd60e51b815260206004820152601460248201527314185d5cd8589b194e881b9bdd081c185d5cd95960621b60448201526064016107ff565b565b60005460ff1615612af65760405162461bcd60e51b815260206004820152601060248201526f14185d5cd8589b194e881c185d5cd95960821b60448201526064016107ff565b828054612b4a9061384d565b90600052602060002090601f016020900481019282612b6c5760008555612bb2565b82601f10612b8557805160ff1916838001178555612bb2565b82800160010185558215612bb2579182015b82811115612bb2578251825591602001919060010190612b97565b50612bbe929150612bc2565b5090565b5b80821115612bbe5760008155600101612bc3565b60006001600160401b03831115612bf057612bf0613925565b604051612c07601f8501601f191660200182613888565b809150838152848484011115612c1c57600080fd5b83836020830137600060208583010152509392505050565b600081356001600160a81b0381168114612c4d57600080fd5b6001600160a01b031692915050565b60008083601f840112612c6e57600080fd5b5081356001600160401b03811115612c8557600080fd5b6020830191508360208260051b8501011115612ca057600080fd5b9250929050565b600082601f830112612cb857600080fd5b81356020612cc582613785565b604051612cd28282613888565b8381528281019150858301600585901b87018401881015612cf257600080fd5b60005b85811015612d1157813584529284019290840190600101612cf5565b5090979650505050505050565b600082601f830112612d2f57600080fd5b612aa683833560208501612bd7565b600060208284031215612d5057600080fd5b612aa682612c34565b60008060408385031215612d6c57600080fd5b612d7583612c34565b9150612d8360208401612c34565b90509250929050565b600080600080600060a08688031215612da457600080fd5b612dad86612c34565b9450612dbb60208701612c34565b935060408601356001600160401b0380821115612dd757600080fd5b612de389838a01612ca7565b94506060880135915080821115612df957600080fd5b612e0589838a01612ca7565b93506080880135915080821115612e1b57600080fd5b50612e2888828901612d1e565b9150509295509295909350565b600080600080600060a08688031215612e4d57600080fd5b612e5686612c34565b9450612e6460208701612c34565b9350604086013592506060860135915060808601356001600160401b03811115612e8d57600080fd5b612e2888828901612d1e565b600080600080600060608688031215612eb157600080fd5b612eba86612c34565b945060208601356001600160401b0380821115612ed657600080fd5b612ee289838a01612c5c565b90965094506040880135915080821115612efb57600080fd5b50612f0888828901612c5c565b969995985093965092949392505050565b60008060408385031215612f2c57600080fd5b612f3583612c34565b915060208301358015158114612f4a57600080fd5b809150509250929050565b60008060408385031215612f6857600080fd5b612f7183612c34565b946020939093013593505050565b600080600060608486031215612f9457600080fd5b612f9d84612c34565b95602085013595506040909401359392505050565b60008060408385031215612fc557600080fd5b82356001600160401b0380821115612fdc57600080fd5b818501915085601f830112612ff057600080fd5b81356020612ffd82613785565b60405161300a8282613888565b8381528281019150858301600585901b870184018b101561302a57600080fd5b600096505b848710156130545761304081612c34565b83526001969096019591830191830161302f565b509650508601359250508082111561306b57600080fd5b5061307885828601612ca7565b9150509250929050565b6000806000806040858703121561309857600080fd5b84356001600160401b03808211156130af57600080fd5b6130bb88838901612c5c565b909650945060208701359150808211156130d457600080fd5b506130e187828801612c5c565b95989497509550505050565b6000602082840312156130ff57600080fd5b5035919050565b6000806040838503121561311957600080fd5b82359150612d8360208401612c34565b60006020828403121561313b57600080fd5b8135612aa6816139e0565b60006020828403121561315857600080fd5b8151612aa6816139e0565b60006020828403121561317557600080fd5b81356001600160401b0381111561318b57600080fd5b8201601f8101841361319c57600080fd5b61145284823560208401612bd7565b81835260006001600160fb1b038311156131c457600080fd5b8260051b8083602087013760009401602001938452509192915050565b600081518084526020808501945080840160005b83811015613211578151875295820195908201906001016131f5565b509495945050505050565b6000815180845261323481602086016020860161380a565b601f01601f19169290920160200192915050565b6000815161325a81856020860161380a565b9290920192915050565b60006001600160fb1b0383111561327a57600080fd5b8260051b80858437600092019182525092915050565b600080845481600182811c9150808316806132ac57607f831692505b60208084108214156132cc57634e487b7160e01b86526022600452602486fd5b8180156132e057600181146132f15761331e565b60ff1986168952848901965061331e565b60008b81526020902060005b868110156133165781548b8201529085019083016132fd565b505084890196505b50505050505061332e8185613248565b95945050505050565b7f416363657373436f6e74726f6c3a206163636f756e742000000000000000000081526000835161336f81601785016020880161380a565b7001034b99036b4b9b9b4b733903937b6329607d1b60179184019182015283516133a081602884016020880161380a565b01602801949350505050565b6001600160a01b0386811682528516602082015260a0604082018190526000906133d8908301866131e1565b82810360608401526133ea81866131e1565b905082810360808401526133fe818561321c565b98975050505050505050565b6001600160a01b03868116825285166020820152604081018490526060810183905260a0608082018190526000906134449083018461321c565b979650505050505050565b60208082528181018390526000908460408401835b86811015613490576001600160a01b0361347d84612c34565b1682529183019190830190600101613464565b509695505050505050565b6040815260006134af6040830186886131ab565b82810360208401526134448185876131ab565b602081526000612aa660208301846131e1565b6040815260006134e860408301856131e1565b828103602084015261332e81856131e1565b602081526000612aa6602083018461321c565b60208082526028908201527f455243313135353a204552433131353552656365697665722072656a656374656040820152676420746f6b656e7360c01b606082015260800190565b60208082526024908201527f455243313135353a206275726e20616d6f756e7420657863656564732062616c604082015263616e636560e01b606082015260800190565b60208082526029908201527f455243313135353a2063616c6c6572206973206e6f74206f776e6572206e6f7260408201526808185c1c1c9bdd995960ba1b606082015260800190565b60208082526028908201527f416363657373436f6e74726f6c3a206172726179206f6620646966666572656e6040820152670e840d8cadccee8d60c31b606082015260800190565b60208082526025908201527f455243313135353a207472616e7366657220746f20746865207a65726f206164604082015264647265737360d81b606082015260800190565b60208082526023908201527f455243313135353a206275726e2066726f6d20746865207a65726f206164647260408201526265737360e81b606082015260800190565b6020808252602a908201527f455243313135353a20696e73756666696369656e742062616c616e636520666f60408201526939103a3930b739b332b960b11b606082015260800190565b60208082526028908201527f455243313135353a2069647320616e6420616d6f756e7473206c656e677468206040820152670dad2e6dac2e8c6d60c31b606082015260800190565b60208082526021908201527f455243313135353a206d696e7420746f20746865207a65726f206164647265736040820152607360f81b606082015260800190565b60006001600160401b0382111561379e5761379e613925565b5060051b60200190565b600082198211156137bb576137bb6138e3565b500190565b6000826137cf576137cf6138f9565b500490565b60008160001904831182151516156137ee576137ee6138e3565b500290565b600082821015613805576138056138e3565b500390565b60005b8381101561382557818101518382015260200161380d565b83811115611c8a5750506000910152565b600081613845576138456138e3565b506000190190565b600181811c9082168061386157607f821691505b6020821081141561388257634e487b7160e01b600052602260045260246000fd5b50919050565b601f8201601f191681016001600160401b03811182821017156138ad576138ad613925565b6040525050565b60006000198214156138c8576138c86138e3565b5060010190565b6000826138de576138de6138f9565b500690565b634e487b7160e01b600052601160045260246000fd5b634e487b7160e01b600052601260045260246000fd5b634e487b7160e01b600052603260045260246000fd5b634e487b7160e01b600052604160045260246000fd5b600060033d11156139545760046000803e5060005160e01c5b90565b600060443d10156139655790565b6040516003193d81016004833e81513d6001600160401b03816024840111818411171561399457505050505090565b82850191508151818111156139ac5750505050505090565b843d87010160208285010111156139c65750505050505090565b6139d560208286010187613888565b509095945050505050565b6001600160e01b03198116811461133f57600080fdfea26474726f6e5822122071dec00d2f3965bd5fde7e657c99690e4ba7985e6ab4004be000cc94f0d6fc8b64736f6c63430008060033",
  "source": "// SPDX-License-Identifier: unlicense\r\npragma solidity ^0.8.0;\r\n\r\nimport \"@openzeppelin/contracts/access/AccessControl.sol\";\r\nimport \"./ERC1155Custom.sol\";\r\n\r\n/**\r\n * @title Space Pirates Tokens Contract\r\n * @author @Gr3it, @yuripaoloni, @MatteoLeonesi\r\n * @notice Store all the tokens data and give to other contract permission to implements logic on top of the tokens\r\n */\r\n\r\ncontract SpacePiratesTokens is ERC1155Custom, AccessControl {\r\n    /**\r\n     * Tokens' Ids distribution\r\n     *       1 -      99 Projects tokens\r\n     *     100 -     199 Wrapped tokens\r\n     *   1 000 -   9 999 Items\r\n     *  10 000 -  19 999 Titles\r\n     *  20 000 -  99 999 Decorations\r\n     * 100 000 - 199 999 Battle Fields\r\n     */\r\n    uint256 public constant DOUBLOONS = 1;\r\n    uint256 public constant ASTEROIDS = 2;\r\n    uint256 public constant VE_ASTEROIDS = 3;\r\n    uint256 public constant STK_ASTEROIDS = 4;\r\n\r\n    // Minting role = keccak256(abi.encodePacked(\"MINT_ROLE_FOR_ID\",id));\r\n    // Burning role = keccak256(abi.encodePacked(\"BURN_ROLE_FOR_ID\",id));\r\n    bytes32 public constant WRAPPED_MINT_ROLE = keccak256(\"WRAPPED_MINT_ROLE\");\r\n    bytes32 public constant WRAPPED_BURN_ROLE = keccak256(\"WRAPPED_BURN_ROLE\");\r\n    bytes32 public constant ITEMS_MINT_ROLE = keccak256(\"ITEMS_MINT_ROLE\");\r\n    bytes32 public constant ITEMS_BURN_ROLE = keccak256(\"ITEMS_BURN_ROLE\");\r\n    bytes32 public constant TITLES_MINT_ROLE = keccak256(\"TITLES_MINT_ROLE\");\r\n    bytes32 public constant TITLES_BURN_ROLE = keccak256(\"TITLES_BURN_ROLE\");\r\n    bytes32 public constant DECORATIONS_MINT_ROLE =\r\n        keccak256(\"DECORATIONS_MINT_ROLE\");\r\n    bytes32 public constant DECORATIONS_BURN_ROLE =\r\n        keccak256(\"DECORATIONS_BURN_ROLE\");\r\n    bytes32 public constant BF_MINT_ROLE = keccak256(\"BF_MINT_ROLE\");\r\n    bytes32 public constant BF_BURN_ROLE = keccak256(\"BF_BURN_ROLE\");\r\n\r\n    bytes32 public constant URI_SETTER_ROLE = keccak256(\"URI_SETTER_ROLE\");\r\n    bytes32 public constant CAN_PAUSE_ROLE = keccak256(\"CAN_PAUSE_ROLE\");\r\n    bytes32 public constant CAN_UNPAUSE_ROLE = keccak256(\"CAN_UNPAUSE_ROLE\");\r\n    bytes32 public constant TRANSFERABLE_SETTER_ROLE =\r\n        keccak256(\"TRANSFERABLE_SETTER_ROLE\");\r\n\r\n    event Mint(\r\n        address indexed sender,\r\n        uint256 id,\r\n        uint256 amount,\r\n        address indexed to\r\n    );\r\n    event Burn(address indexed sender, uint256 id, uint256 amount);\r\n    event MintBatch(\r\n        address indexed sender,\r\n        uint256[] ids,\r\n        uint256[] amounts,\r\n        address indexed to\r\n    );\r\n    event BurnBatch(address indexed sender, uint256[] ids, uint256[] amounts);\r\n    event GrantRole(bytes32 indexed role, address account);\r\n    event RevokeRole(bytes32 indexed role, address account);\r\n    event GrantMultiRole(bytes32[] indexed roles, address[] accounts);\r\n    event RevokeMultiRole(bytes32[] indexed roles, address[] accounts);\r\n    event RenounceRole(bytes32 indexed role, address account);\r\n    event Pause();\r\n    event Unpause();\r\n    event LockTokenTransfer();\r\n    event UnLockTokenTransfer();\r\n    event UriUpdate(string newUri);\r\n\r\n    constructor(string memory uri) ERC1155Custom(uri) {\r\n        _mint(msg.sender, DOUBLOONS, 1_000_000 * (10**18), \"\");\r\n        _mint(msg.sender, ASTEROIDS, 100 * (10**18), \"\");\r\n\r\n        _setupRole(DEFAULT_ADMIN_ROLE, msg.sender);\r\n    }\r\n\r\n    function supportsInterface(bytes4 interfaceId)\r\n        public\r\n        view\r\n        virtual\r\n        override(ERC1155Custom, AccessControl)\r\n        returns (bool)\r\n    {\r\n        return super.supportsInterface(interfaceId);\r\n    }\r\n\r\n    function setURI(string memory newUri) public onlyRole(URI_SETTER_ROLE) {\r\n        _setURI(newUri);\r\n        emit UriUpdate(newUri);\r\n    }\r\n\r\n    function lockTokenTransfer(uint256 id)\r\n        public\r\n        onlyRole(TRANSFERABLE_SETTER_ROLE)\r\n    {\r\n        _setTrasferBlock(id, true);\r\n        emit LockTokenTransfer();\r\n    }\r\n\r\n    function unLockTokenTransfer(uint256 id)\r\n        public\r\n        onlyRole(TRANSFERABLE_SETTER_ROLE)\r\n    {\r\n        _setTrasferBlock(id, false);\r\n        emit UnLockTokenTransfer();\r\n    }\r\n\r\n    function pause() public onlyRole(CAN_PAUSE_ROLE) {\r\n        _pause();\r\n        emit Pause();\r\n    }\r\n\r\n    function unpause() public onlyRole(CAN_UNPAUSE_ROLE) {\r\n        _unpause();\r\n        emit Unpause();\r\n    }\r\n\r\n    function mint(\r\n        address to,\r\n        uint256 amount,\r\n        uint256 id\r\n    ) public {\r\n        _checkMintRole(id);\r\n        _mint(to, id, amount, \"\");\r\n        emit Mint(msg.sender, id, amount, to);\r\n    }\r\n\r\n    function burn(\r\n        address from,\r\n        uint256 amount,\r\n        uint256 id\r\n    ) public {\r\n        require(\r\n            from == _msgSender() || isApprovedForAll(from, _msgSender()),\r\n            \"ERC1155: caller is not owner nor approved\"\r\n        );\r\n        _checkBurnRole(id);\r\n        _burn(from, id, amount);\r\n        emit Burn(from, id, amount);\r\n    }\r\n\r\n    function mintBatch(\r\n        address to,\r\n        uint256[] calldata ids,\r\n        uint256[] calldata amounts\r\n    ) public {\r\n        _checkMintBatchRole(ids);\r\n        _mintBatch(to, ids, amounts, \"\");\r\n        emit MintBatch(msg.sender, ids, amounts, to);\r\n    }\r\n\r\n    function burnBatch(\r\n        address from,\r\n        uint256[] calldata ids,\r\n        uint256[] calldata amounts\r\n    ) public {\r\n        _checkBurnBatchRole(ids);\r\n        _burnBatch(from, ids, amounts);\r\n        emit BurnBatch(from, ids, amounts);\r\n    }\r\n\r\n    function grantRole(bytes32 role, address account)\r\n        public\r\n        override\r\n        onlyRole(getRoleAdmin(role))\r\n    {\r\n        _grantRole(role, account);\r\n        emit GrantRole(role, account);\r\n    }\r\n\r\n    function revokeRole(bytes32 role, address account)\r\n        public\r\n        override\r\n        onlyRole(getRoleAdmin(role))\r\n    {\r\n        _revokeRole(role, account);\r\n        emit RevokeRole(role, account);\r\n    }\r\n\r\n    function grantMultiRole(\r\n        bytes32[] calldata roles,\r\n        address[] calldata accounts\r\n    ) public {\r\n        require(\r\n            roles.length == accounts.length,\r\n            \"AccessControl: array of different length\"\r\n        );\r\n        for (uint256 i = 0; i < roles.length; ++i) {\r\n            _checkRole(getRoleAdmin(roles[i]), msg.sender);\r\n            _grantRole(roles[i], accounts[i]);\r\n        }\r\n        emit GrantMultiRole(roles, accounts);\r\n    }\r\n\r\n    function revokeMultiRole(\r\n        bytes32[] calldata roles,\r\n        address[] calldata accounts\r\n    ) public {\r\n        require(\r\n            roles.length == accounts.length,\r\n            \"AccessControl: array of different length\"\r\n        );\r\n        for (uint256 i = 0; i < roles.length; ++i) {\r\n            _checkRole(getRoleAdmin(roles[i]), msg.sender);\r\n            _revokeRole(roles[i], accounts[i]);\r\n        }\r\n        emit RevokeMultiRole(roles, accounts);\r\n    }\r\n\r\n    function _checkMintRole(uint256 id) internal view {\r\n        if (\r\n            hasRole(\r\n                keccak256(abi.encodePacked(\"MINT_ROLE_FOR_ID\", id)),\r\n                msg.sender\r\n            )\r\n        ) return;\r\n        if (id <= 199 && id >= 100 && hasRole(WRAPPED_MINT_ROLE, msg.sender))\r\n            return;\r\n        if (id <= 9_999 && id >= 1_000 && hasRole(ITEMS_MINT_ROLE, msg.sender))\r\n            return;\r\n        if (\r\n            id <= 19_999 &&\r\n            id >= 10_000 &&\r\n            hasRole(TITLES_MINT_ROLE, msg.sender)\r\n        ) return;\r\n        if (\r\n            id <= 99_999 &&\r\n            id >= 20_000 &&\r\n            hasRole(DECORATIONS_MINT_ROLE, msg.sender)\r\n        ) return;\r\n        if (id <= 199_999 && id >= 100_000 && hasRole(BF_MINT_ROLE, msg.sender))\r\n            return;\r\n        revert(\"AccessControl: missing mint role\");\r\n    }\r\n\r\n    function _checkBurnRole(uint256 id) internal view {\r\n        if (\r\n            hasRole(\r\n                keccak256(abi.encodePacked(\"BURN_ROLE_FOR_ID\", id)),\r\n                msg.sender\r\n            )\r\n        ) return;\r\n        if (id <= 199 && id >= 100 && hasRole(WRAPPED_BURN_ROLE, msg.sender))\r\n            return;\r\n        if (id <= 9_999 && id >= 1_000 && hasRole(ITEMS_BURN_ROLE, msg.sender))\r\n            return;\r\n        if (\r\n            id <= 19_999 &&\r\n            id >= 10_000 &&\r\n            hasRole(TITLES_BURN_ROLE, msg.sender)\r\n        ) return;\r\n        if (\r\n            id <= 99_999 &&\r\n            id >= 20_000 &&\r\n            hasRole(DECORATIONS_BURN_ROLE, msg.sender)\r\n        ) return;\r\n        if (id <= 199_999 && id >= 100_000 && hasRole(BF_BURN_ROLE, msg.sender))\r\n            return;\r\n        revert(\"AccessControl: missing burn role\");\r\n    }\r\n\r\n    function _checkMintBatchRole(uint256[] calldata ids) internal view {\r\n        for (uint256 i = 0; i < ids.length; ++i) {\r\n            _checkMintRole(ids[i]);\r\n        }\r\n    }\r\n\r\n    function _checkBurnBatchRole(uint256[] calldata ids) internal view {\r\n        for (uint256 i = 0; i < ids.length; ++i) {\r\n            _checkBurnRole(ids[i]);\r\n        }\r\n    }\r\n}\r\n",
  "sourcePath": "C:/Users/emanu/space-pirates-tronbox/contracts/SpacePiratesTokens.sol",
  "compiler": {
    "name": "solc",
    "version": "0.8.6+commit.0e36fba0.mod.Emscripten.clang"
  },
  "schemaVersion": "2.0.1",
  "updatedAt": "2022-07-16T14:55:56.155Z"
}