{
  "contractName": "SpacePiratesFaucet",
  "abi": [
    {
      "inputs": [
        {
          "internalType": "contract SpacePiratesTokens",
          "name": "_tokenContract",
          "type": "address"
        }
      ],
      "stateMutability": "nonpayable",
      "type": "constructor"
    },
    {
      "anonymous": false,
      "inputs": [
        {
          "indexed": true,
          "internalType": "address",
          "name": "to",
          "type": "address"
        },
        {
          "indexed": false,
          "internalType": "uint256",
          "name": "value",
          "type": "uint256"
        }
      ],
      "name": "AsteroidsMint",
      "type": "event"
    },
    {
      "anonymous": false,
      "inputs": [
        {
          "indexed": true,
          "internalType": "address",
          "name": "to",
          "type": "address"
        },
        {
          "indexed": false,
          "internalType": "uint256",
          "name": "value",
          "type": "uint256"
        }
      ],
      "name": "DoubloonsMint",
      "type": "event"
    },
    {
      "anonymous": false,
      "inputs": [
        {
          "indexed": false,
          "internalType": "uint256",
          "name": "mintLimit",
          "type": "uint256"
        }
      ],
      "name": "MintLimitUpdate",
      "type": "event"
    },
    {
      "anonymous": false,
      "inputs": [
        {
          "indexed": true,
          "internalType": "address",
          "name": "previousOwner",
          "type": "address"
        },
        {
          "indexed": true,
          "internalType": "address",
          "name": "newOwner",
          "type": "address"
        }
      ],
      "name": "OwnershipTransferred",
      "type": "event"
    },
    {
      "inputs": [],
      "name": "ASTEROIDS",
      "outputs": [
        {
          "internalType": "uint256",
          "name": "",
          "type": "uint256"
        }
      ],
      "stateMutability": "view",
      "type": "function"
    },
    {
      "inputs": [],
      "name": "DOUBLOONS",
      "outputs": [
        {
          "internalType": "uint256",
          "name": "",
          "type": "uint256"
        }
      ],
      "stateMutability": "view",
      "type": "function"
    },
    {
      "inputs": [
        {
          "internalType": "uint256",
          "name": "_amount",
          "type": "uint256"
        }
      ],
      "name": "mintAsteroids",
      "outputs": [],
      "stateMutability": "nonpayable",
      "type": "function"
    },
    {
      "inputs": [
        {
          "internalType": "uint256",
          "name": "_amount",
          "type": "uint256"
        }
      ],
      "name": "mintDoubloons",
      "outputs": [],
      "stateMutability": "nonpayable",
      "type": "function"
    },
    {
      "inputs": [],
      "name": "mintLimit",
      "outputs": [
        {
          "internalType": "uint256",
          "name": "",
          "type": "uint256"
        }
      ],
      "stateMutability": "view",
      "type": "function"
    },
    {
      "inputs": [
        {
          "internalType": "address",
          "name": "",
          "type": "address"
        }
      ],
      "name": "mintedAsteroids",
      "outputs": [
        {
          "internalType": "uint256",
          "name": "",
          "type": "uint256"
        }
      ],
      "stateMutability": "view",
      "type": "function"
    },
    {
      "inputs": [
        {
          "internalType": "address",
          "name": "",
          "type": "address"
        }
      ],
      "name": "mintedDoubloons",
      "outputs": [
        {
          "internalType": "uint256",
          "name": "",
          "type": "uint256"
        }
      ],
      "stateMutability": "view",
      "type": "function"
    },
    {
      "inputs": [],
      "name": "owner",
      "outputs": [
        {
          "internalType": "address",
          "name": "",
          "type": "address"
        }
      ],
      "stateMutability": "view",
      "type": "function"
    },
    {
      "inputs": [],
      "name": "renounceOwnership",
      "outputs": [],
      "stateMutability": "nonpayable",
      "type": "function"
    },
    {
      "inputs": [
        {
          "internalType": "uint256",
          "name": "_mintLimit",
          "type": "uint256"
        }
      ],
      "name": "setMintLimit",
      "outputs": [],
      "stateMutability": "nonpayable",
      "type": "function"
    },
    {
      "inputs": [],
      "name": "tokenContract",
      "outputs": [
        {
          "internalType": "contract SpacePiratesTokens",
          "name": "",
          "type": "address"
        }
      ],
      "stateMutability": "view",
      "type": "function"
    },
    {
      "inputs": [
        {
          "internalType": "address",
          "name": "newOwner",
          "type": "address"
        }
      ],
      "name": "transferOwnership",
      "outputs": [],
      "stateMutability": "nonpayable",
      "type": "function"
    }
  ],
  "bytecode": "0x60a060405261271060015534801561001657600080fd5b50d3801561002357600080fd5b50d2801561003057600080fd5b506040516108ad3803806108ad83398101604081905261004f916100bd565b6100583361006d565b60601b6001600160601b0319166080526100f6565b600080546001600160a01b038381166001600160a01b0319831681178455604051919092169283917f8be0079c531659141344cd1fd0a4f28419497f9722a3daafe3b4186f6b6457e09190a35050565b6000602082840312156100cf57600080fd5b81516001600160a81b03811681146100e657600080fd5b6001600160a01b03169392505050565b60805160601c61078b61012260003960008181610120015281816102fd0152610505015261078b6000f3fe608060405234801561001057600080fd5b50d3801561001d57600080fd5b50d2801561002a57600080fd5b50600436106100ce5760003560e01c8063996517cf1161008b578063996517cf1461017b5780639e6a1d7d14610184578063a8152c2514610197578063c68c44ff146101aa578063c7a3875c146101b2578063f2fde38b146101d257600080fd5b80631630411e146100d3578063345c31851461010657806355a373d61461011b5780636712627d1461015a578063715018a6146101625780638da5cb5b1461016a575b600080fd5b6100f36100e13660046106be565b60026020526000908152604090205481565b6040519081526020015b60405180910390f35b6101196101143660046106f7565b6101e5565b005b6101427f000000000000000000000000000000000000000000000000000000000000000081565b6040516001600160a01b0390911681526020016100fd565b6100f3600281565b61011961039b565b6000546001600160a01b0316610142565b6100f360015481565b6101196101923660046106f7565b6103af565b6101196101a53660046106f7565b6103f2565b6100f3600181565b6100f36101c03660046106be565b60036020526000908152604090205481565b6101196101e03660046106be565b61059b565b6001543360009081526003602052604090205411156102685760405162461bcd60e51b815260206004820152603460248201527f5370616365506972617465734661756365743a204d41582041535445524f494460448201527314c8135253950813125352550814915050d2115160621b60648201526084015b60405180910390fd5b60015433600090815260036020526040812054909190610289908490610710565b1161029457816102b1565b336000908152600360205260409020546001546102b19190610728565b336000908152600360205260408120805492935083929091906102d5908490610710565b9091555050604051630ab714fb60e11b815233600482015260248101829052600260448201527f00000000000000000000000000000000000000000000000000000000000000006001600160a01b03169063156e29f690606401600060405180830381600087803b15801561034957600080fd5b505af115801561035d573d6000803e3d6000fd5b50506040518381523392507f8b5e5aefef78189cf704da676f7041e9c86069e2c5132b6107d2f35935bacc8291506020015b60405180910390a25050565b6103a3610614565b6103ad600061066e565b565b6103b7610614565b60018190556040518181527f6ef14ced400642a7be08da6a9e0e9f1b7eb3fdce4ffa52083b253742ff2083ee9060200160405180910390a150565b6001543360009081526002602052604090205411156104705760405162461bcd60e51b815260206004820152603460248201527f5370616365506972617465734661756365743a204d415820444f55424c4f4f4e60448201527314c8135253950813125352550814915050d2115160621b606482015260840161025f565b60015433600090815260026020526040812054909190610491908490610710565b1161049c57816104b9565b336000908152600260205260409020546001546104b99190610728565b336000908152600260205260408120805492935083929091906104dd908490610710565b9091555050604051630ab714fb60e11b815233600482015260248101829052600160448201527f00000000000000000000000000000000000000000000000000000000000000006001600160a01b03169063156e29f690606401600060405180830381600087803b15801561055157600080fd5b505af1158015610565573d6000803e3d6000fd5b50506040518381523392507f923a4657f6fbcabb9266cbb310979c1984b0fcb9766a16c1fa118d72df9f6747915060200161038f565b6105a3610614565b6001600160a01b0381166106085760405162461bcd60e51b815260206004820152602660248201527f4f776e61626c653a206e6577206f776e657220697320746865207a65726f206160448201526564647265737360d01b606482015260840161025f565b6106118161066e565b50565b6000546001600160a01b031633146103ad5760405162461bcd60e51b815260206004820181905260248201527f4f776e61626c653a2063616c6c6572206973206e6f7420746865206f776e6572604482015260640161025f565b600080546001600160a01b038381166001600160a01b0319831681178455604051919092169283917f8be0079c531659141344cd1fd0a4f28419497f9722a3daafe3b4186f6b6457e09190a35050565b6000602082840312156106d057600080fd5b81356001600160a81b03811681146106e757600080fd5b6001600160a01b03169392505050565b60006020828403121561070957600080fd5b5035919050565b600082198211156107235761072361073f565b500190565b60008282101561073a5761073a61073f565b500390565b634e487b7160e01b600052601160045260246000fdfea26474726f6e582212201225e36362ea0b1b9f4d1b29d0c3398a3203bbf7ce962749668bdfd7d2a6e8bc64736f6c63430008060033",
  "source": "// SPDX-License-Identifier: unlicense\r\npragma solidity ^0.8.0;\r\n\r\nimport \"@openzeppelin/contracts/access/Ownable.sol\";\r\nimport \"./SpacePiratesTokens.sol\";\r\n\r\n/**\r\n * @title Space Pirates Faucet Contract\r\n * @author @yuripaoloni, @MatteoLeonesi, @Gr3it (reviewer)\r\n * @notice Mint up to 10k doubloons and asteroids to users in testnet\r\n */\r\n\r\ncontract SpacePiratesFaucet is Ownable {\r\n    SpacePiratesTokens public immutable tokenContract;\r\n\r\n    uint256 public constant DOUBLOONS = 1;\r\n    uint256 public constant ASTEROIDS = 2;\r\n\r\n    uint256 public mintLimit = 10000;\r\n\r\n    mapping(address => uint256) public mintedDoubloons;\r\n    mapping(address => uint256) public mintedAsteroids;\r\n\r\n    event MintLimitUpdate(uint256 mintLimit);\r\n    event DoubloonsMint(address indexed to, uint256 value);\r\n    event AsteroidsMint(address indexed to, uint256 value);\r\n\r\n    constructor(SpacePiratesTokens _tokenContract) {\r\n        tokenContract = _tokenContract;\r\n    }\r\n\r\n    function setMintLimit(uint256 _mintLimit) public onlyOwner {\r\n        mintLimit = _mintLimit;\r\n        emit MintLimitUpdate(mintLimit);\r\n    }\r\n\r\n    function mintDoubloons(uint256 _amount) public {\r\n        require(\r\n            mintedDoubloons[msg.sender] <= mintLimit,\r\n            \"SpacePiratesFaucet: MAX DOUBLOONS MINT LIMIT REACHED\"\r\n        );\r\n\r\n        uint256 mintableAmount = (mintedDoubloons[msg.sender] + _amount) >\r\n            mintLimit\r\n            ? mintLimit - mintedDoubloons[msg.sender]\r\n            : _amount;\r\n\r\n        mintedDoubloons[msg.sender] += mintableAmount;\r\n\r\n        tokenContract.mint(msg.sender, mintableAmount, DOUBLOONS);\r\n        emit DoubloonsMint(msg.sender, mintableAmount);\r\n    }\r\n\r\n    function mintAsteroids(uint256 _amount) public {\r\n        require(\r\n            mintedAsteroids[msg.sender] <= mintLimit,\r\n            \"SpacePiratesFaucet: MAX ASTEROIDS MINT LIMIT REACHED\"\r\n        );\r\n\r\n        uint256 mintableAmount = (mintedAsteroids[msg.sender] + _amount) >\r\n            mintLimit\r\n            ? mintLimit - mintedAsteroids[msg.sender]\r\n            : _amount;\r\n        mintedAsteroids[msg.sender] += mintableAmount;\r\n\r\n        tokenContract.mint(msg.sender, mintableAmount, ASTEROIDS);\r\n        emit AsteroidsMint(msg.sender, mintableAmount);\r\n    }\r\n}\r\n",
  "sourcePath": "C:/Users/emanu/space-pirates-tronbox/contracts/SpacePiratesFaucet.sol",
  "compiler": {
    "name": "solc",
    "version": "0.8.6+commit.0e36fba0.mod.Emscripten.clang"
  },
  "schemaVersion": "2.0.1",
  "updatedAt": "2022-07-16T14:55:56.024Z"
}