{
  "contractName": "SpacePiratesQuestRedeem",
  "abi": [
    {
      "inputs": [
        {
          "internalType": "contract SpacePiratesTokens",
          "name": "_tokenContract",
          "type": "address"
        }
      ],
      "stateMutability": "nonpayable",
      "type": "constructor"
    },
    {
      "anonymous": false,
      "inputs": [
        {
          "indexed": true,
          "internalType": "address",
          "name": "previousOwner",
          "type": "address"
        },
        {
          "indexed": true,
          "internalType": "address",
          "name": "newOwner",
          "type": "address"
        }
      ],
      "name": "OwnershipTransferred",
      "type": "event"
    },
    {
      "anonymous": false,
      "inputs": [
        {
          "indexed": false,
          "internalType": "address",
          "name": "account",
          "type": "address"
        }
      ],
      "name": "Paused",
      "type": "event"
    },
    {
      "anonymous": false,
      "inputs": [
        {
          "indexed": true,
          "internalType": "address",
          "name": "receiver",
          "type": "address"
        },
        {
          "indexed": false,
          "internalType": "string",
          "name": "questName",
          "type": "string"
        },
        {
          "indexed": false,
          "internalType": "uint256[]",
          "name": "ids",
          "type": "uint256[]"
        },
        {
          "indexed": false,
          "internalType": "uint256[]",
          "name": "amounts",
          "type": "uint256[]"
        }
      ],
      "name": "QuestClaim",
      "type": "event"
    },
    {
      "anonymous": false,
      "inputs": [
        {
          "indexed": false,
          "internalType": "address",
          "name": "account",
          "type": "address"
        }
      ],
      "name": "Unpaused",
      "type": "event"
    },
    {
      "anonymous": false,
      "inputs": [
        {
          "indexed": false,
          "internalType": "address",
          "name": "_addr",
          "type": "address"
        }
      ],
      "name": "UpdateVerifier",
      "type": "event"
    },
    {
      "inputs": [
        {
          "internalType": "string",
          "name": "questName",
          "type": "string"
        },
        {
          "internalType": "uint256[]",
          "name": "ids",
          "type": "uint256[]"
        },
        {
          "internalType": "uint256[]",
          "name": "amounts",
          "type": "uint256[]"
        },
        {
          "internalType": "bytes",
          "name": "signature",
          "type": "bytes"
        }
      ],
      "name": "claimQuest",
      "outputs": [],
      "stateMutability": "nonpayable",
      "type": "function"
    },
    {
      "inputs": [],
      "name": "owner",
      "outputs": [
        {
          "internalType": "address",
          "name": "",
          "type": "address"
        }
      ],
      "stateMutability": "view",
      "type": "function"
    },
    {
      "inputs": [],
      "name": "pause",
      "outputs": [],
      "stateMutability": "nonpayable",
      "type": "function"
    },
    {
      "inputs": [],
      "name": "paused",
      "outputs": [
        {
          "internalType": "bool",
          "name": "",
          "type": "bool"
        }
      ],
      "stateMutability": "view",
      "type": "function"
    },
    {
      "inputs": [],
      "name": "renounceOwnership",
      "outputs": [],
      "stateMutability": "nonpayable",
      "type": "function"
    },
    {
      "inputs": [
        {
          "internalType": "string",
          "name": "questName",
          "type": "string"
        },
        {
          "internalType": "uint256[]",
          "name": "ids",
          "type": "uint256[]"
        },
        {
          "internalType": "uint256[]",
          "name": "amounts",
          "type": "uint256[]"
        },
        {
          "internalType": "bytes",
          "name": "signature",
          "type": "bytes"
        }
      ],
      "name": "signatureVerification",
      "outputs": [
        {
          "internalType": "bool",
          "name": "",
          "type": "bool"
        }
      ],
      "stateMutability": "view",
      "type": "function"
    },
    {
      "inputs": [],
      "name": "tokenContract",
      "outputs": [
        {
          "internalType": "contract SpacePiratesTokens",
          "name": "",
          "type": "address"
        }
      ],
      "stateMutability": "view",
      "type": "function"
    },
    {
      "inputs": [
        {
          "internalType": "address",
          "name": "newOwner",
          "type": "address"
        }
      ],
      "name": "transferOwnership",
      "outputs": [],
      "stateMutability": "nonpayable",
      "type": "function"
    },
    {
      "inputs": [],
      "name": "unpause",
      "outputs": [],
      "stateMutability": "nonpayable",
      "type": "function"
    },
    {
      "inputs": [
        {
          "internalType": "address",
          "name": "_addr",
          "type": "address"
        }
      ],
      "name": "updateVerifier",
      "outputs": [],
      "stateMutability": "nonpayable",
      "type": "function"
    },
    {
      "inputs": [],
      "name": "verifier",
      "outputs": [
        {
          "internalType": "address",
          "name": "",
          "type": "address"
        }
      ],
      "stateMutability": "view",
      "type": "function"
    }
  ],
  "bytecode": "0x61016060405234801561001157600080fd5b50d3801561001e57600080fd5b50d2801561002b57600080fd5b5060405161124a38038061124a83398101604081905261004a916101aa565b6040518060400160405280600d81526020016c5370616365205069726174657360981b815250604051806040016040528060018152602001603160f81b8152506100a061009b61015660201b60201c565b61015a565b815160209283012081519183019190912060e08290526101008190524660a0818152604080517f8b73c3c69bb8fe3d512ecc4cf759cc79239f7b179b0ffacaa9a75d522b39400f81880181905281830196909652606081810195909552608080820194909452308184018190528251808303909401845260c091820190925282519290960191909120909152811b909252610120526000805460ff60a01b191690551b6001600160601b031916610140526101e3565b3390565b600080546001600160a01b038381166001600160a01b0319831681178455604051919092169283917f8be0079c531659141344cd1fd0a4f28419497f9722a3daafe3b4186f6b6457e09190a35050565b6000602082840312156101bc57600080fd5b81516001600160a81b03811681146101d357600080fd5b6001600160a01b03169392505050565b60805160a05160c05160601c60e05161010051610120516101405160601c61100061024a6000396000818161011a015261030201526000610b3c01526000610b8b01526000610b6601526000610abf01526000610ae901526000610b1301526110006000f3fe608060405234801561001057600080fd5b50d3801561001d57600080fd5b50d2801561002a57600080fd5b50600436106100c35760003560e01c8063715018a61161008b578063715018a61461015a5780637607c5a7146101625780638456cb59146101755780638da5cb5b1461017d57806397fc007c1461018e578063f2fde38b146101a157600080fd5b80632b7ac3f3146100c857806339909c7c146100f85780633f4ba83a1461010d57806355a373d6146101155780635c975abb1461013c575b600080fd5b6001546100db906001600160a01b031681565b6040516001600160a01b0390911681526020015b60405180910390f35b61010b610106366004610dbf565b6101b4565b005b61010b6103c6565b6100db7f000000000000000000000000000000000000000000000000000000000000000081565b600054600160a01b900460ff165b60405190151581526020016100ef565b61010b6103d8565b61014a610170366004610dbf565b6103ea565b61010b610466565b6000546001600160a01b03166100db565b61010b61019c366004610d86565b610476565b61010b6101af366004610d86565b6104d2565b6101bc61054b565b600282826040516101ce929190610ee5565b9081526040519081900360200190205460ff161561024a5760405162461bcd60e51b815260206004820152602e60248201527f537061636550697261746573517565737452656465656d3a207175657374206160448201526d1b1c9958591e4818db185a5b595960921b60648201526084015b60405180910390fd5b61025a88888888888888886103ea565b6102b95760405162461bcd60e51b815260206004820152602a60248201527f537061636550697261746573517565737452656465656d3a20696e76616c6964604482015269207369676e617475726560b01b6064820152608401610241565b6001600283836040516102cd929190610ee5565b908152604051908190036020018120805492151560ff199093169290921790915563d81d0a1560e01b81526001600160a01b037f0000000000000000000000000000000000000000000000000000000000000000169063d81d0a159061033f9033908a908a908a908a90600401610ef5565b600060405180830381600087803b15801561035957600080fd5b505af115801561036d573d6000803e3d6000fd5b50505050336001600160a01b03167f1625ee4faf048744cde9f17f74778ffb12c591b5579f98a734490619227ba1cd8989898989896040516103b496959493929190610f2d565b60405180910390a25050505050505050565b6103ce610598565b6103d66105f2565b565b6103e0610598565b6103d66000610647565b6000806103fc8a8a8a8a8a8a33610697565b600154604080516020601f88018190048102820181019092528681529293506001600160a01b039091169161044e91849190889088908190840183828082843760009201919091525061077c92505050565b6001600160a01b0316149a9950505050505050505050565b61046e610598565b6103d66107a0565b61047e610598565b600180546001600160a01b0319166001600160a01b0383169081179091556040519081527f99561e700fd3015a2ccffc45ee5246e31fa07462e393902c82b6f920da9576279060200160405180910390a150565b6104da610598565b6001600160a01b03811661053f5760405162461bcd60e51b815260206004820152602660248201527f4f776e61626c653a206e6577206f776e657220697320746865207a65726f206160448201526564647265737360d01b6064820152608401610241565b61054881610647565b50565b600054600160a01b900460ff16156103d65760405162461bcd60e51b815260206004820152601060248201526f14185d5cd8589b194e881c185d5cd95960821b6044820152606401610241565b6000546001600160a01b031633146103d65760405162461bcd60e51b815260206004820181905260248201527f4f776e61626c653a2063616c6c6572206973206e6f7420746865206f776e65726044820152606401610241565b6105fa6107e3565b6000805460ff60a01b191690557f5db9ee0a495bf2e6ff9c91a7834c1ba4fdd244a5e8aa4e537bd38aeae4b073aa335b6040516001600160a01b03909116815260200160405180910390a1565b600080546001600160a01b038381166001600160a01b0319831681178455604051919092169283917f8be0079c531659141344cd1fd0a4f28419497f9722a3daafe3b4186f6b6457e09190a35050565b60006107707f3d0b180452b5c323f7575f297332353f14a157752f5bf48f22427d9fcd9f3c4089896040516106cd929190610ee5565b604051809103902088886040516020016106e8929190610eb9565b604051602081830303815290604052805190602001208787604051602001610711929190610eb9565b60408051601f19818403018152828252805160209182012090830195909552810192909252606082015260808101919091526001600160a01b03841660a082015260c00160405160208183030381529060405280519060200120610833565b98975050505050505050565b600080600061078b8585610887565b91509150610798816108f7565b509392505050565b6107a861054b565b6000805460ff60a01b1916600160a01b1790557f62e78cea01bee320cd4e420270b5ea74000d11b0c9f74754ebdbfc544b05a25861062a3390565b600054600160a01b900460ff166103d65760405162461bcd60e51b815260206004820152601460248201527314185d5cd8589b194e881b9bdd081c185d5cd95960621b6044820152606401610241565b6000610881610840610ab2565b8360405161190160f01b6020820152602281018390526042810182905260009060620160405160208183030381529060405280519060200120905092915050565b92915050565b6000808251604114156108be5760208301516040840151606085015160001a6108b287828585610bd9565b945094505050506108f0565b8251604014156108e857602083015160408401516108dd868383610cc6565b9350935050506108f0565b506000905060025b9250929050565b600081600481111561090b5761090b610fb4565b14156109145750565b600181600481111561092857610928610fb4565b14156109765760405162461bcd60e51b815260206004820152601860248201527f45434453413a20696e76616c6964207369676e617475726500000000000000006044820152606401610241565b600281600481111561098a5761098a610fb4565b14156109d85760405162461bcd60e51b815260206004820152601f60248201527f45434453413a20696e76616c6964207369676e6174757265206c656e677468006044820152606401610241565b60038160048111156109ec576109ec610fb4565b1415610a455760405162461bcd60e51b815260206004820152602260248201527f45434453413a20696e76616c6964207369676e6174757265202773272076616c604482015261756560f01b6064820152608401610241565b6004816004811115610a5957610a59610fb4565b14156105485760405162461bcd60e51b815260206004820152602260248201527f45434453413a20696e76616c6964207369676e6174757265202776272076616c604482015261756560f01b6064820152608401610241565b6000306001600160a01b037f000000000000000000000000000000000000000000000000000000000000000016148015610b0b57507f000000000000000000000000000000000000000000000000000000000000000046145b15610b3557507f000000000000000000000000000000000000000000000000000000000000000090565b50604080517f00000000000000000000000000000000000000000000000000000000000000006020808301919091527f0000000000000000000000000000000000000000000000000000000000000000828401527f000000000000000000000000000000000000000000000000000000000000000060608301524660808301523060a0808401919091528351808403909101815260c0909201909252805191012090565b6000807f7fffffffffffffffffffffffffffffff5d576e7357a4501ddfe92f46681b20a0831115610c105750600090506003610cbd565b8460ff16601b14158015610c2857508460ff16601c14155b15610c395750600090506004610cbd565b6040805160008082526020820180845289905260ff881692820192909252606081018690526080810185905260019060a0016020604051602081039080840390855afa158015610c8d573d6000803e3d6000fd5b5050604051601f1901519150506001600160a01b038116610cb657600060019250925050610cbd565b9150600090505b94509492505050565b6000806001600160ff1b03831681610ce360ff86901c601b610f8e565b9050610cf187828885610bd9565b935093505050935093915050565b60008083601f840112610d1157600080fd5b50813567ffffffffffffffff811115610d2957600080fd5b6020830191508360208260051b85010111156108f057600080fd5b60008083601f840112610d5657600080fd5b50813567ffffffffffffffff811115610d6e57600080fd5b6020830191508360208285010111156108f057600080fd5b600060208284031215610d9857600080fd5b81356001600160a81b0381168114610daf57600080fd5b6001600160a01b03169392505050565b6000806000806000806000806080898b031215610ddb57600080fd5b883567ffffffffffffffff80821115610df357600080fd5b610dff8c838d01610d44565b909a50985060208b0135915080821115610e1857600080fd5b610e248c838d01610cff565b909850965060408b0135915080821115610e3d57600080fd5b610e498c838d01610cff565b909650945060608b0135915080821115610e6257600080fd5b50610e6f8b828c01610d44565b999c989b5096995094979396929594505050565b81835260006001600160fb1b03831115610e9c57600080fd5b8260051b8083602087013760009401602001938452509192915050565b60006001600160fb1b03831115610ecf57600080fd5b8260051b80858437600092019182525092915050565b8183823760009101908152919050565b6001600160a01b0386168152606060208201819052600090610f1a9083018688610e83565b8281036040840152610770818587610e83565b60608152856060820152858760808301376000608087830101526000601f19601f88011682016080838203016020840152610f6c608082018789610e83565b90508281036040840152610f81818587610e83565b9998505050505050505050565b60008219821115610faf57634e487b7160e01b600052601160045260246000fd5b500190565b634e487b7160e01b600052602160045260246000fdfea26474726f6e58221220123097d40ed1618e25d8bcc6c36bbeeb50f47460d36be849e8431c341c87ebe864736f6c63430008060033",
  "source": "// SPDX-License-Identifier: unlicense\r\npragma solidity ^0.8.0;\r\n\r\nimport \"@openzeppelin/contracts/utils/cryptography/draft-EIP712.sol\";\r\nimport \"@openzeppelin/contracts/access/Ownable.sol\";\r\nimport \"@openzeppelin/contracts/security/Pausable.sol\";\r\nimport \"./SpacePiratesTokens.sol\";\r\n\r\n/**\r\n * @title Space Pirates Quest Redeem Contract\r\n * @author @Gr3it, @yuripaoloni (reviewer), @MatteoLeonesi (reviewer)\r\n * @notice Let user claim their quest via a valid signature\r\n */\r\n\r\ncontract SpacePiratesQuestRedeem is Ownable, EIP712, Pausable {\r\n    string private constant SIGNING_DOMAIN = \"Space Pirates\";\r\n    string private constant SIGNATURE_VERSION = \"1\";\r\n\r\n    SpacePiratesTokens public immutable tokenContract;\r\n    address public verifier;\r\n\r\n    mapping(bytes => bool) claimed;\r\n\r\n    event UpdateVerifier(address _addr);\r\n    event QuestClaim(\r\n        address indexed receiver,\r\n        string questName,\r\n        uint256[] ids,\r\n        uint256[] amounts\r\n    );\r\n\r\n    constructor(SpacePiratesTokens _tokenContract)\r\n        EIP712(SIGNING_DOMAIN, SIGNATURE_VERSION)\r\n    {\r\n        tokenContract = _tokenContract;\r\n    }\r\n\r\n    function claimQuest(\r\n        string calldata questName,\r\n        uint256[] calldata ids,\r\n        uint256[] calldata amounts,\r\n        bytes calldata signature\r\n    ) public whenNotPaused {\r\n        require(\r\n            !claimed[signature],\r\n            \"SpacePiratesQuestRedeem: quest already claimed\"\r\n        );\r\n        require(\r\n            signatureVerification(questName, ids, amounts, signature),\r\n            \"SpacePiratesQuestRedeem: invalid signature\"\r\n        );\r\n        claimed[signature] = true;\r\n        tokenContract.mintBatch(msg.sender, ids, amounts);\r\n        emit QuestClaim(msg.sender, questName, ids, amounts);\r\n    }\r\n\r\n    function signatureVerification(\r\n        string calldata questName,\r\n        uint256[] calldata ids,\r\n        uint256[] calldata amounts,\r\n        bytes calldata signature\r\n    ) public view returns (bool) {\r\n        bytes32 digest = _hash(questName, ids, amounts, msg.sender);\r\n        return ECDSA.recover(digest, signature) == verifier;\r\n    }\r\n\r\n    function _hash(\r\n        string calldata questName,\r\n        uint256[] calldata ids,\r\n        uint256[] calldata amounts,\r\n        address receiver\r\n    ) internal view returns (bytes32) {\r\n        return\r\n            _hashTypedDataV4(\r\n                keccak256(\r\n                    abi.encode(\r\n                        keccak256(\r\n                            \"SpacePiratesQuest(string questName,uint256[] ids,uint256[] amounts,address receiver)\"\r\n                        ),\r\n                        keccak256(bytes(questName)),\r\n                        keccak256(abi.encodePacked(ids)),\r\n                        keccak256(abi.encodePacked(amounts)),\r\n                        receiver\r\n                    )\r\n                )\r\n            );\r\n    }\r\n\r\n    function pause() public onlyOwner {\r\n        _pause();\r\n    }\r\n\r\n    function unpause() public onlyOwner {\r\n        _unpause();\r\n    }\r\n\r\n    function updateVerifier(address _addr) public onlyOwner {\r\n        verifier = _addr;\r\n        emit UpdateVerifier(_addr);\r\n    }\r\n}\r\n",
  "sourcePath": "C:/Users/emanu/space-pirates-tronbox/contracts/SpacePiratesQuestRedeem.sol",
  "compiler": {
    "name": "solc",
    "version": "0.8.6+commit.0e36fba0.mod.Emscripten.clang"
  },
  "schemaVersion": "2.0.1",
  "updatedAt": "2022-07-16T14:55:56.027Z"
}