{
  "contractName": "SpacePiratesWrapper",
  "abi": [
    {
      "inputs": [
        {
          "internalType": "contract SpacePiratesTokens",
          "name": "_tokenContract",
          "type": "address"
        }
      ],
      "stateMutability": "nonpayable",
      "type": "constructor"
    },
    {
      "anonymous": false,
      "inputs": [
        {
          "indexed": true,
          "internalType": "address",
          "name": "_erc20contract",
          "type": "address"
        },
        {
          "indexed": false,
          "internalType": "uint256",
          "name": "id",
          "type": "uint256"
        }
      ],
      "name": "ERC20Added",
      "type": "event"
    },
    {
      "anonymous": false,
      "inputs": [
        {
          "indexed": true,
          "internalType": "address",
          "name": "from",
          "type": "address"
        },
        {
          "indexed": true,
          "internalType": "address",
          "name": "to",
          "type": "address"
        },
        {
          "indexed": true,
          "internalType": "address",
          "name": "_erc20contract",
          "type": "address"
        },
        {
          "indexed": false,
          "internalType": "uint256",
          "name": "id",
          "type": "uint256"
        },
        {
          "indexed": false,
          "internalType": "uint256",
          "name": "amount",
          "type": "uint256"
        }
      ],
      "name": "ERC20Deposited",
      "type": "event"
    },
    {
      "anonymous": false,
      "inputs": [
        {
          "indexed": true,
          "internalType": "address",
          "name": "from",
          "type": "address"
        },
        {
          "indexed": true,
          "internalType": "address",
          "name": "to",
          "type": "address"
        },
        {
          "indexed": true,
          "internalType": "address",
          "name": "_erc20contract",
          "type": "address"
        },
        {
          "indexed": false,
          "internalType": "uint256",
          "name": "id",
          "type": "uint256"
        },
        {
          "indexed": false,
          "internalType": "uint256",
          "name": "amount",
          "type": "uint256"
        }
      ],
      "name": "ERC20Withdrawn",
      "type": "event"
    },
    {
      "anonymous": false,
      "inputs": [
        {
          "indexed": true,
          "internalType": "address",
          "name": "from",
          "type": "address"
        },
        {
          "indexed": true,
          "internalType": "address",
          "name": "to",
          "type": "address"
        },
        {
          "indexed": true,
          "internalType": "uint256",
          "name": "id",
          "type": "uint256"
        },
        {
          "indexed": false,
          "internalType": "uint256",
          "name": "amount",
          "type": "uint256"
        }
      ],
      "name": "ETHDeposited",
      "type": "event"
    },
    {
      "anonymous": false,
      "inputs": [
        {
          "indexed": true,
          "internalType": "address",
          "name": "from",
          "type": "address"
        },
        {
          "indexed": true,
          "internalType": "address",
          "name": "to",
          "type": "address"
        },
        {
          "indexed": true,
          "internalType": "uint256",
          "name": "id",
          "type": "uint256"
        },
        {
          "indexed": false,
          "internalType": "uint256",
          "name": "amount",
          "type": "uint256"
        }
      ],
      "name": "ETHWithdrawn",
      "type": "event"
    },
    {
      "anonymous": false,
      "inputs": [
        {
          "indexed": true,
          "internalType": "address",
          "name": "previousOwner",
          "type": "address"
        },
        {
          "indexed": true,
          "internalType": "address",
          "name": "newOwner",
          "type": "address"
        }
      ],
      "name": "OwnershipTransferred",
      "type": "event"
    },
    {
      "anonymous": false,
      "inputs": [
        {
          "indexed": false,
          "internalType": "address",
          "name": "feeAddress",
          "type": "address"
        }
      ],
      "name": "SetFeeAddress",
      "type": "event"
    },
    {
      "anonymous": false,
      "inputs": [
        {
          "indexed": false,
          "internalType": "uint256",
          "name": "feeBasePoint",
          "type": "uint256"
        }
      ],
      "name": "SetFeeBasePoint",
      "type": "event"
    },
    {
      "inputs": [
        {
          "internalType": "address",
          "name": "_erc20Contract",
          "type": "address"
        }
      ],
      "name": "addERC20",
      "outputs": [
        {
          "internalType": "uint256",
          "name": "id",
          "type": "uint256"
        }
      ],
      "stateMutability": "nonpayable",
      "type": "function"
    },
    {
      "inputs": [
        {
          "internalType": "address",
          "name": "_addr",
          "type": "address"
        },
        {
          "internalType": "uint256",
          "name": "_amount",
          "type": "uint256"
        }
      ],
      "name": "erc20Deposit",
      "outputs": [],
      "stateMutability": "nonpayable",
      "type": "function"
    },
    {
      "inputs": [
        {
          "internalType": "address",
          "name": "_addr",
          "type": "address"
        },
        {
          "internalType": "uint256",
          "name": "_amount",
          "type": "uint256"
        },
        {
          "internalType": "address",
          "name": "_to",
          "type": "address"
        }
      ],
      "name": "erc20DepositTo",
      "outputs": [],
      "stateMutability": "nonpayable",
      "type": "function"
    },
    {
      "inputs": [
        {
          "internalType": "address",
          "name": "",
          "type": "address"
        }
      ],
      "name": "erc20ToId",
      "outputs": [
        {
          "internalType": "uint256",
          "name": "",
          "type": "uint256"
        }
      ],
      "stateMutability": "view",
      "type": "function"
    },
    {
      "inputs": [
        {
          "internalType": "address",
          "name": "_addr",
          "type": "address"
        },
        {
          "internalType": "uint256",
          "name": "_amount",
          "type": "uint256"
        }
      ],
      "name": "erc20Withdraw",
      "outputs": [],
      "stateMutability": "nonpayable",
      "type": "function"
    },
    {
      "inputs": [
        {
          "internalType": "address",
          "name": "_addr",
          "type": "address"
        },
        {
          "internalType": "uint256",
          "name": "_amount",
          "type": "uint256"
        },
        {
          "internalType": "address",
          "name": "_to",
          "type": "address"
        }
      ],
      "name": "erc20WithdrawTo",
      "outputs": [],
      "stateMutability": "nonpayable",
      "type": "function"
    },
    {
      "inputs": [],
      "name": "ethDeposit",
      "outputs": [],
      "stateMutability": "payable",
      "type": "function"
    },
    {
      "inputs": [
        {
          "internalType": "address",
          "name": "_to",
          "type": "address"
        }
      ],
      "name": "ethDepositTo",
      "outputs": [],
      "stateMutability": "payable",
      "type": "function"
    },
    {
      "inputs": [
        {
          "internalType": "uint256",
          "name": "_amount",
          "type": "uint256"
        }
      ],
      "name": "ethWithdraw",
      "outputs": [],
      "stateMutability": "nonpayable",
      "type": "function"
    },
    {
      "inputs": [
        {
          "internalType": "uint256",
          "name": "_amount",
          "type": "uint256"
        },
        {
          "internalType": "address",
          "name": "_to",
          "type": "address"
        }
      ],
      "name": "ethWithdrawTo",
      "outputs": [],
      "stateMutability": "nonpayable",
      "type": "function"
    },
    {
      "inputs": [],
      "name": "feeAddress",
      "outputs": [
        {
          "internalType": "address",
          "name": "",
          "type": "address"
        }
      ],
      "stateMutability": "view",
      "type": "function"
    },
    {
      "inputs": [],
      "name": "feeBasePoint",
      "outputs": [
        {
          "internalType": "uint256",
          "name": "",
          "type": "uint256"
        }
      ],
      "stateMutability": "view",
      "type": "function"
    },
    {
      "inputs": [],
      "name": "lastId",
      "outputs": [
        {
          "internalType": "uint256",
          "name": "",
          "type": "uint256"
        }
      ],
      "stateMutability": "view",
      "type": "function"
    },
    {
      "inputs": [],
      "name": "owner",
      "outputs": [
        {
          "internalType": "address",
          "name": "",
          "type": "address"
        }
      ],
      "stateMutability": "view",
      "type": "function"
    },
    {
      "inputs": [],
      "name": "renounceOwnership",
      "outputs": [],
      "stateMutability": "nonpayable",
      "type": "function"
    },
    {
      "inputs": [
        {
          "internalType": "address",
          "name": "_feeAddress",
          "type": "address"
        }
      ],
      "name": "setFeeAddress",
      "outputs": [],
      "stateMutability": "nonpayable",
      "type": "function"
    },
    {
      "inputs": [
        {
          "internalType": "uint256",
          "name": "_feeBasePoint",
          "type": "uint256"
        }
      ],
      "name": "setFeeBasePoint",
      "outputs": [],
      "stateMutability": "nonpayable",
      "type": "function"
    },
    {
      "inputs": [],
      "name": "spaceETH",
      "outputs": [
        {
          "internalType": "uint256",
          "name": "",
          "type": "uint256"
        }
      ],
      "stateMutability": "view",
      "type": "function"
    },
    {
      "inputs": [
        {
          "internalType": "uint256",
          "name": "",
          "type": "uint256"
        }
      ],
      "name": "supportedTokens",
      "outputs": [
        {
          "internalType": "address",
          "name": "",
          "type": "address"
        }
      ],
      "stateMutability": "view",
      "type": "function"
    },
    {
      "inputs": [],
      "name": "tokenContract",
      "outputs": [
        {
          "internalType": "contract SpacePiratesTokens",
          "name": "",
          "type": "address"
        }
      ],
      "stateMutability": "view",
      "type": "function"
    },
    {
      "inputs": [
        {
          "internalType": "address",
          "name": "newOwner",
          "type": "address"
        }
      ],
      "name": "transferOwnership",
      "outputs": [],
      "stateMutability": "nonpayable",
      "type": "function"
    }
  ],
  "bytecode": "0x60a060405260646001553480156200001657600080fd5b50d380156200002457600080fd5b50d280156200003257600080fd5b50604051620019d2380380620019d28339810160408190526200005591620000c6565b620000603362000076565b60601b6001600160601b03191660805262000101565b600080546001600160a01b038381166001600160a01b0319831681178455604051919092169283917f8be0079c531659141344cd1fd0a4f28419497f9722a3daafe3b4186f6b6457e09190a35050565b600060208284031215620000d957600080fd5b81516001600160a81b0381168114620000f157600080fd5b6001600160a01b03169392505050565b60805160601c61187a62000158600039600081816102da0152818161068b0152818161075b01528181610a6b01528181610b8901528181610cfd01528181610e7501528181610f68015261103d015261187a6000f3fe60806040526004361061012a5760003560e01c80638705fcd4116100ab578063c62556261161006f578063c625562614610483578063c913d172146104bd578063cc5c7b3e14610504578063d265c5dd14610517578063d618164a14610551578063f2fde38b1461058057600080fd5b80638705fcd41461036d5780638da5cb5b146103a7578063b0b969ac146103df578063b23f535e14610419578063c1292cc31461045357600080fd5b806354594abd116100f257806354594abd1461027457806355a373d6146102ae5780635fc11161146102fc578063715018a61461030457806375b74f341461033357600080fd5b80631ef414f71461012f578063310fe8a41461017257806335ec1a75146101ae57806341275358146101e857806343658a701461023a575b600080fd5b34801561013b57600080fd5b50d3801561014857600080fd5b50d2801561015557600080fd5b5061015f60055481565b6040519081526020015b60405180910390f35b34801561017e57600080fd5b50d3801561018b57600080fd5b50d2801561019857600080fd5b506101ac6101a73660046115c4565b6105ba565b005b3480156101ba57600080fd5b50d380156101c757600080fd5b50d280156101d457600080fd5b506101ac6101e336600461164c565b610744565b3480156101f457600080fd5b50d3801561020157600080fd5b50d2801561020e57600080fd5b50600454610222906001600160a01b031681565b6040516001600160a01b039091168152602001610169565b34801561024657600080fd5b50d3801561025357600080fd5b50d2801561026057600080fd5b5061015f61026f3660046115a9565b61086d565b34801561028057600080fd5b50d3801561028d57600080fd5b50d2801561029a57600080fd5b506101ac6102a936600461164c565b6109a0565b3480156102ba57600080fd5b50d380156102c757600080fd5b50d280156102d457600080fd5b506102227f000000000000000000000000000000000000000000000000000000000000000081565b6101ac610a54565b34801561031057600080fd5b50d3801561031d57600080fd5b50d2801561032a57600080fd5b506101ac610b13565b34801561033f57600080fd5b50d3801561034c57600080fd5b50d2801561035957600080fd5b506101ac6103683660046115ee565b610b27565b34801561037957600080fd5b50d3801561038657600080fd5b50d2801561039357600080fd5b506101ac6103a23660046115a9565b610c45565b3480156103b357600080fd5b50d380156103c057600080fd5b50d280156103cd57600080fd5b506000546001600160a01b0316610222565b3480156103eb57600080fd5b50d380156103f857600080fd5b50d2801561040557600080fd5b506101ac6104143660046115c4565b610c9b565b34801561042557600080fd5b50d3801561043257600080fd5b50d2801561043f57600080fd5b506101ac61044e3660046115ee565b610dad565b34801561045f57600080fd5b50d3801561046c57600080fd5b50d2801561047957600080fd5b5061015f60015481565b34801561048f57600080fd5b50d3801561049c57600080fd5b50d280156104a957600080fd5b506102226104b836600461164c565b610f27565b3480156104c957600080fd5b50d380156104d657600080fd5b50d280156104e357600080fd5b5061015f6104f23660046115a9565b60036020526000908152604090205481565b6101ac6105123660046115a9565b610f51565b34801561052357600080fd5b50d3801561053057600080fd5b50d2801561053d57600080fd5b506101ac61054c366004611665565b611026565b34801561055d57600080fd5b50d3801561056a57600080fd5b50d2801561057757600080fd5b5061015f606481565b34801561058c57600080fd5b50d3801561059957600080fd5b50d280156105a657600080fd5b506101ac6105b53660046115a9565b611163565b6001600160a01b038216600090815260036020526040902054806105f95760405162461bcd60e51b81526004016105f090611701565b60405180910390fd5b600554156106605760006127106005548461061491906117b1565b61061e919061178f565b60045490915061063b906001600160a01b038681169116836111dc565b61065a3361064983866117d0565b6001600160a01b03871691906111dc565b50610674565b6106746001600160a01b03841633846111dc565b604051637a94c56560e11b81526001600160a01b037f0000000000000000000000000000000000000000000000000000000000000000169063f5298aca906106c4903390869086906004016116ad565b600060405180830381600087803b1580156106de57600080fd5b505af11580156106f2573d6000803e3d6000fd5b505060408051848152602081018690526001600160a01b038716935033925082917fb82384175222b8b8a9e9a2de651261ffb2ae287465039b486363e6010db9decc91015b60405180910390a4505050565b604051637a94c56560e11b81526001600160a01b037f0000000000000000000000000000000000000000000000000000000000000000169063f5298aca9061079590339085906064906004016116ad565b600060405180830381600087803b1580156107af57600080fd5b505af11580156107c3573d6000803e3d6000fd5b50506040516000925033915083908381818185875af1925050503d8060008114610809576040519150601f19603f3d011682016040523d82523d6000602084013e61080e565b606091505b505090508061082f5760405162461bcd60e51b81526004016105f09061174b565b604051828152606490339081907fe3dc91d7807bc56b6682d8279b38ed74cefbf6ee82d79ffd5cb0b0cad8fdd3989060200160405180910390a45050565b6000610877611244565b6001600160a01b038216600090815260036020526040902054156108ef5760405162461bcd60e51b815260206004820152602960248201527f537061636550697261746573577261707065723a20746f6b656e20616c72656160448201526864792065786973747360b81b60648201526084016105f0565b6001600081546108fe90611813565b91829055506001600160a01b0383166000818152600360205260408082208490556002805460018101825592527f405787fa12a823e0f2b7631cc41b3ba8828b3321ca811111fa75cd3aa3bb5ace90910180546001600160a01b0319168317905551919250907fb4252717ce23d8029abb408851c7a1b17d6153bc9a28b9bbbbb678ffd755b6e6906109939084815260200190565b60405180910390a2919050565b6109a8611244565b612710811115610a185760405162461bcd60e51b815260206004820152603560248201527f537061636550697261746573577261707065723a20696e76616c6964206465706044820152746f7369742066656520626173697320706f696e747360581b60648201526084016105f0565b60058190556040518181527f4e2b1b9ac8adf7baa10b627af8d22f0a7919f90fc8d82ac67c123c9f3c4bd705906020015b60405180910390a150565b604051630ab714fb60e11b81526001600160a01b037f0000000000000000000000000000000000000000000000000000000000000000169063156e29f690610aa590339034906064906004016116ad565b600060405180830381600087803b158015610abf57600080fd5b505af1158015610ad3573d6000803e3d6000fd5b50506040513481526064925033915081907f142820add0a5d3e5ad3b4bf87784c72bd6b7767da6abad3ce6f8605f762430429060200160405180910390a4565b610b1b611244565b610b25600061129e565b565b6001600160a01b03831660009081526003602052604090205480610b5d5760405162461bcd60e51b81526004016105f090611701565b610b726001600160a01b0385163330866112ee565b604051630ab714fb60e11b81526001600160a01b037f0000000000000000000000000000000000000000000000000000000000000000169063156e29f690610bc2908590879086906004016116ad565b600060405180830381600087803b158015610bdc57600080fd5b505af1158015610bf0573d6000803e3d6000fd5b505060408051848152602081018790526001600160a01b0380891694508616925033917f11f8fc1c83f28d04a445c8ff0d48d1d193d6630abb9e3f548c9ffcf8873eb98d91015b60405180910390a450505050565b610c4d611244565b600480546001600160a01b0319166001600160a01b0383169081179091556040519081527ffcb8a963756b148f85a52537b63147b6c4b40af694099c901ac3b99d317a2db890602001610a49565b6001600160a01b03821660009081526003602052604090205480610cd15760405162461bcd60e51b81526004016105f090611701565b610ce66001600160a01b0384163330856112ee565b604051630ab714fb60e11b81526001600160a01b037f0000000000000000000000000000000000000000000000000000000000000000169063156e29f690610d36903390869086906004016116ad565b600060405180830381600087803b158015610d5057600080fd5b505af1158015610d64573d6000803e3d6000fd5b505060408051848152602081018690526001600160a01b038716935033925082917f11f8fc1c83f28d04a445c8ff0d48d1d193d6630abb9e3f548c9ffcf8873eb98d9101610737565b6001600160a01b03831660009081526003602052604090205480610de35760405162461bcd60e51b81526004016105f090611701565b60055415610e4a57600061271060055485610dfe91906117b1565b610e08919061178f565b600454909150610e25906001600160a01b038781169116836111dc565b610e4483610e3383876117d0565b6001600160a01b03881691906111dc565b50610e5e565b610e5e6001600160a01b03851683856111dc565b604051637a94c56560e11b81526001600160a01b037f0000000000000000000000000000000000000000000000000000000000000000169063f5298aca90610eae903390879086906004016116ad565b600060405180830381600087803b158015610ec857600080fd5b505af1158015610edc573d6000803e3d6000fd5b505060408051848152602081018790526001600160a01b0380891694508616925033917fb82384175222b8b8a9e9a2de651261ffb2ae287465039b486363e6010db9decc9101610c37565b60028181548110610f3757600080fd5b6000918252602090912001546001600160a01b0316905081565b604051630ab714fb60e11b81526001600160a01b037f0000000000000000000000000000000000000000000000000000000000000000169063156e29f690610fa290849034906064906004016116ad565b600060405180830381600087803b158015610fbc57600080fd5b505af1158015610fd0573d6000803e3d6000fd5b505050506064816001600160a01b0316336001600160a01b03167f142820add0a5d3e5ad3b4bf87784c72bd6b7767da6abad3ce6f8605f762430423460405161101b91815260200190565b60405180910390a450565b604051637a94c56560e11b81526001600160a01b037f0000000000000000000000000000000000000000000000000000000000000000169063f5298aca9061107790339086906064906004016116ad565b600060405180830381600087803b15801561109157600080fd5b505af11580156110a5573d6000803e3d6000fd5b505050506000816001600160a01b03168360405160006040518083038185875af1925050503d80600081146110f6576040519150601f19603f3d011682016040523d82523d6000602084013e6110fb565b606091505b505090508061111c5760405162461bcd60e51b81526004016105f09061174b565b6064826001600160a01b0316336001600160a01b03167fe3dc91d7807bc56b6682d8279b38ed74cefbf6ee82d79ffd5cb0b0cad8fdd3988660405161073791815260200190565b61116b611244565b6001600160a01b0381166111d05760405162461bcd60e51b815260206004820152602660248201527f4f776e61626c653a206e6577206f776e657220697320746865207a65726f206160448201526564647265737360d01b60648201526084016105f0565b6111d98161129e565b50565b6040516001600160a01b03831660248201526044810182905261123f90849063a9059cbb60e01b906064015b60408051601f198184030181529190526020810180516001600160e01b03166001600160e01b03199093169290921790915261132c565b505050565b6000546001600160a01b03163314610b255760405162461bcd60e51b815260206004820181905260248201527f4f776e61626c653a2063616c6c6572206973206e6f7420746865206f776e657260448201526064016105f0565b600080546001600160a01b038381166001600160a01b0319831681178455604051919092169283917f8be0079c531659141344cd1fd0a4f28419497f9722a3daafe3b4186f6b6457e09190a35050565b6040516001600160a01b03808516602483015283166044820152606481018290526113269085906323b872dd60e01b90608401611208565b50505050565b6000611381826040518060400160405280602081526020017f5361666545524332303a206c6f772d6c6576656c2063616c6c206661696c6564815250856001600160a01b03166113fe9092919063ffffffff16565b80519091501561123f578080602001905181019061139f919061162a565b61123f5760405162461bcd60e51b815260206004820152602a60248201527f5361666545524332303a204245503230206f7065726174696f6e20646964206e6044820152691bdd081cdd58d8d9595960b21b60648201526084016105f0565b606061140d8484600085611417565b90505b9392505050565b6060824710156114785760405162461bcd60e51b815260206004820152602660248201527f416464726573733a20696e73756666696369656e742062616c616e636520666f6044820152651c8818d85b1b60d21b60648201526084016105f0565b6001600160a01b0385163b6114cf5760405162461bcd60e51b815260206004820152601d60248201527f416464726573733a2063616c6c20746f206e6f6e2d636f6e747261637400000060448201526064016105f0565b600080866001600160a01b031685876040516114eb9190611691565b60006040518083038185875af1925050503d8060008114611528576040519150601f19603f3d011682016040523d82523d6000602084013e61152d565b606091505b509150915061153d828286611548565b979650505050505050565b60608315611557575081611410565b8251156115675782518084602001fd5b8160405162461bcd60e51b81526004016105f091906116ce565b600081356001600160a81b038116811461159a57600080fd5b6001600160a01b031692915050565b6000602082840312156115bb57600080fd5b61141082611581565b600080604083850312156115d757600080fd5b6115e083611581565b946020939093013593505050565b60008060006060848603121561160357600080fd5b61160c84611581565b92506020840135915061162160408501611581565b90509250925092565b60006020828403121561163c57600080fd5b8151801515811461141057600080fd5b60006020828403121561165e57600080fd5b5035919050565b6000806040838503121561167857600080fd5b8235915061168860208401611581565b90509250929050565b600082516116a38184602087016117e7565b9190910192915050565b6001600160a01b039390931683526020830191909152604082015260600190565b60208152600082518060208401526116ed8160408501602087016117e7565b601f01601f19169190910160400192915050565b6020808252602a908201527f537061636550697261746573577261707065723a20746f6b656e20646f6573206040820152696e6f742065786973747360b01b606082015260800190565b60208082526024908201527f537061636550697261746573577261707065723a2077697468647261772066616040820152631a5b195960e21b606082015260800190565b6000826117ac57634e487b7160e01b600052601260045260246000fd5b500490565b60008160001904831182151516156117cb576117cb61182e565b500290565b6000828210156117e2576117e261182e565b500390565b60005b838110156118025781810151838201526020016117ea565b838111156113265750506000910152565b60006000198214156118275761182761182e565b5060010190565b634e487b7160e01b600052601160045260246000fdfea26474726f6e582212207bb324b774c291fbd8c8e76b7934a1d5113b1f522a6f51a97a4da23923200db764736f6c63430008060033",
  "source": "// SPDX-License-Identifier: unlicense\r\npragma solidity ^0.8.0;\r\n\r\nimport \"@openzeppelin/contracts/token/ERC20/IERC20.sol\";\r\nimport \"@openzeppelin/contracts/access/Ownable.sol\";\r\nimport \"./libraries/SafeERC20.sol\";\r\nimport \"./SpacePiratesTokens.sol\";\r\n\r\n/**\r\n    @title Wrapper contract for ERC20 and native tokens\r\n    @author @yuripaoloni, @MatteoLeonesi, @Gr3it (reviewer)\r\n    @notice Wrap ERC20 and native tokens in order to use them in the ERC1155 contract\r\n */\r\ncontract SpacePiratesWrapper is Ownable {\r\n    using SafeERC20 for IERC20;\r\n\r\n    SpacePiratesTokens public immutable tokenContract;\r\n\r\n    uint256 public constant spaceETH = 100;\r\n\r\n    uint256 public lastId = 100;\r\n    address[] public supportedTokens;\r\n    mapping(address => uint256) public erc20ToId;\r\n\r\n    address public feeAddress;\r\n    uint256 public feeBasePoint;\r\n\r\n    event ERC20Added(address indexed _erc20contract, uint256 id);\r\n    event ERC20Deposited(\r\n        address indexed from,\r\n        address indexed to,\r\n        address indexed _erc20contract,\r\n        uint256 id,\r\n        uint256 amount\r\n    );\r\n    event ERC20Withdrawn(\r\n        address indexed from,\r\n        address indexed to,\r\n        address indexed _erc20contract,\r\n        uint256 id,\r\n        uint256 amount\r\n    );\r\n    event ETHDeposited(\r\n        address indexed from,\r\n        address indexed to,\r\n        uint256 indexed id,\r\n        uint256 amount\r\n    );\r\n    event ETHWithdrawn(\r\n        address indexed from,\r\n        address indexed to,\r\n        uint256 indexed id,\r\n        uint256 amount\r\n    );\r\n    event SetFeeBasePoint(uint256 feeBasePoint);\r\n    event SetFeeAddress(address feeAddress);\r\n\r\n    constructor(SpacePiratesTokens _tokenContract) {\r\n        tokenContract = _tokenContract;\r\n    }\r\n\r\n    function addERC20(address _erc20Contract)\r\n        external\r\n        onlyOwner\r\n        returns (uint256 id)\r\n    {\r\n        require(\r\n            erc20ToId[_erc20Contract] == 0,\r\n            \"SpacePiratesWrapper: token already exists\"\r\n        );\r\n\r\n        id = ++lastId;\r\n\r\n        erc20ToId[_erc20Contract] = id;\r\n        supportedTokens.push(_erc20Contract);\r\n\r\n        emit ERC20Added(_erc20Contract, id);\r\n    }\r\n\r\n    function erc20Deposit(address _addr, uint256 _amount) external {\r\n        uint256 id = erc20ToId[_addr];\r\n\r\n        require(id != 0, \"SpacePiratesWrapper: token does not exists\");\r\n\r\n        IERC20(_addr).safeTransferFrom(msg.sender, address(this), _amount);\r\n\r\n        tokenContract.mint(msg.sender, _amount, id);\r\n\r\n        emit ERC20Deposited(msg.sender, msg.sender, _addr, id, _amount);\r\n    }\r\n\r\n    function erc20DepositTo(\r\n        address _addr,\r\n        uint256 _amount,\r\n        address _to\r\n    ) external {\r\n        uint256 id = erc20ToId[_addr];\r\n\r\n        require(id != 0, \"SpacePiratesWrapper: token does not exists\");\r\n\r\n        IERC20(_addr).safeTransferFrom(msg.sender, address(this), _amount);\r\n\r\n        tokenContract.mint(_to, _amount, id);\r\n\r\n        emit ERC20Deposited(msg.sender, _to, _addr, id, _amount);\r\n    }\r\n\r\n    function erc20Withdraw(address _addr, uint256 _amount) external {\r\n        uint256 id = erc20ToId[_addr];\r\n\r\n        require(id != 0, \"SpacePiratesWrapper: token does not exists\");\r\n\r\n        if (feeBasePoint > 0) {\r\n            uint256 depositFee = (_amount * feeBasePoint) / 10000;\r\n            IERC20(_addr).safeTransfer(feeAddress, depositFee);\r\n            IERC20(_addr).safeTransfer(msg.sender, _amount - depositFee);\r\n        } else {\r\n            IERC20(_addr).safeTransfer(msg.sender, _amount);\r\n        }\r\n\r\n        tokenContract.burn(msg.sender, _amount, id);\r\n\r\n        emit ERC20Withdrawn(msg.sender, msg.sender, _addr, id, _amount);\r\n    }\r\n\r\n    function erc20WithdrawTo(\r\n        address _addr,\r\n        uint256 _amount,\r\n        address _to\r\n    ) external {\r\n        uint256 id = erc20ToId[_addr];\r\n\r\n        require(id != 0, \"SpacePiratesWrapper: token does not exists\");\r\n\r\n        if (feeBasePoint > 0) {\r\n            uint256 depositFee = (_amount * feeBasePoint) / 10000;\r\n            IERC20(_addr).safeTransfer(feeAddress, depositFee);\r\n            IERC20(_addr).safeTransfer(_to, _amount - depositFee);\r\n        } else {\r\n            IERC20(_addr).safeTransfer(_to, _amount);\r\n        }\r\n\r\n        tokenContract.burn(msg.sender, _amount, id);\r\n\r\n        emit ERC20Withdrawn(msg.sender, _to, _addr, id, _amount);\r\n    }\r\n\r\n    function ethDeposit() public payable {\r\n        tokenContract.mint(msg.sender, msg.value, spaceETH);\r\n\r\n        emit ETHDeposited(msg.sender, msg.sender, spaceETH, msg.value);\r\n    }\r\n\r\n    function ethDepositTo(address _to) external payable {\r\n        tokenContract.mint(_to, msg.value, spaceETH);\r\n\r\n        emit ETHDeposited(msg.sender, _to, spaceETH, msg.value);\r\n    }\r\n\r\n    function ethWithdraw(uint256 _amount) external {\r\n        tokenContract.burn(msg.sender, _amount, spaceETH);\r\n\r\n        (bool success, ) = msg.sender.call{value: _amount}(\"\");\r\n        require(success, \"SpacePiratesWrapper: withdraw failed\");\r\n\r\n        emit ETHWithdrawn(msg.sender, msg.sender, spaceETH, _amount);\r\n    }\r\n\r\n    function ethWithdrawTo(uint256 _amount, address _to) external {\r\n        tokenContract.burn(msg.sender, _amount, spaceETH);\r\n\r\n        (bool success, ) = _to.call{value: _amount}(\"\");\r\n        require(success, \"SpacePiratesWrapper: withdraw failed\");\r\n\r\n        emit ETHWithdrawn(msg.sender, _to, spaceETH, _amount);\r\n    }\r\n\r\n    function setFeeBasePoint(uint256 _feeBasePoint) external onlyOwner {\r\n        require(\r\n            _feeBasePoint <= 10000,\r\n            \"SpacePiratesWrapper: invalid deposit fee basis points\"\r\n        );\r\n\r\n        feeBasePoint = _feeBasePoint;\r\n\r\n        emit SetFeeBasePoint(_feeBasePoint);\r\n    }\r\n\r\n    function setFeeAddress(address _feeAddress) external onlyOwner {\r\n        feeAddress = _feeAddress;\r\n        emit SetFeeAddress(_feeAddress);\r\n    }\r\n}\r\n",
  "sourcePath": "C:/Users/emanu/space-pirates-tronbox/contracts/SpacePiratesWrapper.sol",
  "compiler": {
    "name": "solc",
    "version": "0.8.6+commit.0e36fba0.mod.Emscripten.clang"
  },
  "schemaVersion": "2.0.1",
  "updatedAt": "2022-07-16T14:55:56.102Z"
}